{
  "_format": "hh-sol-artifact-1",
  "contractName": "LiftoffInsurance",
  "sourceName": "contracts/LiftoffInsurance.sol",
  "abi": [
    {
      "anonymous": false,
      "inputs": [
        {
          "indexed": true,
          "internalType": "address",
          "name": "previousOwner",
          "type": "address"
        },
        {
          "indexed": true,
          "internalType": "address",
          "name": "newOwner",
          "type": "address"
        }
      ],
      "name": "OwnershipTransferred",
      "type": "event"
    },
    {
      "anonymous": false,
      "inputs": [
        {
          "indexed": false,
          "internalType": "address",
          "name": "account",
          "type": "address"
        }
      ],
      "name": "Paused",
      "type": "event"
    },
    {
      "anonymous": false,
      "inputs": [
        {
          "indexed": false,
          "internalType": "address",
          "name": "account",
          "type": "address"
        }
      ],
      "name": "Unpaused",
      "type": "event"
    },
    {
      "inputs": [
        {
          "internalType": "uint256",
          "name": "_tokenSaleId",
          "type": "uint256"
        }
      ],
      "name": "claim",
      "outputs": [],
      "stateMutability": "nonpayable",
      "type": "function"
    },
    {
      "inputs": [
        {
          "internalType": "uint256",
          "name": "_tokenSaleId",
          "type": "uint256"
        }
      ],
      "name": "createInsurance",
      "outputs": [],
      "stateMutability": "nonpayable",
      "type": "function"
    },
    {
      "inputs": [
        {
          "internalType": "contract ILiftoffSettings",
          "name": "_liftoffSettings",
          "type": "address"
        }
      ],
      "name": "initialize",
      "outputs": [],
      "stateMutability": "nonpayable",
      "type": "function"
    },
    {
      "inputs": [
        {
          "internalType": "uint256",
          "name": "",
          "type": "uint256"
        }
      ],
      "name": "insuranceIsInitialized",
      "outputs": [
        {
          "internalType": "bool",
          "name": "",
          "type": "bool"
        }
      ],
      "stateMutability": "view",
      "type": "function"
    },
    {
      "inputs": [],
      "name": "liftoffSettings",
      "outputs": [
        {
          "internalType": "contract ILiftoffSettings",
          "name": "",
          "type": "address"
        }
      ],
      "stateMutability": "view",
      "type": "function"
    },
    {
      "inputs": [],
      "name": "owner",
      "outputs": [
        {
          "internalType": "address",
          "name": "",
          "type": "address"
        }
      ],
      "stateMutability": "view",
      "type": "function"
    },
    {
      "inputs": [],
      "name": "paused",
      "outputs": [
        {
          "internalType": "bool",
          "name": "",
          "type": "bool"
        }
      ],
      "stateMutability": "view",
      "type": "function"
    },
    {
      "inputs": [
        {
          "internalType": "uint256",
          "name": "_tokenSaleId",
          "type": "uint256"
        },
        {
          "internalType": "uint256",
          "name": "_amount",
          "type": "uint256"
        }
      ],
      "name": "redeem",
      "outputs": [],
      "stateMutability": "nonpayable",
      "type": "function"
    },
    {
      "inputs": [
        {
          "internalType": "uint256",
          "name": "_tokenSaleId",
          "type": "uint256"
        }
      ],
      "name": "register",
      "outputs": [],
      "stateMutability": "nonpayable",
      "type": "function"
    },
    {
      "inputs": [],
      "name": "renounceOwnership",
      "outputs": [],
      "stateMutability": "nonpayable",
      "type": "function"
    },
    {
      "inputs": [
        {
          "internalType": "contract ILiftoffSettings",
          "name": "_liftoffSettings",
          "type": "address"
        }
      ],
      "name": "setLiftoffSettings",
      "outputs": [],
      "stateMutability": "nonpayable",
      "type": "function"
    },
    {
      "inputs": [
        {
          "internalType": "uint256",
          "name": "",
          "type": "uint256"
        }
      ],
      "name": "tokenInsurances",
      "outputs": [
        {
          "internalType": "uint256",
          "name": "startTime",
          "type": "uint256"
        },
        {
          "internalType": "uint256",
          "name": "totalIgnited",
          "type": "uint256"
        },
        {
          "internalType": "uint256",
          "name": "tokensPerEthWad",
          "type": "uint256"
        },
        {
          "internalType": "uint256",
          "name": "baseXEth",
          "type": "uint256"
        },
        {
          "internalType": "uint256",
          "name": "baseTokenLidPool",
          "type": "uint256"
        },
        {
          "internalType": "uint256",
          "name": "redeemedXEth",
          "type": "uint256"
        },
        {
          "internalType": "uint256",
          "name": "claimedXEth",
          "type": "uint256"
        },
        {
          "internalType": "uint256",
          "name": "claimedTokenLidPool",
          "type": "uint256"
        },
        {
          "internalType": "address",
          "name": "deployed",
          "type": "address"
        },
        {
          "internalType": "address",
          "name": "projectDev",
          "type": "address"
        },
        {
          "internalType": "bool",
          "name": "isUnwound",
          "type": "bool"
        },
        {
          "internalType": "bool",
          "name": "hasBaseFeeClaimed",
          "type": "bool"
        }
      ],
      "stateMutability": "view",
      "type": "function"
    },
    {
      "inputs": [
        {
          "internalType": "uint256",
          "name": "",
          "type": "uint256"
        }
      ],
      "name": "tokenIsRegistered",
      "outputs": [
        {
          "internalType": "bool",
          "name": "",
          "type": "bool"
        }
      ],
      "stateMutability": "view",
      "type": "function"
    },
    {
      "inputs": [
        {
          "internalType": "address",
          "name": "newOwner",
          "type": "address"
        }
      ],
      "name": "transferOwnership",
      "outputs": [],
      "stateMutability": "nonpayable",
      "type": "function"
    }
  ],
  "bytecode": "0x608060405234801561001057600080fd5b50612930806100206000396000f3fe608060405234801561001057600080fd5b50600436106100ea5760003560e01c80638da5cb5b1161008c578063c4d66de811610066578063c4d66de81461026d578063ce88d40714610293578063f207564e146102b0578063f2fde38b146102cd576100ea565b80638da5cb5b146101b3578063aa05ebce146101bb578063ab9c2d13146101e1576100ea565b80636ecec0d9116100c85780636ecec0d914610147578063715018a6146101645780637cbc23731461016c5780638d70baf01461018f576100ea565b8063379607f5146100ef5780634f00513e1461010e5780635c975abb1461012b575b600080fd5b61010c6004803603602081101561010557600080fd5b50356102f3565b005b61010c6004803603602081101561012457600080fd5b5035610dc8565b6101336112ef565b604080519115158252519081900360200190f35b6101336004803603602081101561015d57600080fd5b50356112f8565b61010c61130d565b61010c6004803603604081101561018257600080fd5b50803590602001356113c1565b610197611bd3565b604080516001600160a01b039092168252519081900360200190f35b610197611be2565b61010c600480360360208110156101d157600080fd5b50356001600160a01b0316611bf1565b6101fe600480360360208110156101f757600080fd5b5035611c7d565b604080519c8d5260208d019b909b528b8b019990995260608b019790975260808a019590955260a089019390935260c088019190915260e08701526001600160a01b03908116610100870152166101208501521515610140840152151561016083015251908190036101800190f35b61010c6004803603602081101561028357600080fd5b50356001600160a01b0316611cf1565b610133600480360360208110156102a957600080fd5b5035611dc7565b61010c600480360360208110156102c657600080fd5b5035611ddc565b61010c600480360360208110156102e357600080fd5b50356001600160a01b0316611ec8565b600081815260ca6020908152604080832060cc9092529091205460ff1661035d576040805162461bcd60e51b8152602060048201526019602482015278125b9cdd5c985b98d9481b9bdd081a5b9a5d1a585b1a5e9959603a1b604482015290519081900360640190fd5b6009810154600160a01b900460ff16156103be576040805162461bcd60e51b815260206004820152601b60248201527f546f6b656e20696e737572616e636520697320756e776f756e642e0000000000604482015290519081900360640190fd5b600061045c60c960009054906101000a90046001600160a01b03166001600160a01b031663817c620d6040518163ffffffff1660e01b815260040160206040518083038186803b15801561041157600080fd5b505afa158015610425573d6000803e3d6000fd5b505050506040513d602081101561043b57600080fd5b5051835461045090429063ffffffff611fd316565b9063ffffffff61201e16565b9050600060c960009054906101000a90046001600160a01b03166001600160a01b031663db1c9fc66040518163ffffffff1660e01b815260040160206040518083038186803b1580156104ae57600080fd5b505afa1580156104c2573d6000803e3d6000fd5b505050506040513d60208110156104d857600080fd5b50516001840154600985015491925090600160a81b900460ff166106e957600061058260c960009054906101000a90046001600160a01b03166001600160a01b0316631b019bb36040518163ffffffff1660e01b815260040160206040518083038186803b15801561054957600080fd5b505afa15801561055d573d6000803e3d6000fd5b505050506040513d602081101561057357600080fd5b5051839063ffffffff61206016565b9050826001600160a01b031663a9059cbb60c960009054906101000a90046001600160a01b03166001600160a01b031663ff975e236040518163ffffffff1660e01b815260040160206040518083038186803b1580156105e157600080fd5b505afa1580156105f5573d6000803e3d6000fd5b505050506040513d602081101561060b57600080fd5b5051604080516001600160e01b031960e085901b1681526001600160a01b039092166004830152602482018590525160448083019260209291908290030181600087803b15801561065b57600080fd5b505af115801561066f573d6000803e3d6000fd5b505050506040513d602081101561068557600080fd5b50516106ca576040805162461bcd60e51b815260206004820152600f60248201526e151c985b9cd9995c8819985a5b1959608a1b604482015290519081900360640190fd5b5050506009909101805460ff60a81b1916600160a81b17905550610dc5565b600083116107285760405162461bcd60e51b815260040180806020018281038252602a815260200180612839602a913960400191505060405180910390fd5b6000610741856005015483611fd390919063ffffffff16565b90506000610766600a61075a848863ffffffff61208516565b9063ffffffff6120de16565b9050818111156107735750805b600061078c876006015483611fd390919063ffffffff16565b60068801549091506107a4908263ffffffff61212016565b6006880155600987015460c95460408051630f801eb160e31b815290516001600160a01b03808a169463a9059cbb949082169361083e939190921691637c00f588916004808301926020929190829003018186803b15801561080557600080fd5b505afa158015610819573d6000803e3d6000fd5b505050506040513d602081101561082f57600080fd5b5051859063ffffffff61206016565b6040518363ffffffff1660e01b815260040180836001600160a01b03166001600160a01b0316815260200182815260200192505050602060405180830381600087803b15801561088d57600080fd5b505af11580156108a1573d6000803e3d6000fd5b505050506040513d60208110156108b757600080fd5b505161090a576040805162461bcd60e51b815260206004820152601f60248201527f5472616e7366657220784574682070726f6a656374446576206661696c656400604482015290519081900360640190fd5b846001600160a01b031663a9059cbb60c960009054906101000a90046001600160a01b03166001600160a01b031663ff975e236040518163ffffffff1660e01b815260040160206040518083038186803b15801561096757600080fd5b505afa15801561097b573d6000803e3d6000fd5b505050506040513d602081101561099157600080fd5b505160c95460408051635e047ae960e11b815290516109d9926001600160a01b03169163bc08f5d2916004808301926020929190829003018186803b15801561080557600080fd5b6040518363ffffffff1660e01b815260040180836001600160a01b03166001600160a01b0316815260200182815260200192505050602060405180830381600087803b158015610a2857600080fd5b505af1158015610a3c573d6000803e3d6000fd5b505050506040513d6020811015610a5257600080fd5b5051610aa5576040805162461bcd60e51b815260206004820181905260248201527f5472616e736665722078457468206c69645472656173757279206661696c6564604482015290519081900360640190fd5b846001600160a01b031663a9059cbb60c960009054906101000a90046001600160a01b03166001600160a01b0316635308f9016040518163ffffffff1660e01b815260040160206040518083038186803b158015610b0257600080fd5b505afa158015610b16573d6000803e3d6000fd5b505050506040513d6020811015610b2c57600080fd5b505160c954604080516257581b60e61b81529051610b73926001600160a01b0316916315d606c0916004808301926020929190829003018186803b15801561080557600080fd5b6040518363ffffffff1660e01b815260040180836001600160a01b03166001600160a01b0316815260200182815260200192505050602060405180830381600087803b158015610bc257600080fd5b505af1158015610bd6573d6000803e3d6000fd5b505050506040513d6020811015610bec57600080fd5b5051610c295760405162461bcd60e51b81526004018080602001828103825260238152602001806128b16023913960400191505060405180910390fd5b60048701546000610c45600a61075a848b63ffffffff61208516565b905081811115610c525750805b6000610c6b8a6007015483611fd390919063ffffffff16565b60078b0154909150610c83908263ffffffff61212016565b60078b015560088a015460c95460408051635308f90160e01b815290516001600160a01b039384169363a9059cbb931691635308f901916004808301926020929190829003018186803b158015610cd957600080fd5b505afa158015610ced573d6000803e3d6000fd5b505050506040513d6020811015610d0357600080fd5b5051604080516001600160e01b031960e085901b1681526001600160a01b039092166004830152602482018590525160448083019260209291908290030181600087803b158015610d5357600080fd5b505af1158015610d67573d6000803e3d6000fd5b505050506040513d6020811015610d7d57600080fd5b5051610dba5760405162461bcd60e51b81526004018080602001828103825260278152602001806128d46027913960400191505060405180910390fd5b505050505050505050505b50565b600081815260cc602052604090205460ff1615610e2c576040805162461bcd60e51b815260206004820152601d60248201527f496e737572616e636520616c726561647920696e697469616c697a6564000000604482015290519081900360640190fd5b600081815260cb602052604090205460ff16610e8f576040805162461bcd60e51b815260206004820152601960248201527f546f6b656e206e6f742079657420726567697374657265642e00000000000000604482015290519081900360640190fd5b60008060008060c960009054906101000a90046001600160a01b03166001600160a01b0316636c5ccfb06040518163ffffffff1660e01b815260040160206040518083038186803b158015610ee357600080fd5b505afa158015610ef7573d6000803e3d6000fd5b505050506040513d6020811015610f0d57600080fd5b5051604080516362cd645360e01b81526004810188905290516001600160a01b03909216916362cd645391602480820192608092909190829003018186803b158015610f5857600080fd5b505afa158015610f6c573d6000803e3d6000fd5b505050506040513d6080811015610f8257600080fd5b508051602082015160408301516060909301519196509450909250905083610fbe6103e861075a86670de0b6b3a764000063ffffffff61208516565b11611010576040805162461bcd60e51b815260206004820152601b60248201527f4d7573742068617665206174206c656173742033206469676974730000000000604482015290519081900360640190fd5b6040518061018001604052804281526020018581526020016110cd8661075a60c960009054906101000a90046001600160a01b03166001600160a01b0316631b019bb36040518163ffffffff1660e01b815260040160206040518083038186803b15801561107d57600080fd5b505afa158015611091573d6000803e3d6000fd5b505050506040513d60208110156110a757600080fd5b50516110c189670de0b6b3a764000063ffffffff61208516565b9063ffffffff61217a16565b815260200161116c61115f60c960009054906101000a90046001600160a01b03166001600160a01b03166385dc58066040518163ffffffff1660e01b815260040160206040518083038186803b15801561112657600080fd5b505afa15801561113a573d6000803e3d6000fd5b505050506040513d602081101561115057600080fd5b5051889063ffffffff61206016565b879063ffffffff611fd316565b8152604080516370a0823160e01b815230600482015290516020928301926001600160a01b038616926370a082319260248083019392829003018186803b1580156111b657600080fd5b505afa1580156111ca573d6000803e3d6000fd5b505050506040513d60208110156111e057600080fd5b5051815260006020828101829052604080840183905260608085018490526001600160a01b0396871660808087019190915297871660a08087019190915260c080870186905260e09687018690529b855260ca84529382902086518155928601516001840155908501516002830155840151600382015594830151600486015582015160058501559581015160068401559485015160078301556101008501516008830180549183166001600160a01b031992831617905561012086015160099093018054610140880151610160909801511515600160a81b0260ff60a81b19981515600160a01b0260ff60a01b19969095169190931617939093169190911794909416939093179092555050565b60975460ff1690565b60cc6020526000908152604090205460ff1681565b6113156121af565b6033546001600160a01b03908116911614611377576040805162461bcd60e51b815260206004820181905260248201527f4f776e61626c653a2063616c6c6572206973206e6f7420746865206f776e6572604482015290519081900360640190fd5b6033546040516000916001600160a01b0316907f8be0079c531659141344cd1fd0a4f28419497f9722a3daafe3b4186f6b6457e0908390a3603380546001600160a01b0319169055565b600082815260ca6020908152604080832060cc9092529091205460ff1661142b576040805162461bcd60e51b8152602060048201526019602482015278125b9cdd5c985b98d9481b9bdd081a5b9a5d1a585b1a5e9959603a1b604482015290519081900360640190fd5b600881015460c95460408051636d8e4fe360e11b815290516001600160a01b0393841693600093169163db1c9fc6916004808301926020929190829003018186803b15801561147957600080fd5b505afa15801561148d573d6000803e3d6000fd5b505050506040513d60208110156114a357600080fd5b5051604080516370a0823160e01b815230600482015290519192506000916001600160a01b038516916370a08231916024808301926020929190829003018186803b1580156114f157600080fd5b505afa158015611505573d6000803e3d6000fd5b505050506040513d602081101561151b57600080fd5b5051604080516323b872dd60e01b81523360048201523060248201526044810188905290519192506001600160a01b038516916323b872dd916064808201926020929091908290030181600087803b15801561157657600080fd5b505af115801561158a573d6000803e3d6000fd5b505050506040513d60208110156115a057600080fd5b50516115e5576040805162461bcd60e51b815260206004820152600f60248201526e151c985b9cd9995c8819985a5b1959608a1b604482015290519081900360640190fd5b600061167982856001600160a01b03166370a08231306040518263ffffffff1660e01b815260040180826001600160a01b03166001600160a01b0316815260200191505060206040518083038186803b15801561164157600080fd5b505afa158015611655573d6000803e3d6000fd5b505050506040513d602081101561166b57600080fd5b50519063ffffffff611fd316565b905060006116a0866002015461075a670de0b6b3a76400008561208590919063ffffffff16565b905066038d7ea4c680008110156116e85760405162461bcd60e51b815260040180806020018281038252602d815260200180612884602d913960400191505060405180910390fd5b6040805160028082526060808301845292602083019080368337019050509050858160008151811061171657fe5b60200260200101906001600160a01b031690816001600160a01b031681525050848160018151811061174457fe5b6001600160a01b0392831660209182029290920181019190915260c9546040805163817c620d60e01b815290516117d494929092169263817c620d92600480840193829003018186803b15801561179a57600080fd5b505afa1580156117ae573d6000803e3d6000fd5b505050506040513d60208110156117c457600080fd5b505188549063ffffffff61212016565b421180156117f9575060058701546117f2908363ffffffff61212016565b8760030154105b611840576040805162461bcd60e51b8152602060048201526013602482015272125b9cdd5c985b98d948195e1a185d5cdd1959606a1b604482015290519081900360640190fd5b60c9546040805163817c620d60e01b81529051611886926001600160a01b03169163817c620d916004808301926020929190829003018186803b15801561179a57600080fd5b42111580156118ac575060058701546118a5908363ffffffff61212016565b8760030154105b156118c75760098701805460ff60a01b1916600160a01b1790555b6009870154600160a01b900460ff1615611b405760c960009054906101000a90046001600160a01b03166001600160a01b031663524900b56040518163ffffffff1660e01b815260040160206040518083038186803b15801561192957600080fd5b505afa15801561193d573d6000803e3d6000fd5b505050506040513d602081101561195357600080fd5b5051604080516370a0823160e01b815230600482015290516001600160a01b03928316926338ed173992908a16916370a0823191602480820192602092909190829003018186803b1580156119a757600080fd5b505afa1580156119bb573d6000803e3d6000fd5b505050506040513d60208110156119d157600080fd5b50516040516001600160e01b031960e084901b168152600481018281526000602483018190523060648401819052426084850181905260a060448601908152895160a4870152895193958a95939492939260c490910190602087810191028083838b5b83811015611a4c578181015183820152602001611a34565b505050509050019650505050505050600060405180830381600087803b158015611a7557600080fd5b505af1158015611a89573d6000803e3d6000fd5b505050506040513d6000823e601f3d908101601f191682016040526020811015611ab257600080fd5b8101908080516040519392919084640100000000821115611ad257600080fd5b908301906020820185811115611ae757600080fd5b8251866020820283011164010000000082111715611b0457600080fd5b82525081516020918201928201910280838360005b83811015611b31578181015183820152602001611b19565b50505050905001604052505050505b6005870154611b55908363ffffffff61212016565b60058801556040805163a9059cbb60e01b81523360048201526024810184905290516001600160a01b0387169163a9059cbb9160448083019260209291908290030181600087803b158015611ba957600080fd5b505af1158015611bbd573d6000803e3d6000fd5b505050506040513d6020811015610dba57600080fd5b60c9546001600160a01b031681565b6033546001600160a01b031690565b611bf96121af565b6033546001600160a01b03908116911614611c5b576040805162461bcd60e51b815260206004820181905260248201527f4f776e61626c653a2063616c6c6572206973206e6f7420746865206f776e6572604482015290519081900360640190fd5b60c980546001600160a01b0319166001600160a01b0392909216919091179055565b60ca602052600090815260409020805460018201546002830154600384015460048501546005860154600687015460078801546008890154600990990154979896979596949593949293919290916001600160a01b039182169181169060ff600160a01b8204811691600160a81b9004168c565b600054610100900460ff1680611d0a5750611d0a6121b3565b80611d18575060005460ff16155b611d535760405162461bcd60e51b815260040180806020018281038252602e81526020018061280b602e913960400191505060405180910390fd5b600054610100900460ff16158015611d7e576000805460ff1961ff0019909116610100171660011790555b611d866121b9565b611d8e61226a565b611d96612307565b60c980546001600160a01b0319166001600160a01b0384161790558015611dc3576000805461ff00191690555b5050565b60cb6020526000908152604090205460ff1681565b60c954604080516306c5ccfb60e41b815290516000926001600160a01b031691636c5ccfb0916004808301926020929190829003018186803b158015611e2157600080fd5b505afa158015611e35573d6000803e3d6000fd5b505050506040513d6020811015611e4b57600080fd5b50519050336001600160a01b03821614611eac576040805162461bcd60e51b815260206004820152601d60248201527f53656e646572206d757374206265204c6966746f666620456e67696e65000000604482015290519081900360640190fd5b50600090815260cb60205260409020805460ff19166001179055565b611ed06121af565b6033546001600160a01b03908116911614611f32576040805162461bcd60e51b815260206004820181905260248201527f4f776e61626c653a2063616c6c6572206973206e6f7420746865206f776e6572604482015290519081900360640190fd5b6001600160a01b038116611f775760405162461bcd60e51b81526004018080602001828103825260268152602001806127e56026913960400191505060405180910390fd5b6033546040516001600160a01b038084169216907f8be0079c531659141344cd1fd0a4f28419497f9722a3daafe3b4186f6b6457e090600090a3603380546001600160a01b0319166001600160a01b0392909216919091179055565b600061201583836040518060400160405280601e81526020017f536166654d6174683a207375627472616374696f6e206f766572666c6f77000081525061239c565b90505b92915050565b600061201583836040518060400160405280601881526020017f536166654d6174683a206d6f64756c6f206279207a65726f0000000000000000815250612433565b60008261206f57506000612018565b61201561271061075a858563ffffffff61208516565b60008261209457506000612018565b828202828482816120a157fe5b04146120155760405162461bcd60e51b81526004018080602001828103825260218152602001806128636021913960400191505060405180910390fd5b600061201583836040518060400160405280601a81526020017f536166654d6174683a206469766973696f6e206279207a65726f000000000000815250612495565b600082820183811015612015576040805162461bcd60e51b815260206004820152601b60248201527f536166654d6174683a206164646974696f6e206f766572666c6f770000000000604482015290519081900360640190fd5b60008261218957506000612018565b81612195575081612018565b6120156121a28484612060565b849063ffffffff611fd316565b3390565b303b1590565b600054610100900460ff16806121d257506121d26121b3565b806121e0575060005460ff16155b61221b5760405162461bcd60e51b815260040180806020018281038252602e81526020018061280b602e913960400191505060405180910390fd5b600054610100900460ff16158015612246576000805460ff1961ff0019909116610100171660011790555b61224e6124fa565b61225661259a565b8015610dc5576000805461ff001916905550565b600054610100900460ff168061228357506122836121b3565b80612291575060005460ff16155b6122cc5760405162461bcd60e51b815260040180806020018281038252602e81526020018061280b602e913960400191505060405180910390fd5b600054610100900460ff161580156122f7576000805460ff1961ff0019909116610100171660011790555b6122ff6124fa565b612256612693565b600054610100900460ff168061232057506123206121b3565b8061232e575060005460ff16155b6123695760405162461bcd60e51b815260040180806020018281038252602e81526020018061280b602e913960400191505060405180910390fd5b600054610100900460ff16158015612394576000805460ff1961ff0019909116610100171660011790555b61225661273e565b6000818484111561242b5760405162461bcd60e51b81526004018080602001828103825283818151815260200191508051906020019080838360005b838110156123f05781810151838201526020016123d8565b50505050905090810190601f16801561241d5780820380516001836020036101000a031916815260200191505b509250505060405180910390fd5b505050900390565b600081836124825760405162461bcd60e51b81526020600482018181528351602484015283519092839260449091019190850190808383600083156123f05781810151838201526020016123d8565b5082848161248c57fe5b06949350505050565b600081836124e45760405162461bcd60e51b81526020600482018181528351602484015283519092839260449091019190850190808383600083156123f05781810151838201526020016123d8565b5060008385816124f057fe5b0495945050505050565b600054610100900460ff168061251357506125136121b3565b80612521575060005460ff16155b61255c5760405162461bcd60e51b815260040180806020018281038252602e81526020018061280b602e913960400191505060405180910390fd5b600054610100900460ff16158015612256576000805460ff1961ff0019909116610100171660011790558015610dc5576000805461ff001916905550565b600054610100900460ff16806125b357506125b36121b3565b806125c1575060005460ff16155b6125fc5760405162461bcd60e51b815260040180806020018281038252602e81526020018061280b602e913960400191505060405180910390fd5b600054610100900460ff16158015612627576000805460ff1961ff0019909116610100171660011790555b60006126316121af565b603380546001600160a01b0319166001600160a01b038316908117909155604051919250906000907f8be0079c531659141344cd1fd0a4f28419497f9722a3daafe3b4186f6b6457e0908290a3508015610dc5576000805461ff001916905550565b600054610100900460ff16806126ac57506126ac6121b3565b806126ba575060005460ff16155b6126f55760405162461bcd60e51b815260040180806020018281038252602e81526020018061280b602e913960400191505060405180910390fd5b600054610100900460ff16158015612720576000805460ff1961ff0019909116610100171660011790555b6097805460ff191690558015610dc5576000805461ff001916905550565b600054610100900460ff168061275757506127576121b3565b80612765575060005460ff16155b6127a05760405162461bcd60e51b815260040180806020018281038252602e81526020018061280b602e913960400191505060405180910390fd5b600054610100900460ff161580156127cb576000805460ff1961ff0019909116610100171660011790555b60016065558015610dc5576000805461ff00191690555056fe4f776e61626c653a206e6577206f776e657220697320746865207a65726f2061646472657373496e697469616c697a61626c653a20636f6e747261637420697320616c726561647920696e697469616c697a656443616e6e6f7420636c61696d20756e74696c206166746572206669727374206379636c6520656e64732e536166654d6174683a206d756c7469706c69636174696f6e206f766572666c6f77416d6f756e74206d75737420686176652076616c7565206f66206174206c6561737420302e30303120784554485472616e736665722078457468206c6964506f6f6c4d616e61676572206661696c65645472616e7366657220746f6b656e20746f206c6964506f6f6c4d616e61676572206661696c6564a264697066735822122008fb3be3ab11e53a1749019c683a5de72846e7309d88e79d5b01ea23fc0a71b064736f6c63430006060033",
  "linkReferences": {},
  "deployedLinkReferences": {}
}