{
  "_format": "hh-sol-artifact-1",
  "contractName": "LiftoffInsurance",
  "sourceName": "contracts/LiftoffInsurance.sol",
  "abi": [
    {
      "anonymous": false,
      "inputs": [
        {
          "indexed": true,
          "internalType": "address",
          "name": "previousOwner",
          "type": "address"
        },
        {
          "indexed": true,
          "internalType": "address",
          "name": "newOwner",
          "type": "address"
        }
      ],
      "name": "OwnershipTransferred",
      "type": "event"
    },
    {
      "anonymous": false,
      "inputs": [
        {
          "indexed": false,
          "internalType": "address",
          "name": "account",
          "type": "address"
        }
      ],
      "name": "Paused",
      "type": "event"
    },
    {
      "anonymous": false,
      "inputs": [
        {
          "indexed": false,
          "internalType": "address",
          "name": "account",
          "type": "address"
        }
      ],
      "name": "Unpaused",
      "type": "event"
    },
    {
      "inputs": [
        {
          "internalType": "uint256",
          "name": "_tokenSaleId",
          "type": "uint256"
        }
      ],
      "name": "claim",
      "outputs": [],
      "stateMutability": "nonpayable",
      "type": "function"
    },
    {
      "inputs": [
        {
          "internalType": "uint256",
          "name": "_tokenSaleId",
          "type": "uint256"
        }
      ],
      "name": "createInsurance",
      "outputs": [],
      "stateMutability": "nonpayable",
      "type": "function"
    },
    {
      "inputs": [
        {
          "internalType": "contract ILiftoffSettings",
          "name": "_liftoffSettings",
          "type": "address"
        }
      ],
      "name": "initialize",
      "outputs": [],
      "stateMutability": "nonpayable",
      "type": "function"
    },
    {
      "inputs": [
        {
          "internalType": "uint256",
          "name": "",
          "type": "uint256"
        }
      ],
      "name": "insuranceIsInitialized",
      "outputs": [
        {
          "internalType": "bool",
          "name": "",
          "type": "bool"
        }
      ],
      "stateMutability": "view",
      "type": "function"
    },
    {
      "inputs": [],
      "name": "liftoffSettings",
      "outputs": [
        {
          "internalType": "contract ILiftoffSettings",
          "name": "",
          "type": "address"
        }
      ],
      "stateMutability": "view",
      "type": "function"
    },
    {
      "inputs": [],
      "name": "owner",
      "outputs": [
        {
          "internalType": "address",
          "name": "",
          "type": "address"
        }
      ],
      "stateMutability": "view",
      "type": "function"
    },
    {
      "inputs": [],
      "name": "paused",
      "outputs": [
        {
          "internalType": "bool",
          "name": "",
          "type": "bool"
        }
      ],
      "stateMutability": "view",
      "type": "function"
    },
    {
      "inputs": [
        {
          "internalType": "uint256",
          "name": "_tokenSaleId",
          "type": "uint256"
        },
        {
          "internalType": "uint256",
          "name": "_amount",
          "type": "uint256"
        }
      ],
      "name": "redeem",
      "outputs": [],
      "stateMutability": "nonpayable",
      "type": "function"
    },
    {
      "inputs": [
        {
          "internalType": "uint256",
          "name": "_tokenSaleId",
          "type": "uint256"
        }
      ],
      "name": "register",
      "outputs": [],
      "stateMutability": "nonpayable",
      "type": "function"
    },
    {
      "inputs": [],
      "name": "renounceOwnership",
      "outputs": [],
      "stateMutability": "nonpayable",
      "type": "function"
    },
    {
      "inputs": [
        {
          "internalType": "contract ILiftoffSettings",
          "name": "_liftoffSettings",
          "type": "address"
        }
      ],
      "name": "setLiftoffSettings",
      "outputs": [],
      "stateMutability": "nonpayable",
      "type": "function"
    },
    {
      "inputs": [
        {
          "internalType": "uint256",
          "name": "",
          "type": "uint256"
        }
      ],
      "name": "tokenInsurances",
      "outputs": [
        {
          "internalType": "uint256",
          "name": "startTime",
          "type": "uint256"
        },
        {
          "internalType": "uint256",
          "name": "totalIgnited",
          "type": "uint256"
        },
        {
          "internalType": "uint256",
          "name": "tokensPerEthWad",
          "type": "uint256"
        },
        {
          "internalType": "uint256",
          "name": "baseXEth",
          "type": "uint256"
        },
        {
          "internalType": "uint256",
          "name": "baseTokenLidPool",
          "type": "uint256"
        },
        {
          "internalType": "uint256",
          "name": "redeemedXEth",
          "type": "uint256"
        },
        {
          "internalType": "uint256",
          "name": "claimedXEth",
          "type": "uint256"
        },
        {
          "internalType": "uint256",
          "name": "claimedTokenLidPool",
          "type": "uint256"
        },
        {
          "internalType": "address",
          "name": "deployed",
          "type": "address"
        },
        {
          "internalType": "address",
          "name": "projectDev",
          "type": "address"
        },
        {
          "internalType": "bool",
          "name": "isUnwound",
          "type": "bool"
        },
        {
          "internalType": "bool",
          "name": "hasBaseFeeClaimed",
          "type": "bool"
        }
      ],
      "stateMutability": "view",
      "type": "function"
    },
    {
      "inputs": [
        {
          "internalType": "uint256",
          "name": "",
          "type": "uint256"
        }
      ],
      "name": "tokenIsRegistered",
      "outputs": [
        {
          "internalType": "bool",
          "name": "",
          "type": "bool"
        }
      ],
      "stateMutability": "view",
      "type": "function"
    },
    {
      "inputs": [
        {
          "internalType": "address",
          "name": "newOwner",
          "type": "address"
        }
      ],
      "name": "transferOwnership",
      "outputs": [],
      "stateMutability": "nonpayable",
      "type": "function"
    }
  ],
  "bytecode": "0x608060405234801561001057600080fd5b506128be806100206000396000f3fe608060405234801561001057600080fd5b50600436106100ea5760003560e01c80638da5cb5b1161008c578063c4d66de811610066578063c4d66de81461026d578063ce88d40714610293578063f207564e146102b0578063f2fde38b146102cd576100ea565b80638da5cb5b146101b3578063aa05ebce146101bb578063ab9c2d13146101e1576100ea565b80636ecec0d9116100c85780636ecec0d914610147578063715018a6146101645780637cbc23731461016c5780638d70baf01461018f576100ea565b8063379607f5146100ef5780634f00513e1461010e5780635c975abb1461012b575b600080fd5b61010c6004803603602081101561010557600080fd5b50356102f3565b005b61010c6004803603602081101561012457600080fd5b5035610d56565b61013361127d565b604080519115158252519081900360200190f35b6101336004803603602081101561015d57600080fd5b5035611286565b61010c61129b565b61010c6004803603604081101561018257600080fd5b508035906020013561134f565b610197611b61565b604080516001600160a01b039092168252519081900360200190f35b610197611b70565b61010c600480360360208110156101d157600080fd5b50356001600160a01b0316611b7f565b6101fe600480360360208110156101f757600080fd5b5035611c0b565b604080519c8d5260208d019b909b528b8b019990995260608b019790975260808a019590955260a089019390935260c088019190915260e08701526001600160a01b03908116610100870152166101208501521515610140840152151561016083015251908190036101800190f35b61010c6004803603602081101561028357600080fd5b50356001600160a01b0316611c7f565b610133600480360360208110156102a957600080fd5b5035611d55565b61010c600480360360208110156102c657600080fd5b5035611d6a565b61010c600480360360208110156102e357600080fd5b50356001600160a01b0316611e56565b600081815260ca6020908152604080832060cc9092529091205460ff1661035d576040805162461bcd60e51b8152602060048201526019602482015278125b9cdd5c985b98d9481b9bdd081a5b9a5d1a585b1a5e9959603a1b604482015290519081900360640190fd5b6009810154600160a01b900460ff16156103be576040805162461bcd60e51b815260206004820152601b60248201527f546f6b656e20696e737572616e636520697320756e776f756e642e0000000000604482015290519081900360640190fd5b60006103ea62093a806103de846000015442611f6190919063ffffffff16565b9063ffffffff611fac16565b9050600060c960009054906101000a90046001600160a01b03166001600160a01b031663db1c9fc66040518163ffffffff1660e01b815260040160206040518083038186803b15801561043c57600080fd5b505afa158015610450573d6000803e3d6000fd5b505050506040513d602081101561046657600080fd5b50516001840154600985015491925090600160a81b900460ff1661067757600061051060c960009054906101000a90046001600160a01b03166001600160a01b0316631b019bb36040518163ffffffff1660e01b815260040160206040518083038186803b1580156104d757600080fd5b505afa1580156104eb573d6000803e3d6000fd5b505050506040513d602081101561050157600080fd5b5051839063ffffffff611fee16565b9050826001600160a01b031663a9059cbb60c960009054906101000a90046001600160a01b03166001600160a01b031663ff975e236040518163ffffffff1660e01b815260040160206040518083038186803b15801561056f57600080fd5b505afa158015610583573d6000803e3d6000fd5b505050506040513d602081101561059957600080fd5b5051604080516001600160e01b031960e085901b1681526001600160a01b039092166004830152602482018590525160448083019260209291908290030181600087803b1580156105e957600080fd5b505af11580156105fd573d6000803e3d6000fd5b505050506040513d602081101561061357600080fd5b5051610658576040805162461bcd60e51b815260206004820152600f60248201526e151c985b9cd9995c8819985a5b1959608a1b604482015290519081900360640190fd5b5050506009909101805460ff60a81b1916600160a81b17905550610d53565b600083116106b65760405162461bcd60e51b815260040180806020018281038252602a8152602001806127c7602a913960400191505060405180910390fd5b60006106cf856005015483611f6190919063ffffffff16565b905060006106f4600a6106e8848863ffffffff61201316565b9063ffffffff61206c16565b9050818111156107015750805b600061071a876006015483611f6190919063ffffffff16565b6006880154909150610732908263ffffffff6120ae16565b6006880155600987015460c95460408051630f801eb160e31b815290516001600160a01b03808a169463a9059cbb94908216936107cc939190921691637c00f588916004808301926020929190829003018186803b15801561079357600080fd5b505afa1580156107a7573d6000803e3d6000fd5b505050506040513d60208110156107bd57600080fd5b5051859063ffffffff611fee16565b6040518363ffffffff1660e01b815260040180836001600160a01b03166001600160a01b0316815260200182815260200192505050602060405180830381600087803b15801561081b57600080fd5b505af115801561082f573d6000803e3d6000fd5b505050506040513d602081101561084557600080fd5b5051610898576040805162461bcd60e51b815260206004820152601f60248201527f5472616e7366657220784574682070726f6a656374446576206661696c656400604482015290519081900360640190fd5b846001600160a01b031663a9059cbb60c960009054906101000a90046001600160a01b03166001600160a01b031663ff975e236040518163ffffffff1660e01b815260040160206040518083038186803b1580156108f557600080fd5b505afa158015610909573d6000803e3d6000fd5b505050506040513d602081101561091f57600080fd5b505160c95460408051635e047ae960e11b81529051610967926001600160a01b03169163bc08f5d2916004808301926020929190829003018186803b15801561079357600080fd5b6040518363ffffffff1660e01b815260040180836001600160a01b03166001600160a01b0316815260200182815260200192505050602060405180830381600087803b1580156109b657600080fd5b505af11580156109ca573d6000803e3d6000fd5b505050506040513d60208110156109e057600080fd5b5051610a33576040805162461bcd60e51b815260206004820181905260248201527f5472616e736665722078457468206c69645472656173757279206661696c6564604482015290519081900360640190fd5b846001600160a01b031663a9059cbb60c960009054906101000a90046001600160a01b03166001600160a01b0316635308f9016040518163ffffffff1660e01b815260040160206040518083038186803b158015610a9057600080fd5b505afa158015610aa4573d6000803e3d6000fd5b505050506040513d6020811015610aba57600080fd5b505160c954604080516257581b60e61b81529051610b01926001600160a01b0316916315d606c0916004808301926020929190829003018186803b15801561079357600080fd5b6040518363ffffffff1660e01b815260040180836001600160a01b03166001600160a01b0316815260200182815260200192505050602060405180830381600087803b158015610b5057600080fd5b505af1158015610b64573d6000803e3d6000fd5b505050506040513d6020811015610b7a57600080fd5b5051610bb75760405162461bcd60e51b815260040180806020018281038252602381526020018061283f6023913960400191505060405180910390fd5b60048701546000610bd3600a6106e8848b63ffffffff61201316565b905081811115610be05750805b6000610bf98a6007015483611f6190919063ffffffff16565b60078b0154909150610c11908263ffffffff6120ae16565b60078b015560088a015460c95460408051635308f90160e01b815290516001600160a01b039384169363a9059cbb931691635308f901916004808301926020929190829003018186803b158015610c6757600080fd5b505afa158015610c7b573d6000803e3d6000fd5b505050506040513d6020811015610c9157600080fd5b5051604080516001600160e01b031960e085901b1681526001600160a01b039092166004830152602482018590525160448083019260209291908290030181600087803b158015610ce157600080fd5b505af1158015610cf5573d6000803e3d6000fd5b505050506040513d6020811015610d0b57600080fd5b5051610d485760405162461bcd60e51b81526004018080602001828103825260278152602001806128626027913960400191505060405180910390fd5b505050505050505050505b50565b600081815260cc602052604090205460ff1615610dba576040805162461bcd60e51b815260206004820152601d60248201527f496e737572616e636520616c726561647920696e697469616c697a6564000000604482015290519081900360640190fd5b600081815260cb602052604090205460ff16610e1d576040805162461bcd60e51b815260206004820152601960248201527f546f6b656e206e6f742079657420726567697374657265642e00000000000000604482015290519081900360640190fd5b60008060008060c960009054906101000a90046001600160a01b03166001600160a01b0316636c5ccfb06040518163ffffffff1660e01b815260040160206040518083038186803b158015610e7157600080fd5b505afa158015610e85573d6000803e3d6000fd5b505050506040513d6020811015610e9b57600080fd5b5051604080516362cd645360e01b81526004810188905290516001600160a01b03909216916362cd645391602480820192608092909190829003018186803b158015610ee657600080fd5b505afa158015610efa573d6000803e3d6000fd5b505050506040513d6080811015610f1057600080fd5b508051602082015160408301516060909301519196509450909250905083610f4c6103e86106e886670de0b6b3a764000063ffffffff61201316565b11610f9e576040805162461bcd60e51b815260206004820152601b60248201527f4d7573742068617665206174206c656173742033206469676974730000000000604482015290519081900360640190fd5b60405180610180016040528042815260200185815260200161105b866106e860c960009054906101000a90046001600160a01b03166001600160a01b0316631b019bb36040518163ffffffff1660e01b815260040160206040518083038186803b15801561100b57600080fd5b505afa15801561101f573d6000803e3d6000fd5b505050506040513d602081101561103557600080fd5b505161104f89670de0b6b3a764000063ffffffff61201316565b9063ffffffff61210816565b81526020016110fa6110ed60c960009054906101000a90046001600160a01b03166001600160a01b03166385dc58066040518163ffffffff1660e01b815260040160206040518083038186803b1580156110b457600080fd5b505afa1580156110c8573d6000803e3d6000fd5b505050506040513d60208110156110de57600080fd5b5051889063ffffffff611fee16565b879063ffffffff611f6116565b8152604080516370a0823160e01b815230600482015290516020928301926001600160a01b038616926370a082319260248083019392829003018186803b15801561114457600080fd5b505afa158015611158573d6000803e3d6000fd5b505050506040513d602081101561116e57600080fd5b5051815260006020828101829052604080840183905260608085018490526001600160a01b0396871660808087019190915297871660a08087019190915260c080870186905260e09687018690529b855260ca84529382902086518155928601516001840155908501516002830155840151600382015594830151600486015582015160058501559581015160068401559485015160078301556101008501516008830180549183166001600160a01b031992831617905561012086015160099093018054610140880151610160909801511515600160a81b0260ff60a81b19981515600160a01b0260ff60a01b19969095169190931617939093169190911794909416939093179092555050565b60975460ff1690565b60cc6020526000908152604090205460ff1681565b6112a361213d565b6033546001600160a01b03908116911614611305576040805162461bcd60e51b815260206004820181905260248201527f4f776e61626c653a2063616c6c6572206973206e6f7420746865206f776e6572604482015290519081900360640190fd5b6033546040516000916001600160a01b0316907f8be0079c531659141344cd1fd0a4f28419497f9722a3daafe3b4186f6b6457e0908390a3603380546001600160a01b0319169055565b600082815260ca6020908152604080832060cc9092529091205460ff166113b9576040805162461bcd60e51b8152602060048201526019602482015278125b9cdd5c985b98d9481b9bdd081a5b9a5d1a585b1a5e9959603a1b604482015290519081900360640190fd5b600881015460c95460408051636d8e4fe360e11b815290516001600160a01b0393841693600093169163db1c9fc6916004808301926020929190829003018186803b15801561140757600080fd5b505afa15801561141b573d6000803e3d6000fd5b505050506040513d602081101561143157600080fd5b5051604080516370a0823160e01b815230600482015290519192506000916001600160a01b038516916370a08231916024808301926020929190829003018186803b15801561147f57600080fd5b505afa158015611493573d6000803e3d6000fd5b505050506040513d60208110156114a957600080fd5b5051604080516323b872dd60e01b81523360048201523060248201526044810188905290519192506001600160a01b038516916323b872dd916064808201926020929091908290030181600087803b15801561150457600080fd5b505af1158015611518573d6000803e3d6000fd5b505050506040513d602081101561152e57600080fd5b5051611573576040805162461bcd60e51b815260206004820152600f60248201526e151c985b9cd9995c8819985a5b1959608a1b604482015290519081900360640190fd5b600061160782856001600160a01b03166370a08231306040518263ffffffff1660e01b815260040180826001600160a01b03166001600160a01b0316815260200191505060206040518083038186803b1580156115cf57600080fd5b505afa1580156115e3573d6000803e3d6000fd5b505050506040513d60208110156115f957600080fd5b50519063ffffffff611f6116565b9050600061162e86600201546106e8670de0b6b3a76400008561201390919063ffffffff16565b905066038d7ea4c680008110156116765760405162461bcd60e51b815260040180806020018281038252602d815260200180612812602d913960400191505060405180910390fd5b604080516002808252606080830184529260208301908036833701905050905085816000815181106116a457fe5b60200260200101906001600160a01b031690816001600160a01b03168152505084816001815181106116d257fe5b6001600160a01b0392831660209182029290920181019190915260c9546040805163817c620d60e01b8152905161176294929092169263817c620d92600480840193829003018186803b15801561172857600080fd5b505afa15801561173c573d6000803e3d6000fd5b505050506040513d602081101561175257600080fd5b505188549063ffffffff6120ae16565b4211801561178757506005870154611780908363ffffffff6120ae16565b8760030154105b6117ce576040805162461bcd60e51b8152602060048201526013602482015272125b9cdd5c985b98d948195e1a185d5cdd1959606a1b604482015290519081900360640190fd5b60c9546040805163817c620d60e01b81529051611814926001600160a01b03169163817c620d916004808301926020929190829003018186803b15801561172857600080fd5b421115801561183a57506005870154611833908363ffffffff6120ae16565b8760030154105b156118555760098701805460ff60a01b1916600160a01b1790555b6009870154600160a01b900460ff1615611ace5760c960009054906101000a90046001600160a01b03166001600160a01b031663524900b56040518163ffffffff1660e01b815260040160206040518083038186803b1580156118b757600080fd5b505afa1580156118cb573d6000803e3d6000fd5b505050506040513d60208110156118e157600080fd5b5051604080516370a0823160e01b815230600482015290516001600160a01b03928316926338ed173992908a16916370a0823191602480820192602092909190829003018186803b15801561193557600080fd5b505afa158015611949573d6000803e3d6000fd5b505050506040513d602081101561195f57600080fd5b50516040516001600160e01b031960e084901b168152600481018281526000602483018190523060648401819052426084850181905260a060448601908152895160a4870152895193958a95939492939260c490910190602087810191028083838b5b838110156119da5781810151838201526020016119c2565b505050509050019650505050505050600060405180830381600087803b158015611a0357600080fd5b505af1158015611a17573d6000803e3d6000fd5b505050506040513d6000823e601f3d908101601f191682016040526020811015611a4057600080fd5b8101908080516040519392919084640100000000821115611a6057600080fd5b908301906020820185811115611a7557600080fd5b8251866020820283011164010000000082111715611a9257600080fd5b82525081516020918201928201910280838360005b83811015611abf578181015183820152602001611aa7565b50505050905001604052505050505b6005870154611ae3908363ffffffff6120ae16565b60058801556040805163a9059cbb60e01b81523360048201526024810184905290516001600160a01b0387169163a9059cbb9160448083019260209291908290030181600087803b158015611b3757600080fd5b505af1158015611b4b573d6000803e3d6000fd5b505050506040513d6020811015610d4857600080fd5b60c9546001600160a01b031681565b6033546001600160a01b031690565b611b8761213d565b6033546001600160a01b03908116911614611be9576040805162461bcd60e51b815260206004820181905260248201527f4f776e61626c653a2063616c6c6572206973206e6f7420746865206f776e6572604482015290519081900360640190fd5b60c980546001600160a01b0319166001600160a01b0392909216919091179055565b60ca602052600090815260409020805460018201546002830154600384015460048501546005860154600687015460078801546008890154600990990154979896979596949593949293919290916001600160a01b039182169181169060ff600160a01b8204811691600160a81b9004168c565b600054610100900460ff1680611c985750611c98612141565b80611ca6575060005460ff16155b611ce15760405162461bcd60e51b815260040180806020018281038252602e815260200180612799602e913960400191505060405180910390fd5b600054610100900460ff16158015611d0c576000805460ff1961ff0019909116610100171660011790555b611d14612147565b611d1c6121f8565b611d24612295565b60c980546001600160a01b0319166001600160a01b0384161790558015611d51576000805461ff00191690555b5050565b60cb6020526000908152604090205460ff1681565b60c954604080516306c5ccfb60e41b815290516000926001600160a01b031691636c5ccfb0916004808301926020929190829003018186803b158015611daf57600080fd5b505afa158015611dc3573d6000803e3d6000fd5b505050506040513d6020811015611dd957600080fd5b50519050336001600160a01b03821614611e3a576040805162461bcd60e51b815260206004820152601d60248201527f53656e646572206d757374206265204c6966746f666620456e67696e65000000604482015290519081900360640190fd5b50600090815260cb60205260409020805460ff19166001179055565b611e5e61213d565b6033546001600160a01b03908116911614611ec0576040805162461bcd60e51b815260206004820181905260248201527f4f776e61626c653a2063616c6c6572206973206e6f7420746865206f776e6572604482015290519081900360640190fd5b6001600160a01b038116611f055760405162461bcd60e51b81526004018080602001828103825260268152602001806127736026913960400191505060405180910390fd5b6033546040516001600160a01b038084169216907f8be0079c531659141344cd1fd0a4f28419497f9722a3daafe3b4186f6b6457e090600090a3603380546001600160a01b0319166001600160a01b0392909216919091179055565b6000611fa383836040518060400160405280601e81526020017f536166654d6174683a207375627472616374696f6e206f766572666c6f77000081525061232a565b90505b92915050565b6000611fa383836040518060400160405280601881526020017f536166654d6174683a206d6f64756c6f206279207a65726f00000000000000008152506123c1565b600082611ffd57506000611fa6565b611fa36127106106e8858563ffffffff61201316565b60008261202257506000611fa6565b8282028284828161202f57fe5b0414611fa35760405162461bcd60e51b81526004018080602001828103825260218152602001806127f16021913960400191505060405180910390fd5b6000611fa383836040518060400160405280601a81526020017f536166654d6174683a206469766973696f6e206279207a65726f000000000000815250612423565b600082820183811015611fa3576040805162461bcd60e51b815260206004820152601b60248201527f536166654d6174683a206164646974696f6e206f766572666c6f770000000000604482015290519081900360640190fd5b60008261211757506000611fa6565b81612123575081611fa6565b611fa36121308484611fee565b849063ffffffff611f6116565b3390565b303b1590565b600054610100900460ff16806121605750612160612141565b8061216e575060005460ff16155b6121a95760405162461bcd60e51b815260040180806020018281038252602e815260200180612799602e913960400191505060405180910390fd5b600054610100900460ff161580156121d4576000805460ff1961ff0019909116610100171660011790555b6121dc612488565b6121e4612528565b8015610d53576000805461ff001916905550565b600054610100900460ff16806122115750612211612141565b8061221f575060005460ff16155b61225a5760405162461bcd60e51b815260040180806020018281038252602e815260200180612799602e913960400191505060405180910390fd5b600054610100900460ff16158015612285576000805460ff1961ff0019909116610100171660011790555b61228d612488565b6121e4612621565b600054610100900460ff16806122ae57506122ae612141565b806122bc575060005460ff16155b6122f75760405162461bcd60e51b815260040180806020018281038252602e815260200180612799602e913960400191505060405180910390fd5b600054610100900460ff16158015612322576000805460ff1961ff0019909116610100171660011790555b6121e46126cc565b600081848411156123b95760405162461bcd60e51b81526004018080602001828103825283818151815260200191508051906020019080838360005b8381101561237e578181015183820152602001612366565b50505050905090810190601f1680156123ab5780820380516001836020036101000a031916815260200191505b509250505060405180910390fd5b505050900390565b600081836124105760405162461bcd60e51b815260206004820181815283516024840152835190928392604490910191908501908083836000831561237e578181015183820152602001612366565b5082848161241a57fe5b06949350505050565b600081836124725760405162461bcd60e51b815260206004820181815283516024840152835190928392604490910191908501908083836000831561237e578181015183820152602001612366565b50600083858161247e57fe5b0495945050505050565b600054610100900460ff16806124a157506124a1612141565b806124af575060005460ff16155b6124ea5760405162461bcd60e51b815260040180806020018281038252602e815260200180612799602e913960400191505060405180910390fd5b600054610100900460ff161580156121e4576000805460ff1961ff0019909116610100171660011790558015610d53576000805461ff001916905550565b600054610100900460ff16806125415750612541612141565b8061254f575060005460ff16155b61258a5760405162461bcd60e51b815260040180806020018281038252602e815260200180612799602e913960400191505060405180910390fd5b600054610100900460ff161580156125b5576000805460ff1961ff0019909116610100171660011790555b60006125bf61213d565b603380546001600160a01b0319166001600160a01b038316908117909155604051919250906000907f8be0079c531659141344cd1fd0a4f28419497f9722a3daafe3b4186f6b6457e0908290a3508015610d53576000805461ff001916905550565b600054610100900460ff168061263a575061263a612141565b80612648575060005460ff16155b6126835760405162461bcd60e51b815260040180806020018281038252602e815260200180612799602e913960400191505060405180910390fd5b600054610100900460ff161580156126ae576000805460ff1961ff0019909116610100171660011790555b6097805460ff191690558015610d53576000805461ff001916905550565b600054610100900460ff16806126e557506126e5612141565b806126f3575060005460ff16155b61272e5760405162461bcd60e51b815260040180806020018281038252602e815260200180612799602e913960400191505060405180910390fd5b600054610100900460ff16158015612759576000805460ff1961ff0019909116610100171660011790555b60016065558015610d53576000805461ff00191690555056fe4f776e61626c653a206e6577206f776e657220697320746865207a65726f2061646472657373496e697469616c697a61626c653a20636f6e747261637420697320616c726561647920696e697469616c697a656443616e6e6f7420636c61696d20756e74696c206166746572206669727374206379636c6520656e64732e536166654d6174683a206d756c7469706c69636174696f6e206f766572666c6f77416d6f756e74206d75737420686176652076616c7565206f66206174206c6561737420302e30303120784554485472616e736665722078457468206c6964506f6f6c4d616e61676572206661696c65645472616e7366657220746f6b656e20746f206c6964506f6f6c4d616e61676572206661696c6564a26469706673582212202af40aba385eb152838c10f882bd694d7b98925d109a14c43af17036f1b3285d64736f6c63430006060033",
  "linkReferences": {},
  "deployedLinkReferences": {}
}