{
  "contracts/LiftoffSettings.sol": {
    "LiftoffSettings": {
      "abi": [
        {
          "anonymous": false,
          "inputs": [
            {
              "indexed": true,
              "internalType": "address",
              "name": "previousOwner",
              "type": "address"
            },
            {
              "indexed": true,
              "internalType": "address",
              "name": "newOwner",
              "type": "address"
            }
          ],
          "name": "OwnershipTransferred",
          "type": "event"
        },
        {
          "inputs": [],
          "name": "getBaseFeeBP",
          "outputs": [
            {
              "internalType": "uint256",
              "name": "",
              "type": "uint256"
            }
          ],
          "stateMutability": "view",
          "type": "function"
        },
        {
          "inputs": [],
          "name": "getEthBuyBP",
          "outputs": [
            {
              "internalType": "uint256",
              "name": "",
              "type": "uint256"
            }
          ],
          "stateMutability": "view",
          "type": "function"
        },
        {
          "inputs": [],
          "name": "getEthXLockBP",
          "outputs": [
            {
              "internalType": "uint256",
              "name": "",
              "type": "uint256"
            }
          ],
          "stateMutability": "view",
          "type": "function"
        },
        {
          "inputs": [],
          "name": "getIgnitePeriod",
          "outputs": [
            {
              "internalType": "uint256",
              "name": "",
              "type": "uint256"
            }
          ],
          "stateMutability": "view",
          "type": "function"
        },
        {
          "inputs": [],
          "name": "getInsurancePeriod",
          "outputs": [
            {
              "internalType": "uint256",
              "name": "",
              "type": "uint256"
            }
          ],
          "stateMutability": "view",
          "type": "function"
        },
        {
          "inputs": [],
          "name": "getLidPoolBP",
          "outputs": [
            {
              "internalType": "uint256",
              "name": "",
              "type": "uint256"
            }
          ],
          "stateMutability": "view",
          "type": "function"
        },
        {
          "inputs": [],
          "name": "getLidPoolManager",
          "outputs": [
            {
              "internalType": "address",
              "name": "",
              "type": "address"
            }
          ],
          "stateMutability": "view",
          "type": "function"
        },
        {
          "inputs": [],
          "name": "getLidTreasury",
          "outputs": [
            {
              "internalType": "address",
              "name": "",
              "type": "address"
            }
          ],
          "stateMutability": "view",
          "type": "function"
        },
        {
          "inputs": [],
          "name": "getLiftoffEngine",
          "outputs": [
            {
              "internalType": "address",
              "name": "",
              "type": "address"
            }
          ],
          "stateMutability": "view",
          "type": "function"
        },
        {
          "inputs": [],
          "name": "getLiftoffInsurance",
          "outputs": [
            {
              "internalType": "address",
              "name": "",
              "type": "address"
            }
          ],
          "stateMutability": "view",
          "type": "function"
        },
        {
          "inputs": [],
          "name": "getLiftoffLauncher",
          "outputs": [
            {
              "internalType": "address",
              "name": "",
              "type": "address"
            }
          ],
          "stateMutability": "view",
          "type": "function"
        },
        {
          "inputs": [],
          "name": "getMainFeeBP",
          "outputs": [
            {
              "internalType": "uint256",
              "name": "",
              "type": "uint256"
            }
          ],
          "stateMutability": "view",
          "type": "function"
        },
        {
          "inputs": [],
          "name": "getProjectDevBP",
          "outputs": [
            {
              "internalType": "uint256",
              "name": "",
              "type": "uint256"
            }
          ],
          "stateMutability": "view",
          "type": "function"
        },
        {
          "inputs": [],
          "name": "getTokenUserBP",
          "outputs": [
            {
              "internalType": "uint256",
              "name": "",
              "type": "uint256"
            }
          ],
          "stateMutability": "view",
          "type": "function"
        },
        {
          "inputs": [],
          "name": "getUniswapRouter",
          "outputs": [
            {
              "internalType": "address",
              "name": "",
              "type": "address"
            }
          ],
          "stateMutability": "view",
          "type": "function"
        },
        {
          "inputs": [],
          "name": "getXEth",
          "outputs": [
            {
              "internalType": "address",
              "name": "",
              "type": "address"
            }
          ],
          "stateMutability": "view",
          "type": "function"
        },
        {
          "inputs": [],
          "name": "getXLocker",
          "outputs": [
            {
              "internalType": "address",
              "name": "",
              "type": "address"
            }
          ],
          "stateMutability": "view",
          "type": "function"
        },
        {
          "inputs": [
            {
              "internalType": "uint256",
              "name": "_ethXLockBP",
              "type": "uint256"
            },
            {
              "internalType": "uint256",
              "name": "_ethBuyBP",
              "type": "uint256"
            },
            {
              "internalType": "uint256",
              "name": "_tokenUserBP",
              "type": "uint256"
            }
          ],
          "name": "initialize",
          "outputs": [],
          "stateMutability": "nonpayable",
          "type": "function"
        },
        {
          "inputs": [],
          "name": "owner",
          "outputs": [
            {
              "internalType": "address",
              "name": "",
              "type": "address"
            }
          ],
          "stateMutability": "view",
          "type": "function"
        },
        {
          "inputs": [],
          "name": "renounceOwnership",
          "outputs": [],
          "stateMutability": "nonpayable",
          "type": "function"
        },
        {
          "inputs": [
            {
              "internalType": "uint256",
              "name": "_val",
              "type": "uint256"
            }
          ],
          "name": "setEthXLockBP",
          "outputs": [],
          "stateMutability": "nonpayable",
          "type": "function"
        },
        {
          "inputs": [
            {
              "internalType": "uint256",
              "name": "_val",
              "type": "uint256"
            }
          ],
          "name": "setIgnitePeriod",
          "outputs": [],
          "stateMutability": "nonpayable",
          "type": "function"
        },
        {
          "inputs": [
            {
              "internalType": "uint256",
              "name": "_val",
              "type": "uint256"
            }
          ],
          "name": "setInsurancePeriod",
          "outputs": [],
          "stateMutability": "nonpayable",
          "type": "function"
        },
        {
          "inputs": [
            {
              "internalType": "address",
              "name": "_val",
              "type": "address"
            }
          ],
          "name": "setLidPoolManager",
          "outputs": [],
          "stateMutability": "nonpayable",
          "type": "function"
        },
        {
          "inputs": [
            {
              "internalType": "address",
              "name": "_val",
              "type": "address"
            }
          ],
          "name": "setLidTreasury",
          "outputs": [],
          "stateMutability": "nonpayable",
          "type": "function"
        },
        {
          "inputs": [
            {
              "internalType": "address",
              "name": "_val",
              "type": "address"
            }
          ],
          "name": "setLiftoffEngine",
          "outputs": [],
          "stateMutability": "nonpayable",
          "type": "function"
        },
        {
          "inputs": [
            {
              "internalType": "address",
              "name": "_val",
              "type": "address"
            }
          ],
          "name": "setLiftoffInsurance",
          "outputs": [],
          "stateMutability": "nonpayable",
          "type": "function"
        },
        {
          "inputs": [
            {
              "internalType": "address",
              "name": "_val",
              "type": "address"
            }
          ],
          "name": "setLiftoffLauncher",
          "outputs": [],
          "stateMutability": "nonpayable",
          "type": "function"
        },
        {
          "inputs": [
            {
              "internalType": "uint256",
              "name": "_val",
              "type": "uint256"
            }
          ],
          "name": "setTokenUserBP",
          "outputs": [],
          "stateMutability": "nonpayable",
          "type": "function"
        },
        {
          "inputs": [
            {
              "internalType": "address",
              "name": "_val",
              "type": "address"
            }
          ],
          "name": "setUniswapRouter",
          "outputs": [],
          "stateMutability": "nonpayable",
          "type": "function"
        },
        {
          "inputs": [
            {
              "internalType": "address",
              "name": "_val",
              "type": "address"
            }
          ],
          "name": "setXEth",
          "outputs": [],
          "stateMutability": "nonpayable",
          "type": "function"
        },
        {
          "inputs": [
            {
              "internalType": "address",
              "name": "_val",
              "type": "address"
            }
          ],
          "name": "setXLocker",
          "outputs": [],
          "stateMutability": "nonpayable",
          "type": "function"
        },
        {
          "inputs": [
            {
              "internalType": "uint256",
              "name": "_baseFeeBP",
              "type": "uint256"
            },
            {
              "internalType": "uint256",
              "name": "_ethBuyBP",
              "type": "uint256"
            },
            {
              "internalType": "uint256",
              "name": "_projectDevBP",
              "type": "uint256"
            },
            {
              "internalType": "uint256",
              "name": "_mainFeeBP",
              "type": "uint256"
            },
            {
              "internalType": "uint256",
              "name": "_lidPoolBP",
              "type": "uint256"
            }
          ],
          "name": "setXethBP",
          "outputs": [],
          "stateMutability": "nonpayable",
          "type": "function"
        },
        {
          "inputs": [
            {
              "internalType": "address",
              "name": "newOwner",
              "type": "address"
            }
          ],
          "name": "transferOwnership",
          "outputs": [],
          "stateMutability": "nonpayable",
          "type": "function"
        }
      ],
      "evm": {
        "bytecode": {
          "linkReferences": {},
          "object": "608060405234801561001057600080fd5b506110c7806100206000396000f3fe608060405234801561001057600080fd5b50600436106102065760003560e01c80637f58b3401161011a578063bc08f5d2116100ad578063e629adff1161007c578063e629adff14610482578063ea77536c1461048a578063f2fde38b146104b0578063fb9fd054146104d6578063ff975e23146104f357610206565b8063bc08f5d214610426578063bea9849e1461042e578063d64e102214610454578063db1c9fc61461047a57610206565b80638da5cb5b116100e95780638da5cb5b146103c4578063ab72c832146103cc578063b1f49473146103e9578063bb45a335146103f157610206565b80637f58b3401461038357806380d859111461038b578063817c620d146103b457806385dc5806146103bc57610206565b806329cd941b1161019d5780636c5ccfb01161016c5780636c5ccfb01461033d578063715018a614610345578063785fbfe21461034d5780637bc51638146103555780637c00f5881461037b57610206565b806329cd941b146102ff578063422ceaf614610325578063524900b51461032d5780635308f9011461033557610206565b806313459358116101d9578063134593581461029357806315d606c0146102b75780631a29cf63146102d15780631b019bb3146102f757610206565b8063032edcb61461020b578063093d551c1461022a5780630ad7ef2e1461025057806310fe8e7114610276575b600080fd5b6102286004803603602081101561022157600080fd5b50356104fb565b005b6102286004803603602081101561024057600080fd5b50356001600160a01b0316610558565b6102286004803603602081101561026657600080fd5b50356001600160a01b03166105d2565b6102286004803603602081101561028c57600080fd5b503561064c565b61029b6106a9565b604080516001600160a01b039092168252519081900360200190f35b6102bf6106b8565b60408051918252519081900360200190f35b610228600480360360208110156102e757600080fd5b50356001600160a01b03166106be565b6102bf610738565b6102286004803603602081101561031557600080fd5b50356001600160a01b031661073e565b6102bf6107b8565b61029b6107be565b61029b6107cd565b61029b6107dc565b6102286107eb565b61029b61088d565b6102286004803603602081101561036b57600080fd5b50356001600160a01b031661089c565b6102bf610916565b61029b61091c565b610228600480360360608110156103a157600080fd5b508035906020810135906040013561092b565b6102bf6109e7565b6102bf6109ed565b61029b6109f3565b610228600480360360208110156103e257600080fd5b5035610a02565b6102bf610a5f565b610228600480360360a081101561040757600080fd5b5080359060208101359060408101359060608101359060800135610a65565b6102bf610ada565b6102286004803603602081101561044457600080fd5b50356001600160a01b0316610ae0565b6102286004803603602081101561046a57600080fd5b50356001600160a01b0316610b5a565b61029b610bd4565b6102bf610be3565b610228600480360360208110156104a057600080fd5b50356001600160a01b0316610be9565b610228600480360360208110156104c657600080fd5b50356001600160a01b0316610c63565b610228600480360360208110156104ec57600080fd5b5035610d5c565b61029b610db9565b610503610dc8565b6033546001600160a01b03908116911614610553576040805162461bcd60e51b81526020600482018190526024820152600080516020611072833981519152604482015290519081900360640190fd5b606555565b610560610dc8565b6033546001600160a01b039081169116146105b0576040805162461bcd60e51b81526020600482018190526024820152600080516020611072833981519152604482015290519081900360640190fd5b606f80546001600160a01b0319166001600160a01b0392909216919091179055565b6105da610dc8565b6033546001600160a01b0390811691161461062a576040805162461bcd60e51b81526020600482018190526024820152600080516020611072833981519152604482015290519081900360640190fd5b606e80546001600160a01b0319166001600160a01b0392909216919091179055565b610654610dc8565b6033546001600160a01b039081169116146106a4576040805162461bcd60e51b81526020600482018190526024820152600080516020611072833981519152604482015290519081900360640190fd5b606855565b6072546001600160a01b031690565b606d5490565b6106c6610dc8565b6033546001600160a01b03908116911614610716576040805162461bcd60e51b81526020600482018190526024820152600080516020611072833981519152604482015290519081900360640190fd5b607480546001600160a01b0319166001600160a01b0392909216919091179055565b606a5490565b610746610dc8565b6033546001600160a01b03908116911614610796576040805162461bcd60e51b81526020600482018190526024820152600080516020611072833981519152604482015290519081900360640190fd5b607180546001600160a01b0319166001600160a01b0392909216919091179055565b60655490565b6073546001600160a01b031690565b6075546001600160a01b031690565b6070546001600160a01b031690565b6107f3610dc8565b6033546001600160a01b03908116911614610843576040805162461bcd60e51b81526020600482018190526024820152600080516020611072833981519152604482015290519081900360640190fd5b6033546040516000916001600160a01b0316907f8be0079c531659141344cd1fd0a4f28419497f9722a3daafe3b4186f6b6457e0908390a3603380546001600160a01b0319169055565b606f546001600160a01b031690565b6108a4610dc8565b6033546001600160a01b039081169116146108f4576040805162461bcd60e51b81526020600482018190526024820152600080516020611072833981519152604482015290519081900360640190fd5b607580546001600160a01b0319166001600160a01b0392909216919091179055565b606b5490565b606e546001600160a01b031690565b600054610100900460ff16806109445750610944610dcc565b80610952575060005460ff16155b61098d5760405162461bcd60e51b815260040180806020018281038252602e815260200180611044602e913960400191505060405180910390fd5b600054610100900460ff161580156109b8576000805460ff1961ff0019909116610100171660011790555b6109c0610dd2565b60658490556069839055606682905580156109e1576000805461ff00191690555b50505050565b60685490565b60695490565b6033546001600160a01b031690565b610a0a610dc8565b6033546001600160a01b03908116911614610a5a576040805162461bcd60e51b81526020600482018190526024820152600080516020611072833981519152604482015290519081900360640190fd5b606755565b60675490565b80828486880101010161271014610ac3576040805162461bcd60e51b815260206004820181905260248201527f4d75737420616c6c6f636174652031303025206f662065746820726169736564604482015290519081900360640190fd5b606a94909455606992909255606b55606c55606d55565b606c5490565b610ae8610dc8565b6033546001600160a01b03908116911614610b38576040805162461bcd60e51b81526020600482018190526024820152600080516020611072833981519152604482015290519081900360640190fd5b607380546001600160a01b0319166001600160a01b0392909216919091179055565b610b62610dc8565b6033546001600160a01b03908116911614610bb2576040805162461bcd60e51b81526020600482018190526024820152600080516020611072833981519152604482015290519081900360640190fd5b607080546001600160a01b0319166001600160a01b0392909216919091179055565b6071546001600160a01b031690565b60665490565b610bf1610dc8565b6033546001600160a01b03908116911614610c41576040805162461bcd60e51b81526020600482018190526024820152600080516020611072833981519152604482015290519081900360640190fd5b607280546001600160a01b0319166001600160a01b0392909216919091179055565b610c6b610dc8565b6033546001600160a01b03908116911614610cbb576040805162461bcd60e51b81526020600482018190526024820152600080516020611072833981519152604482015290519081900360640190fd5b6001600160a01b038116610d005760405162461bcd60e51b815260040180806020018281038252602681526020018061101e6026913960400191505060405180910390fd5b6033546040516001600160a01b038084169216907f8be0079c531659141344cd1fd0a4f28419497f9722a3daafe3b4186f6b6457e090600090a3603380546001600160a01b0319166001600160a01b0392909216919091179055565b610d64610dc8565b6033546001600160a01b03908116911614610db4576040805162461bcd60e51b81526020600482018190526024820152600080516020611072833981519152604482015290519081900360640190fd5b606655565b6074546001600160a01b031690565b3390565b303b1590565b600054610100900460ff1680610deb5750610deb610dcc565b80610df9575060005460ff16155b610e345760405162461bcd60e51b815260040180806020018281038252602e815260200180611044602e913960400191505060405180910390fd5b600054610100900460ff16158015610e5f576000805460ff1961ff0019909116610100171660011790555b610e67610e84565b610e6f610f24565b8015610e81576000805461ff00191690555b50565b600054610100900460ff1680610e9d5750610e9d610dcc565b80610eab575060005460ff16155b610ee65760405162461bcd60e51b815260040180806020018281038252602e815260200180611044602e913960400191505060405180910390fd5b600054610100900460ff16158015610e6f576000805460ff1961ff0019909116610100171660011790558015610e81576000805461ff001916905550565b600054610100900460ff1680610f3d5750610f3d610dcc565b80610f4b575060005460ff16155b610f865760405162461bcd60e51b815260040180806020018281038252602e815260200180611044602e913960400191505060405180910390fd5b600054610100900460ff16158015610fb1576000805460ff1961ff0019909116610100171660011790555b6000610fbb610dc8565b603380546001600160a01b0319166001600160a01b038316908117909155604051919250906000907f8be0079c531659141344cd1fd0a4f28419497f9722a3daafe3b4186f6b6457e0908290a3508015610e81576000805461ff00191690555056fe4f776e61626c653a206e6577206f776e657220697320746865207a65726f2061646472657373496e697469616c697a61626c653a20636f6e747261637420697320616c726561647920696e697469616c697a65644f776e61626c653a2063616c6c6572206973206e6f7420746865206f776e6572a264697066735822122040b9f45e9fbac00fa626b4c9c66323dac5b903e229b20fbfc96a94ffb5addddd64736f6c63430006060033",
          "opcodes": "PUSH1 0x80 PUSH1 0x40 MSTORE CALLVALUE DUP1 ISZERO PUSH2 0x10 JUMPI PUSH1 0x0 DUP1 REVERT JUMPDEST POP PUSH2 0x10C7 DUP1 PUSH2 0x20 PUSH1 0x0 CODECOPY PUSH1 0x0 RETURN INVALID PUSH1 0x80 PUSH1 0x40 MSTORE CALLVALUE DUP1 ISZERO PUSH2 0x10 JUMPI PUSH1 0x0 DUP1 REVERT JUMPDEST POP PUSH1 0x4 CALLDATASIZE LT PUSH2 0x206 JUMPI PUSH1 0x0 CALLDATALOAD PUSH1 0xE0 SHR DUP1 PUSH4 0x7F58B340 GT PUSH2 0x11A JUMPI DUP1 PUSH4 0xBC08F5D2 GT PUSH2 0xAD JUMPI DUP1 PUSH4 0xE629ADFF GT PUSH2 0x7C JUMPI DUP1 PUSH4 0xE629ADFF EQ PUSH2 0x482 JUMPI DUP1 PUSH4 0xEA77536C EQ PUSH2 0x48A JUMPI DUP1 PUSH4 0xF2FDE38B EQ PUSH2 0x4B0 JUMPI DUP1 PUSH4 0xFB9FD054 EQ PUSH2 0x4D6 JUMPI DUP1 PUSH4 0xFF975E23 EQ PUSH2 0x4F3 JUMPI PUSH2 0x206 JUMP JUMPDEST DUP1 PUSH4 0xBC08F5D2 EQ PUSH2 0x426 JUMPI DUP1 PUSH4 0xBEA9849E EQ PUSH2 0x42E JUMPI DUP1 PUSH4 0xD64E1022 EQ PUSH2 0x454 JUMPI DUP1 PUSH4 0xDB1C9FC6 EQ PUSH2 0x47A JUMPI PUSH2 0x206 JUMP JUMPDEST DUP1 PUSH4 0x8DA5CB5B GT PUSH2 0xE9 JUMPI DUP1 PUSH4 0x8DA5CB5B EQ PUSH2 0x3C4 JUMPI DUP1 PUSH4 0xAB72C832 EQ PUSH2 0x3CC JUMPI DUP1 PUSH4 0xB1F49473 EQ PUSH2 0x3E9 JUMPI DUP1 PUSH4 0xBB45A335 EQ PUSH2 0x3F1 JUMPI PUSH2 0x206 JUMP JUMPDEST DUP1 PUSH4 0x7F58B340 EQ PUSH2 0x383 JUMPI DUP1 PUSH4 0x80D85911 EQ PUSH2 0x38B JUMPI DUP1 PUSH4 0x817C620D EQ PUSH2 0x3B4 JUMPI DUP1 PUSH4 0x85DC5806 EQ PUSH2 0x3BC JUMPI PUSH2 0x206 JUMP JUMPDEST DUP1 PUSH4 0x29CD941B GT PUSH2 0x19D JUMPI DUP1 PUSH4 0x6C5CCFB0 GT PUSH2 0x16C JUMPI DUP1 PUSH4 0x6C5CCFB0 EQ PUSH2 0x33D JUMPI DUP1 PUSH4 0x715018A6 EQ PUSH2 0x345 JUMPI DUP1 PUSH4 0x785FBFE2 EQ PUSH2 0x34D JUMPI DUP1 PUSH4 0x7BC51638 EQ PUSH2 0x355 JUMPI DUP1 PUSH4 0x7C00F588 EQ PUSH2 0x37B JUMPI PUSH2 0x206 JUMP JUMPDEST DUP1 PUSH4 0x29CD941B EQ PUSH2 0x2FF JUMPI DUP1 PUSH4 0x422CEAF6 EQ PUSH2 0x325 JUMPI DUP1 PUSH4 0x524900B5 EQ PUSH2 0x32D JUMPI DUP1 PUSH4 0x5308F901 EQ PUSH2 0x335 JUMPI PUSH2 0x206 JUMP JUMPDEST DUP1 PUSH4 0x13459358 GT PUSH2 0x1D9 JUMPI DUP1 PUSH4 0x13459358 EQ PUSH2 0x293 JUMPI DUP1 PUSH4 0x15D606C0 EQ PUSH2 0x2B7 JUMPI DUP1 PUSH4 0x1A29CF63 EQ PUSH2 0x2D1 JUMPI DUP1 PUSH4 0x1B019BB3 EQ PUSH2 0x2F7 JUMPI PUSH2 0x206 JUMP JUMPDEST DUP1 PUSH4 0x32EDCB6 EQ PUSH2 0x20B JUMPI DUP1 PUSH4 0x93D551C EQ PUSH2 0x22A JUMPI DUP1 PUSH4 0xAD7EF2E EQ PUSH2 0x250 JUMPI DUP1 PUSH4 0x10FE8E71 EQ PUSH2 0x276 JUMPI JUMPDEST PUSH1 0x0 DUP1 REVERT JUMPDEST PUSH2 0x228 PUSH1 0x4 DUP1 CALLDATASIZE SUB PUSH1 0x20 DUP2 LT ISZERO PUSH2 0x221 JUMPI PUSH1 0x0 DUP1 REVERT JUMPDEST POP CALLDATALOAD PUSH2 0x4FB JUMP JUMPDEST STOP JUMPDEST PUSH2 0x228 PUSH1 0x4 DUP1 CALLDATASIZE SUB PUSH1 0x20 DUP2 LT ISZERO PUSH2 0x240 JUMPI PUSH1 0x0 DUP1 REVERT JUMPDEST POP CALLDATALOAD PUSH1 0x1 PUSH1 0x1 PUSH1 0xA0 SHL SUB AND PUSH2 0x558 JUMP JUMPDEST PUSH2 0x228 PUSH1 0x4 DUP1 CALLDATASIZE SUB PUSH1 0x20 DUP2 LT ISZERO PUSH2 0x266 JUMPI PUSH1 0x0 DUP1 REVERT JUMPDEST POP CALLDATALOAD PUSH1 0x1 PUSH1 0x1 PUSH1 0xA0 SHL SUB AND PUSH2 0x5D2 JUMP JUMPDEST PUSH2 0x228 PUSH1 0x4 DUP1 CALLDATASIZE SUB PUSH1 0x20 DUP2 LT ISZERO PUSH2 0x28C JUMPI PUSH1 0x0 DUP1 REVERT JUMPDEST POP CALLDATALOAD PUSH2 0x64C JUMP JUMPDEST PUSH2 0x29B PUSH2 0x6A9 JUMP JUMPDEST PUSH1 0x40 DUP1 MLOAD PUSH1 0x1 PUSH1 0x1 PUSH1 0xA0 SHL SUB SWAP1 SWAP3 AND DUP3 MSTORE MLOAD SWAP1 DUP2 SWAP1 SUB PUSH1 0x20 ADD SWAP1 RETURN JUMPDEST PUSH2 0x2BF PUSH2 0x6B8 JUMP JUMPDEST PUSH1 0x40 DUP1 MLOAD SWAP2 DUP3 MSTORE MLOAD SWAP1 DUP2 SWAP1 SUB PUSH1 0x20 ADD SWAP1 RETURN JUMPDEST PUSH2 0x228 PUSH1 0x4 DUP1 CALLDATASIZE SUB PUSH1 0x20 DUP2 LT ISZERO PUSH2 0x2E7 JUMPI PUSH1 0x0 DUP1 REVERT JUMPDEST POP CALLDATALOAD PUSH1 0x1 PUSH1 0x1 PUSH1 0xA0 SHL SUB AND PUSH2 0x6BE JUMP JUMPDEST PUSH2 0x2BF PUSH2 0x738 JUMP JUMPDEST PUSH2 0x228 PUSH1 0x4 DUP1 CALLDATASIZE SUB PUSH1 0x20 DUP2 LT ISZERO PUSH2 0x315 JUMPI PUSH1 0x0 DUP1 REVERT JUMPDEST POP CALLDATALOAD PUSH1 0x1 PUSH1 0x1 PUSH1 0xA0 SHL SUB AND PUSH2 0x73E JUMP JUMPDEST PUSH2 0x2BF PUSH2 0x7B8 JUMP JUMPDEST PUSH2 0x29B PUSH2 0x7BE JUMP JUMPDEST PUSH2 0x29B PUSH2 0x7CD JUMP JUMPDEST PUSH2 0x29B PUSH2 0x7DC JUMP JUMPDEST PUSH2 0x228 PUSH2 0x7EB JUMP JUMPDEST PUSH2 0x29B PUSH2 0x88D JUMP JUMPDEST PUSH2 0x228 PUSH1 0x4 DUP1 CALLDATASIZE SUB PUSH1 0x20 DUP2 LT ISZERO PUSH2 0x36B JUMPI PUSH1 0x0 DUP1 REVERT JUMPDEST POP CALLDATALOAD PUSH1 0x1 PUSH1 0x1 PUSH1 0xA0 SHL SUB AND PUSH2 0x89C JUMP JUMPDEST PUSH2 0x2BF PUSH2 0x916 JUMP JUMPDEST PUSH2 0x29B PUSH2 0x91C JUMP JUMPDEST PUSH2 0x228 PUSH1 0x4 DUP1 CALLDATASIZE SUB PUSH1 0x60 DUP2 LT ISZERO PUSH2 0x3A1 JUMPI PUSH1 0x0 DUP1 REVERT JUMPDEST POP DUP1 CALLDATALOAD SWAP1 PUSH1 0x20 DUP2 ADD CALLDATALOAD SWAP1 PUSH1 0x40 ADD CALLDATALOAD PUSH2 0x92B JUMP JUMPDEST PUSH2 0x2BF PUSH2 0x9E7 JUMP JUMPDEST PUSH2 0x2BF PUSH2 0x9ED JUMP JUMPDEST PUSH2 0x29B PUSH2 0x9F3 JUMP JUMPDEST PUSH2 0x228 PUSH1 0x4 DUP1 CALLDATASIZE SUB PUSH1 0x20 DUP2 LT ISZERO PUSH2 0x3E2 JUMPI PUSH1 0x0 DUP1 REVERT JUMPDEST POP CALLDATALOAD PUSH2 0xA02 JUMP JUMPDEST PUSH2 0x2BF PUSH2 0xA5F JUMP JUMPDEST PUSH2 0x228 PUSH1 0x4 DUP1 CALLDATASIZE SUB PUSH1 0xA0 DUP2 LT ISZERO PUSH2 0x407 JUMPI PUSH1 0x0 DUP1 REVERT JUMPDEST POP DUP1 CALLDATALOAD SWAP1 PUSH1 0x20 DUP2 ADD CALLDATALOAD SWAP1 PUSH1 0x40 DUP2 ADD CALLDATALOAD SWAP1 PUSH1 0x60 DUP2 ADD CALLDATALOAD SWAP1 PUSH1 0x80 ADD CALLDATALOAD PUSH2 0xA65 JUMP JUMPDEST PUSH2 0x2BF PUSH2 0xADA JUMP JUMPDEST PUSH2 0x228 PUSH1 0x4 DUP1 CALLDATASIZE SUB PUSH1 0x20 DUP2 LT ISZERO PUSH2 0x444 JUMPI PUSH1 0x0 DUP1 REVERT JUMPDEST POP CALLDATALOAD PUSH1 0x1 PUSH1 0x1 PUSH1 0xA0 SHL SUB AND PUSH2 0xAE0 JUMP JUMPDEST PUSH2 0x228 PUSH1 0x4 DUP1 CALLDATASIZE SUB PUSH1 0x20 DUP2 LT ISZERO PUSH2 0x46A JUMPI PUSH1 0x0 DUP1 REVERT JUMPDEST POP CALLDATALOAD PUSH1 0x1 PUSH1 0x1 PUSH1 0xA0 SHL SUB AND PUSH2 0xB5A JUMP JUMPDEST PUSH2 0x29B PUSH2 0xBD4 JUMP JUMPDEST PUSH2 0x2BF PUSH2 0xBE3 JUMP JUMPDEST PUSH2 0x228 PUSH1 0x4 DUP1 CALLDATASIZE SUB PUSH1 0x20 DUP2 LT ISZERO PUSH2 0x4A0 JUMPI PUSH1 0x0 DUP1 REVERT JUMPDEST POP CALLDATALOAD PUSH1 0x1 PUSH1 0x1 PUSH1 0xA0 SHL SUB AND PUSH2 0xBE9 JUMP JUMPDEST PUSH2 0x228 PUSH1 0x4 DUP1 CALLDATASIZE SUB PUSH1 0x20 DUP2 LT ISZERO PUSH2 0x4C6 JUMPI PUSH1 0x0 DUP1 REVERT JUMPDEST POP CALLDATALOAD PUSH1 0x1 PUSH1 0x1 PUSH1 0xA0 SHL SUB AND PUSH2 0xC63 JUMP JUMPDEST PUSH2 0x228 PUSH1 0x4 DUP1 CALLDATASIZE SUB PUSH1 0x20 DUP2 LT ISZERO PUSH2 0x4EC JUMPI PUSH1 0x0 DUP1 REVERT JUMPDEST POP CALLDATALOAD PUSH2 0xD5C JUMP JUMPDEST PUSH2 0x29B PUSH2 0xDB9 JUMP JUMPDEST PUSH2 0x503 PUSH2 0xDC8 JUMP JUMPDEST PUSH1 0x33 SLOAD PUSH1 0x1 PUSH1 0x1 PUSH1 0xA0 SHL SUB SWAP1 DUP2 AND SWAP2 AND EQ PUSH2 0x553 JUMPI PUSH1 0x40 DUP1 MLOAD PUSH3 0x461BCD PUSH1 0xE5 SHL DUP2 MSTORE PUSH1 0x20 PUSH1 0x4 DUP3 ADD DUP2 SWAP1 MSTORE PUSH1 0x24 DUP3 ADD MSTORE PUSH1 0x0 DUP1 MLOAD PUSH1 0x20 PUSH2 0x1072 DUP4 CODECOPY DUP2 MLOAD SWAP2 MSTORE PUSH1 0x44 DUP3 ADD MSTORE SWAP1 MLOAD SWAP1 DUP2 SWAP1 SUB PUSH1 0x64 ADD SWAP1 REVERT JUMPDEST PUSH1 0x65 SSTORE JUMP JUMPDEST PUSH2 0x560 PUSH2 0xDC8 JUMP JUMPDEST PUSH1 0x33 SLOAD PUSH1 0x1 PUSH1 0x1 PUSH1 0xA0 SHL SUB SWAP1 DUP2 AND SWAP2 AND EQ PUSH2 0x5B0 JUMPI PUSH1 0x40 DUP1 MLOAD PUSH3 0x461BCD PUSH1 0xE5 SHL DUP2 MSTORE PUSH1 0x20 PUSH1 0x4 DUP3 ADD DUP2 SWAP1 MSTORE PUSH1 0x24 DUP3 ADD MSTORE PUSH1 0x0 DUP1 MLOAD PUSH1 0x20 PUSH2 0x1072 DUP4 CODECOPY DUP2 MLOAD SWAP2 MSTORE PUSH1 0x44 DUP3 ADD MSTORE SWAP1 MLOAD SWAP1 DUP2 SWAP1 SUB PUSH1 0x64 ADD SWAP1 REVERT JUMPDEST PUSH1 0x6F DUP1 SLOAD PUSH1 0x1 PUSH1 0x1 PUSH1 0xA0 SHL SUB NOT AND PUSH1 0x1 PUSH1 0x1 PUSH1 0xA0 SHL SUB SWAP3 SWAP1 SWAP3 AND SWAP2 SWAP1 SWAP2 OR SWAP1 SSTORE JUMP JUMPDEST PUSH2 0x5DA PUSH2 0xDC8 JUMP JUMPDEST PUSH1 0x33 SLOAD PUSH1 0x1 PUSH1 0x1 PUSH1 0xA0 SHL SUB SWAP1 DUP2 AND SWAP2 AND EQ PUSH2 0x62A JUMPI PUSH1 0x40 DUP1 MLOAD PUSH3 0x461BCD PUSH1 0xE5 SHL DUP2 MSTORE PUSH1 0x20 PUSH1 0x4 DUP3 ADD DUP2 SWAP1 MSTORE PUSH1 0x24 DUP3 ADD MSTORE PUSH1 0x0 DUP1 MLOAD PUSH1 0x20 PUSH2 0x1072 DUP4 CODECOPY DUP2 MLOAD SWAP2 MSTORE PUSH1 0x44 DUP3 ADD MSTORE SWAP1 MLOAD SWAP1 DUP2 SWAP1 SUB PUSH1 0x64 ADD SWAP1 REVERT JUMPDEST PUSH1 0x6E DUP1 SLOAD PUSH1 0x1 PUSH1 0x1 PUSH1 0xA0 SHL SUB NOT AND PUSH1 0x1 PUSH1 0x1 PUSH1 0xA0 SHL SUB SWAP3 SWAP1 SWAP3 AND SWAP2 SWAP1 SWAP2 OR SWAP1 SSTORE JUMP JUMPDEST PUSH2 0x654 PUSH2 0xDC8 JUMP JUMPDEST PUSH1 0x33 SLOAD PUSH1 0x1 PUSH1 0x1 PUSH1 0xA0 SHL SUB SWAP1 DUP2 AND SWAP2 AND EQ PUSH2 0x6A4 JUMPI PUSH1 0x40 DUP1 MLOAD PUSH3 0x461BCD PUSH1 0xE5 SHL DUP2 MSTORE PUSH1 0x20 PUSH1 0x4 DUP3 ADD DUP2 SWAP1 MSTORE PUSH1 0x24 DUP3 ADD MSTORE PUSH1 0x0 DUP1 MLOAD PUSH1 0x20 PUSH2 0x1072 DUP4 CODECOPY DUP2 MLOAD SWAP2 MSTORE PUSH1 0x44 DUP3 ADD MSTORE SWAP1 MLOAD SWAP1 DUP2 SWAP1 SUB PUSH1 0x64 ADD SWAP1 REVERT JUMPDEST PUSH1 0x68 SSTORE JUMP JUMPDEST PUSH1 0x72 SLOAD PUSH1 0x1 PUSH1 0x1 PUSH1 0xA0 SHL SUB AND SWAP1 JUMP JUMPDEST PUSH1 0x6D SLOAD SWAP1 JUMP JUMPDEST PUSH2 0x6C6 PUSH2 0xDC8 JUMP JUMPDEST PUSH1 0x33 SLOAD PUSH1 0x1 PUSH1 0x1 PUSH1 0xA0 SHL SUB SWAP1 DUP2 AND SWAP2 AND EQ PUSH2 0x716 JUMPI PUSH1 0x40 DUP1 MLOAD PUSH3 0x461BCD PUSH1 0xE5 SHL DUP2 MSTORE PUSH1 0x20 PUSH1 0x4 DUP3 ADD DUP2 SWAP1 MSTORE PUSH1 0x24 DUP3 ADD MSTORE PUSH1 0x0 DUP1 MLOAD PUSH1 0x20 PUSH2 0x1072 DUP4 CODECOPY DUP2 MLOAD SWAP2 MSTORE PUSH1 0x44 DUP3 ADD MSTORE SWAP1 MLOAD SWAP1 DUP2 SWAP1 SUB PUSH1 0x64 ADD SWAP1 REVERT JUMPDEST PUSH1 0x74 DUP1 SLOAD PUSH1 0x1 PUSH1 0x1 PUSH1 0xA0 SHL SUB NOT AND PUSH1 0x1 PUSH1 0x1 PUSH1 0xA0 SHL SUB SWAP3 SWAP1 SWAP3 AND SWAP2 SWAP1 SWAP2 OR SWAP1 SSTORE JUMP JUMPDEST PUSH1 0x6A SLOAD SWAP1 JUMP JUMPDEST PUSH2 0x746 PUSH2 0xDC8 JUMP JUMPDEST PUSH1 0x33 SLOAD PUSH1 0x1 PUSH1 0x1 PUSH1 0xA0 SHL SUB SWAP1 DUP2 AND SWAP2 AND EQ PUSH2 0x796 JUMPI PUSH1 0x40 DUP1 MLOAD PUSH3 0x461BCD PUSH1 0xE5 SHL DUP2 MSTORE PUSH1 0x20 PUSH1 0x4 DUP3 ADD DUP2 SWAP1 MSTORE PUSH1 0x24 DUP3 ADD MSTORE PUSH1 0x0 DUP1 MLOAD PUSH1 0x20 PUSH2 0x1072 DUP4 CODECOPY DUP2 MLOAD SWAP2 MSTORE PUSH1 0x44 DUP3 ADD MSTORE SWAP1 MLOAD SWAP1 DUP2 SWAP1 SUB PUSH1 0x64 ADD SWAP1 REVERT JUMPDEST PUSH1 0x71 DUP1 SLOAD PUSH1 0x1 PUSH1 0x1 PUSH1 0xA0 SHL SUB NOT AND PUSH1 0x1 PUSH1 0x1 PUSH1 0xA0 SHL SUB SWAP3 SWAP1 SWAP3 AND SWAP2 SWAP1 SWAP2 OR SWAP1 SSTORE JUMP JUMPDEST PUSH1 0x65 SLOAD SWAP1 JUMP JUMPDEST PUSH1 0x73 SLOAD PUSH1 0x1 PUSH1 0x1 PUSH1 0xA0 SHL SUB AND SWAP1 JUMP JUMPDEST PUSH1 0x75 SLOAD PUSH1 0x1 PUSH1 0x1 PUSH1 0xA0 SHL SUB AND SWAP1 JUMP JUMPDEST PUSH1 0x70 SLOAD PUSH1 0x1 PUSH1 0x1 PUSH1 0xA0 SHL SUB AND SWAP1 JUMP JUMPDEST PUSH2 0x7F3 PUSH2 0xDC8 JUMP JUMPDEST PUSH1 0x33 SLOAD PUSH1 0x1 PUSH1 0x1 PUSH1 0xA0 SHL SUB SWAP1 DUP2 AND SWAP2 AND EQ PUSH2 0x843 JUMPI PUSH1 0x40 DUP1 MLOAD PUSH3 0x461BCD PUSH1 0xE5 SHL DUP2 MSTORE PUSH1 0x20 PUSH1 0x4 DUP3 ADD DUP2 SWAP1 MSTORE PUSH1 0x24 DUP3 ADD MSTORE PUSH1 0x0 DUP1 MLOAD PUSH1 0x20 PUSH2 0x1072 DUP4 CODECOPY DUP2 MLOAD SWAP2 MSTORE PUSH1 0x44 DUP3 ADD MSTORE SWAP1 MLOAD SWAP1 DUP2 SWAP1 SUB PUSH1 0x64 ADD SWAP1 REVERT JUMPDEST PUSH1 0x33 SLOAD PUSH1 0x40 MLOAD PUSH1 0x0 SWAP2 PUSH1 0x1 PUSH1 0x1 PUSH1 0xA0 SHL SUB AND SWAP1 PUSH32 0x8BE0079C531659141344CD1FD0A4F28419497F9722A3DAAFE3B4186F6B6457E0 SWAP1 DUP4 SWAP1 LOG3 PUSH1 0x33 DUP1 SLOAD PUSH1 0x1 PUSH1 0x1 PUSH1 0xA0 SHL SUB NOT AND SWAP1 SSTORE JUMP JUMPDEST PUSH1 0x6F SLOAD PUSH1 0x1 PUSH1 0x1 PUSH1 0xA0 SHL SUB AND SWAP1 JUMP JUMPDEST PUSH2 0x8A4 PUSH2 0xDC8 JUMP JUMPDEST PUSH1 0x33 SLOAD PUSH1 0x1 PUSH1 0x1 PUSH1 0xA0 SHL SUB SWAP1 DUP2 AND SWAP2 AND EQ PUSH2 0x8F4 JUMPI PUSH1 0x40 DUP1 MLOAD PUSH3 0x461BCD PUSH1 0xE5 SHL DUP2 MSTORE PUSH1 0x20 PUSH1 0x4 DUP3 ADD DUP2 SWAP1 MSTORE PUSH1 0x24 DUP3 ADD MSTORE PUSH1 0x0 DUP1 MLOAD PUSH1 0x20 PUSH2 0x1072 DUP4 CODECOPY DUP2 MLOAD SWAP2 MSTORE PUSH1 0x44 DUP3 ADD MSTORE SWAP1 MLOAD SWAP1 DUP2 SWAP1 SUB PUSH1 0x64 ADD SWAP1 REVERT JUMPDEST PUSH1 0x75 DUP1 SLOAD PUSH1 0x1 PUSH1 0x1 PUSH1 0xA0 SHL SUB NOT AND PUSH1 0x1 PUSH1 0x1 PUSH1 0xA0 SHL SUB SWAP3 SWAP1 SWAP3 AND SWAP2 SWAP1 SWAP2 OR SWAP1 SSTORE JUMP JUMPDEST PUSH1 0x6B SLOAD SWAP1 JUMP JUMPDEST PUSH1 0x6E SLOAD PUSH1 0x1 PUSH1 0x1 PUSH1 0xA0 SHL SUB AND SWAP1 JUMP JUMPDEST PUSH1 0x0 SLOAD PUSH2 0x100 SWAP1 DIV PUSH1 0xFF AND DUP1 PUSH2 0x944 JUMPI POP PUSH2 0x944 PUSH2 0xDCC JUMP JUMPDEST DUP1 PUSH2 0x952 JUMPI POP PUSH1 0x0 SLOAD PUSH1 0xFF AND ISZERO JUMPDEST PUSH2 0x98D JUMPI PUSH1 0x40 MLOAD PUSH3 0x461BCD PUSH1 0xE5 SHL DUP2 MSTORE PUSH1 0x4 ADD DUP1 DUP1 PUSH1 0x20 ADD DUP3 DUP2 SUB DUP3 MSTORE PUSH1 0x2E DUP2 MSTORE PUSH1 0x20 ADD DUP1 PUSH2 0x1044 PUSH1 0x2E SWAP2 CODECOPY PUSH1 0x40 ADD SWAP2 POP POP PUSH1 0x40 MLOAD DUP1 SWAP2 SUB SWAP1 REVERT JUMPDEST PUSH1 0x0 SLOAD PUSH2 0x100 SWAP1 DIV PUSH1 0xFF AND ISZERO DUP1 ISZERO PUSH2 0x9B8 JUMPI PUSH1 0x0 DUP1 SLOAD PUSH1 0xFF NOT PUSH2 0xFF00 NOT SWAP1 SWAP2 AND PUSH2 0x100 OR AND PUSH1 0x1 OR SWAP1 SSTORE JUMPDEST PUSH2 0x9C0 PUSH2 0xDD2 JUMP JUMPDEST PUSH1 0x65 DUP5 SWAP1 SSTORE PUSH1 0x69 DUP4 SWAP1 SSTORE PUSH1 0x66 DUP3 SWAP1 SSTORE DUP1 ISZERO PUSH2 0x9E1 JUMPI PUSH1 0x0 DUP1 SLOAD PUSH2 0xFF00 NOT AND SWAP1 SSTORE JUMPDEST POP POP POP POP JUMP JUMPDEST PUSH1 0x68 SLOAD SWAP1 JUMP JUMPDEST PUSH1 0x69 SLOAD SWAP1 JUMP JUMPDEST PUSH1 0x33 SLOAD PUSH1 0x1 PUSH1 0x1 PUSH1 0xA0 SHL SUB AND SWAP1 JUMP JUMPDEST PUSH2 0xA0A PUSH2 0xDC8 JUMP JUMPDEST PUSH1 0x33 SLOAD PUSH1 0x1 PUSH1 0x1 PUSH1 0xA0 SHL SUB SWAP1 DUP2 AND SWAP2 AND EQ PUSH2 0xA5A JUMPI PUSH1 0x40 DUP1 MLOAD PUSH3 0x461BCD PUSH1 0xE5 SHL DUP2 MSTORE PUSH1 0x20 PUSH1 0x4 DUP3 ADD DUP2 SWAP1 MSTORE PUSH1 0x24 DUP3 ADD MSTORE PUSH1 0x0 DUP1 MLOAD PUSH1 0x20 PUSH2 0x1072 DUP4 CODECOPY DUP2 MLOAD SWAP2 MSTORE PUSH1 0x44 DUP3 ADD MSTORE SWAP1 MLOAD SWAP1 DUP2 SWAP1 SUB PUSH1 0x64 ADD SWAP1 REVERT JUMPDEST PUSH1 0x67 SSTORE JUMP JUMPDEST PUSH1 0x67 SLOAD SWAP1 JUMP JUMPDEST DUP1 DUP3 DUP5 DUP7 DUP9 ADD ADD ADD ADD PUSH2 0x2710 EQ PUSH2 0xAC3 JUMPI PUSH1 0x40 DUP1 MLOAD PUSH3 0x461BCD PUSH1 0xE5 SHL DUP2 MSTORE PUSH1 0x20 PUSH1 0x4 DUP3 ADD DUP2 SWAP1 MSTORE PUSH1 0x24 DUP3 ADD MSTORE PUSH32 0x4D75737420616C6C6F636174652031303025206F662065746820726169736564 PUSH1 0x44 DUP3 ADD MSTORE SWAP1 MLOAD SWAP1 DUP2 SWAP1 SUB PUSH1 0x64 ADD SWAP1 REVERT JUMPDEST PUSH1 0x6A SWAP5 SWAP1 SWAP5 SSTORE PUSH1 0x69 SWAP3 SWAP1 SWAP3 SSTORE PUSH1 0x6B SSTORE PUSH1 0x6C SSTORE PUSH1 0x6D SSTORE JUMP JUMPDEST PUSH1 0x6C SLOAD SWAP1 JUMP JUMPDEST PUSH2 0xAE8 PUSH2 0xDC8 JUMP JUMPDEST PUSH1 0x33 SLOAD PUSH1 0x1 PUSH1 0x1 PUSH1 0xA0 SHL SUB SWAP1 DUP2 AND SWAP2 AND EQ PUSH2 0xB38 JUMPI PUSH1 0x40 DUP1 MLOAD PUSH3 0x461BCD PUSH1 0xE5 SHL DUP2 MSTORE PUSH1 0x20 PUSH1 0x4 DUP3 ADD DUP2 SWAP1 MSTORE PUSH1 0x24 DUP3 ADD MSTORE PUSH1 0x0 DUP1 MLOAD PUSH1 0x20 PUSH2 0x1072 DUP4 CODECOPY DUP2 MLOAD SWAP2 MSTORE PUSH1 0x44 DUP3 ADD MSTORE SWAP1 MLOAD SWAP1 DUP2 SWAP1 SUB PUSH1 0x64 ADD SWAP1 REVERT JUMPDEST PUSH1 0x73 DUP1 SLOAD PUSH1 0x1 PUSH1 0x1 PUSH1 0xA0 SHL SUB NOT AND PUSH1 0x1 PUSH1 0x1 PUSH1 0xA0 SHL SUB SWAP3 SWAP1 SWAP3 AND SWAP2 SWAP1 SWAP2 OR SWAP1 SSTORE JUMP JUMPDEST PUSH2 0xB62 PUSH2 0xDC8 JUMP JUMPDEST PUSH1 0x33 SLOAD PUSH1 0x1 PUSH1 0x1 PUSH1 0xA0 SHL SUB SWAP1 DUP2 AND SWAP2 AND EQ PUSH2 0xBB2 JUMPI PUSH1 0x40 DUP1 MLOAD PUSH3 0x461BCD PUSH1 0xE5 SHL DUP2 MSTORE PUSH1 0x20 PUSH1 0x4 DUP3 ADD DUP2 SWAP1 MSTORE PUSH1 0x24 DUP3 ADD MSTORE PUSH1 0x0 DUP1 MLOAD PUSH1 0x20 PUSH2 0x1072 DUP4 CODECOPY DUP2 MLOAD SWAP2 MSTORE PUSH1 0x44 DUP3 ADD MSTORE SWAP1 MLOAD SWAP1 DUP2 SWAP1 SUB PUSH1 0x64 ADD SWAP1 REVERT JUMPDEST PUSH1 0x70 DUP1 SLOAD PUSH1 0x1 PUSH1 0x1 PUSH1 0xA0 SHL SUB NOT AND PUSH1 0x1 PUSH1 0x1 PUSH1 0xA0 SHL SUB SWAP3 SWAP1 SWAP3 AND SWAP2 SWAP1 SWAP2 OR SWAP1 SSTORE JUMP JUMPDEST PUSH1 0x71 SLOAD PUSH1 0x1 PUSH1 0x1 PUSH1 0xA0 SHL SUB AND SWAP1 JUMP JUMPDEST PUSH1 0x66 SLOAD SWAP1 JUMP JUMPDEST PUSH2 0xBF1 PUSH2 0xDC8 JUMP JUMPDEST PUSH1 0x33 SLOAD PUSH1 0x1 PUSH1 0x1 PUSH1 0xA0 SHL SUB SWAP1 DUP2 AND SWAP2 AND EQ PUSH2 0xC41 JUMPI PUSH1 0x40 DUP1 MLOAD PUSH3 0x461BCD PUSH1 0xE5 SHL DUP2 MSTORE PUSH1 0x20 PUSH1 0x4 DUP3 ADD DUP2 SWAP1 MSTORE PUSH1 0x24 DUP3 ADD MSTORE PUSH1 0x0 DUP1 MLOAD PUSH1 0x20 PUSH2 0x1072 DUP4 CODECOPY DUP2 MLOAD SWAP2 MSTORE PUSH1 0x44 DUP3 ADD MSTORE SWAP1 MLOAD SWAP1 DUP2 SWAP1 SUB PUSH1 0x64 ADD SWAP1 REVERT JUMPDEST PUSH1 0x72 DUP1 SLOAD PUSH1 0x1 PUSH1 0x1 PUSH1 0xA0 SHL SUB NOT AND PUSH1 0x1 PUSH1 0x1 PUSH1 0xA0 SHL SUB SWAP3 SWAP1 SWAP3 AND SWAP2 SWAP1 SWAP2 OR SWAP1 SSTORE JUMP JUMPDEST PUSH2 0xC6B PUSH2 0xDC8 JUMP JUMPDEST PUSH1 0x33 SLOAD PUSH1 0x1 PUSH1 0x1 PUSH1 0xA0 SHL SUB SWAP1 DUP2 AND SWAP2 AND EQ PUSH2 0xCBB JUMPI PUSH1 0x40 DUP1 MLOAD PUSH3 0x461BCD PUSH1 0xE5 SHL DUP2 MSTORE PUSH1 0x20 PUSH1 0x4 DUP3 ADD DUP2 SWAP1 MSTORE PUSH1 0x24 DUP3 ADD MSTORE PUSH1 0x0 DUP1 MLOAD PUSH1 0x20 PUSH2 0x1072 DUP4 CODECOPY DUP2 MLOAD SWAP2 MSTORE PUSH1 0x44 DUP3 ADD MSTORE SWAP1 MLOAD SWAP1 DUP2 SWAP1 SUB PUSH1 0x64 ADD SWAP1 REVERT JUMPDEST PUSH1 0x1 PUSH1 0x1 PUSH1 0xA0 SHL SUB DUP2 AND PUSH2 0xD00 JUMPI PUSH1 0x40 MLOAD PUSH3 0x461BCD PUSH1 0xE5 SHL DUP2 MSTORE PUSH1 0x4 ADD DUP1 DUP1 PUSH1 0x20 ADD DUP3 DUP2 SUB DUP3 MSTORE PUSH1 0x26 DUP2 MSTORE PUSH1 0x20 ADD DUP1 PUSH2 0x101E PUSH1 0x26 SWAP2 CODECOPY PUSH1 0x40 ADD SWAP2 POP POP PUSH1 0x40 MLOAD DUP1 SWAP2 SUB SWAP1 REVERT JUMPDEST PUSH1 0x33 SLOAD PUSH1 0x40 MLOAD PUSH1 0x1 PUSH1 0x1 PUSH1 0xA0 SHL SUB DUP1 DUP5 AND SWAP3 AND SWAP1 PUSH32 0x8BE0079C531659141344CD1FD0A4F28419497F9722A3DAAFE3B4186F6B6457E0 SWAP1 PUSH1 0x0 SWAP1 LOG3 PUSH1 0x33 DUP1 SLOAD PUSH1 0x1 PUSH1 0x1 PUSH1 0xA0 SHL SUB NOT AND PUSH1 0x1 PUSH1 0x1 PUSH1 0xA0 SHL SUB SWAP3 SWAP1 SWAP3 AND SWAP2 SWAP1 SWAP2 OR SWAP1 SSTORE JUMP JUMPDEST PUSH2 0xD64 PUSH2 0xDC8 JUMP JUMPDEST PUSH1 0x33 SLOAD PUSH1 0x1 PUSH1 0x1 PUSH1 0xA0 SHL SUB SWAP1 DUP2 AND SWAP2 AND EQ PUSH2 0xDB4 JUMPI PUSH1 0x40 DUP1 MLOAD PUSH3 0x461BCD PUSH1 0xE5 SHL DUP2 MSTORE PUSH1 0x20 PUSH1 0x4 DUP3 ADD DUP2 SWAP1 MSTORE PUSH1 0x24 DUP3 ADD MSTORE PUSH1 0x0 DUP1 MLOAD PUSH1 0x20 PUSH2 0x1072 DUP4 CODECOPY DUP2 MLOAD SWAP2 MSTORE PUSH1 0x44 DUP3 ADD MSTORE SWAP1 MLOAD SWAP1 DUP2 SWAP1 SUB PUSH1 0x64 ADD SWAP1 REVERT JUMPDEST PUSH1 0x66 SSTORE JUMP JUMPDEST PUSH1 0x74 SLOAD PUSH1 0x1 PUSH1 0x1 PUSH1 0xA0 SHL SUB AND SWAP1 JUMP JUMPDEST CALLER SWAP1 JUMP JUMPDEST ADDRESS EXTCODESIZE ISZERO SWAP1 JUMP JUMPDEST PUSH1 0x0 SLOAD PUSH2 0x100 SWAP1 DIV PUSH1 0xFF AND DUP1 PUSH2 0xDEB JUMPI POP PUSH2 0xDEB PUSH2 0xDCC JUMP JUMPDEST DUP1 PUSH2 0xDF9 JUMPI POP PUSH1 0x0 SLOAD PUSH1 0xFF AND ISZERO JUMPDEST PUSH2 0xE34 JUMPI PUSH1 0x40 MLOAD PUSH3 0x461BCD PUSH1 0xE5 SHL DUP2 MSTORE PUSH1 0x4 ADD DUP1 DUP1 PUSH1 0x20 ADD DUP3 DUP2 SUB DUP3 MSTORE PUSH1 0x2E DUP2 MSTORE PUSH1 0x20 ADD DUP1 PUSH2 0x1044 PUSH1 0x2E SWAP2 CODECOPY PUSH1 0x40 ADD SWAP2 POP POP PUSH1 0x40 MLOAD DUP1 SWAP2 SUB SWAP1 REVERT JUMPDEST PUSH1 0x0 SLOAD PUSH2 0x100 SWAP1 DIV PUSH1 0xFF AND ISZERO DUP1 ISZERO PUSH2 0xE5F JUMPI PUSH1 0x0 DUP1 SLOAD PUSH1 0xFF NOT PUSH2 0xFF00 NOT SWAP1 SWAP2 AND PUSH2 0x100 OR AND PUSH1 0x1 OR SWAP1 SSTORE JUMPDEST PUSH2 0xE67 PUSH2 0xE84 JUMP JUMPDEST PUSH2 0xE6F PUSH2 0xF24 JUMP JUMPDEST DUP1 ISZERO PUSH2 0xE81 JUMPI PUSH1 0x0 DUP1 SLOAD PUSH2 0xFF00 NOT AND SWAP1 SSTORE JUMPDEST POP JUMP JUMPDEST PUSH1 0x0 SLOAD PUSH2 0x100 SWAP1 DIV PUSH1 0xFF AND DUP1 PUSH2 0xE9D JUMPI POP PUSH2 0xE9D PUSH2 0xDCC JUMP JUMPDEST DUP1 PUSH2 0xEAB JUMPI POP PUSH1 0x0 SLOAD PUSH1 0xFF AND ISZERO JUMPDEST PUSH2 0xEE6 JUMPI PUSH1 0x40 MLOAD PUSH3 0x461BCD PUSH1 0xE5 SHL DUP2 MSTORE PUSH1 0x4 ADD DUP1 DUP1 PUSH1 0x20 ADD DUP3 DUP2 SUB DUP3 MSTORE PUSH1 0x2E DUP2 MSTORE PUSH1 0x20 ADD DUP1 PUSH2 0x1044 PUSH1 0x2E SWAP2 CODECOPY PUSH1 0x40 ADD SWAP2 POP POP PUSH1 0x40 MLOAD DUP1 SWAP2 SUB SWAP1 REVERT JUMPDEST PUSH1 0x0 SLOAD PUSH2 0x100 SWAP1 DIV PUSH1 0xFF AND ISZERO DUP1 ISZERO PUSH2 0xE6F JUMPI PUSH1 0x0 DUP1 SLOAD PUSH1 0xFF NOT PUSH2 0xFF00 NOT SWAP1 SWAP2 AND PUSH2 0x100 OR AND PUSH1 0x1 OR SWAP1 SSTORE DUP1 ISZERO PUSH2 0xE81 JUMPI PUSH1 0x0 DUP1 SLOAD PUSH2 0xFF00 NOT AND SWAP1 SSTORE POP JUMP JUMPDEST PUSH1 0x0 SLOAD PUSH2 0x100 SWAP1 DIV PUSH1 0xFF AND DUP1 PUSH2 0xF3D JUMPI POP PUSH2 0xF3D PUSH2 0xDCC JUMP JUMPDEST DUP1 PUSH2 0xF4B JUMPI POP PUSH1 0x0 SLOAD PUSH1 0xFF AND ISZERO JUMPDEST PUSH2 0xF86 JUMPI PUSH1 0x40 MLOAD PUSH3 0x461BCD PUSH1 0xE5 SHL DUP2 MSTORE PUSH1 0x4 ADD DUP1 DUP1 PUSH1 0x20 ADD DUP3 DUP2 SUB DUP3 MSTORE PUSH1 0x2E DUP2 MSTORE PUSH1 0x20 ADD DUP1 PUSH2 0x1044 PUSH1 0x2E SWAP2 CODECOPY PUSH1 0x40 ADD SWAP2 POP POP PUSH1 0x40 MLOAD DUP1 SWAP2 SUB SWAP1 REVERT JUMPDEST PUSH1 0x0 SLOAD PUSH2 0x100 SWAP1 DIV PUSH1 0xFF AND ISZERO DUP1 ISZERO PUSH2 0xFB1 JUMPI PUSH1 0x0 DUP1 SLOAD PUSH1 0xFF NOT PUSH2 0xFF00 NOT SWAP1 SWAP2 AND PUSH2 0x100 OR AND PUSH1 0x1 OR SWAP1 SSTORE JUMPDEST PUSH1 0x0 PUSH2 0xFBB PUSH2 0xDC8 JUMP JUMPDEST PUSH1 0x33 DUP1 SLOAD PUSH1 0x1 PUSH1 0x1 PUSH1 0xA0 SHL SUB NOT AND PUSH1 0x1 PUSH1 0x1 PUSH1 0xA0 SHL SUB DUP4 AND SWAP1 DUP2 OR SWAP1 SWAP2 SSTORE PUSH1 0x40 MLOAD SWAP2 SWAP3 POP SWAP1 PUSH1 0x0 SWAP1 PUSH32 0x8BE0079C531659141344CD1FD0A4F28419497F9722A3DAAFE3B4186F6B6457E0 SWAP1 DUP3 SWAP1 LOG3 POP DUP1 ISZERO PUSH2 0xE81 JUMPI PUSH1 0x0 DUP1 SLOAD PUSH2 0xFF00 NOT AND SWAP1 SSTORE POP JUMP INVALID 0x4F PUSH24 0x6E61626C653A206E6577206F776E65722069732074686520 PUSH27 0x65726F2061646472657373496E697469616C697A61626C653A2063 PUSH16 0x6E747261637420697320616C72656164 PUSH26 0x20696E697469616C697A65644F776E61626C653A2063616C6C65 PUSH19 0x206973206E6F7420746865206F776E6572A264 PUSH10 0x7066735822122040B9F4 0x5E SWAP16 0xBA 0xC0 0xF 0xA6 0x26 0xB4 0xC9 0xC6 PUSH4 0x23DAC5B9 SUB 0xE2 0x29 0xB2 0xF 0xBF 0xC9 PUSH11 0x94FFB5ADDDDD64736F6C63 NUMBER STOP MOD MOD STOP CALLER "
        },
        "methodIdentifiers": {
          "getBaseFeeBP()": "1b019bb3",
          "getEthBuyBP()": "85dc5806",
          "getEthXLockBP()": "422ceaf6",
          "getIgnitePeriod()": "b1f49473",
          "getInsurancePeriod()": "817c620d",
          "getLidPoolBP()": "15d606c0",
          "getLidPoolManager()": "5308f901",
          "getLidTreasury()": "ff975e23",
          "getLiftoffEngine()": "6c5ccfb0",
          "getLiftoffInsurance()": "7f58b340",
          "getLiftoffLauncher()": "785fbfe2",
          "getMainFeeBP()": "bc08f5d2",
          "getProjectDevBP()": "7c00f588",
          "getTokenUserBP()": "e629adff",
          "getUniswapRouter()": "524900b5",
          "getXEth()": "db1c9fc6",
          "getXLocker()": "13459358",
          "initialize(uint256,uint256,uint256)": "80d85911",
          "owner()": "8da5cb5b",
          "renounceOwnership()": "715018a6",
          "setEthXLockBP(uint256)": "032edcb6",
          "setIgnitePeriod(uint256)": "ab72c832",
          "setInsurancePeriod(uint256)": "10fe8e71",
          "setLidPoolManager(address)": "7bc51638",
          "setLidTreasury(address)": "1a29cf63",
          "setLiftoffEngine(address)": "d64e1022",
          "setLiftoffInsurance(address)": "0ad7ef2e",
          "setLiftoffLauncher(address)": "093d551c",
          "setTokenUserBP(uint256)": "fb9fd054",
          "setUniswapRouter(address)": "bea9849e",
          "setXEth(address)": "29cd941b",
          "setXLocker(address)": "ea77536c",
          "setXethBP(uint256,uint256,uint256,uint256,uint256)": "bb45a335",
          "transferOwnership(address)": "f2fde38b"
        }
      }
    }
  }
}