{
  "_format": "hh-sol-artifact-1",
  "contractName": "LiftoffEngine",
  "sourceName": "contracts/LiftoffEngine.sol",
  "abi": [
    {
      "anonymous": false,
      "inputs": [
        {
          "indexed": true,
          "internalType": "address",
          "name": "previousOwner",
          "type": "address"
        },
        {
          "indexed": true,
          "internalType": "address",
          "name": "newOwner",
          "type": "address"
        }
      ],
      "name": "OwnershipTransferred",
      "type": "event"
    },
    {
      "anonymous": false,
      "inputs": [
        {
          "indexed": false,
          "internalType": "address",
          "name": "account",
          "type": "address"
        }
      ],
      "name": "Paused",
      "type": "event"
    },
    {
      "anonymous": false,
      "inputs": [
        {
          "indexed": false,
          "internalType": "address",
          "name": "account",
          "type": "address"
        }
      ],
      "name": "Unpaused",
      "type": "event"
    },
    {
      "inputs": [
        {
          "internalType": "uint256",
          "name": "_tokenSaleId",
          "type": "uint256"
        },
        {
          "internalType": "address payable",
          "name": "_for",
          "type": "address"
        }
      ],
      "name": "claimRefund",
      "outputs": [],
      "stateMutability": "nonpayable",
      "type": "function"
    },
    {
      "inputs": [
        {
          "internalType": "uint256",
          "name": "_tokenSaleId",
          "type": "uint256"
        },
        {
          "internalType": "address",
          "name": "_for",
          "type": "address"
        }
      ],
      "name": "claimReward",
      "outputs": [],
      "stateMutability": "nonpayable",
      "type": "function"
    },
    {
      "inputs": [
        {
          "internalType": "uint256",
          "name": "amountXEth",
          "type": "uint256"
        },
        {
          "internalType": "uint256",
          "name": "hardCap",
          "type": "uint256"
        },
        {
          "internalType": "uint256",
          "name": "totalIgnited",
          "type": "uint256"
        }
      ],
      "name": "getAmountToIgnite",
      "outputs": [
        {
          "internalType": "uint256",
          "name": "toIgnite",
          "type": "uint256"
        }
      ],
      "stateMutability": "pure",
      "type": "function"
    },
    {
      "inputs": [
        {
          "internalType": "uint256",
          "name": "ignited",
          "type": "uint256"
        },
        {
          "internalType": "uint256",
          "name": "rewardSupply",
          "type": "uint256"
        },
        {
          "internalType": "uint256",
          "name": "totalIgnited",
          "type": "uint256"
        }
      ],
      "name": "getReward",
      "outputs": [
        {
          "internalType": "uint256",
          "name": "reward",
          "type": "uint256"
        }
      ],
      "stateMutability": "pure",
      "type": "function"
    },
    {
      "inputs": [
        {
          "internalType": "uint256",
          "name": "_tokenSaleId",
          "type": "uint256"
        }
      ],
      "name": "getTokenSale",
      "outputs": [
        {
          "internalType": "uint256",
          "name": "startTime",
          "type": "uint256"
        },
        {
          "internalType": "uint256",
          "name": "endTime",
          "type": "uint256"
        },
        {
          "internalType": "uint256",
          "name": "softCap",
          "type": "uint256"
        },
        {
          "internalType": "uint256",
          "name": "hardCap",
          "type": "uint256"
        },
        {
          "internalType": "uint256",
          "name": "totalIgnited",
          "type": "uint256"
        },
        {
          "internalType": "uint256",
          "name": "totalSupply",
          "type": "uint256"
        },
        {
          "internalType": "uint256",
          "name": "rewardSupply",
          "type": "uint256"
        },
        {
          "internalType": "address",
          "name": "projectDev",
          "type": "address"
        },
        {
          "internalType": "address",
          "name": "deployed",
          "type": "address"
        },
        {
          "internalType": "bool",
          "name": "isSparked",
          "type": "bool"
        }
      ],
      "stateMutability": "view",
      "type": "function"
    },
    {
      "inputs": [
        {
          "internalType": "uint256",
          "name": "_tokenSaleId",
          "type": "uint256"
        }
      ],
      "name": "getTokenSaleForInsurance",
      "outputs": [
        {
          "internalType": "uint256",
          "name": "totalIgnited",
          "type": "uint256"
        },
        {
          "internalType": "uint256",
          "name": "rewardSupply",
          "type": "uint256"
        },
        {
          "internalType": "address",
          "name": "projectDev",
          "type": "address"
        },
        {
          "internalType": "address",
          "name": "deployed",
          "type": "address"
        }
      ],
      "stateMutability": "view",
      "type": "function"
    },
    {
      "inputs": [
        {
          "internalType": "uint256",
          "name": "_tokenSaleId",
          "type": "uint256"
        },
        {
          "internalType": "address",
          "name": "_for",
          "type": "address"
        },
        {
          "internalType": "uint256",
          "name": "_amountXEth",
          "type": "uint256"
        }
      ],
      "name": "ignite",
      "outputs": [],
      "stateMutability": "nonpayable",
      "type": "function"
    },
    {
      "inputs": [
        {
          "internalType": "uint256",
          "name": "_tokenSaleId",
          "type": "uint256"
        }
      ],
      "name": "igniteEth",
      "outputs": [],
      "stateMutability": "payable",
      "type": "function"
    },
    {
      "inputs": [
        {
          "internalType": "contract ILiftoffSettings",
          "name": "_liftoffSettings",
          "type": "address"
        }
      ],
      "name": "initialize",
      "outputs": [],
      "stateMutability": "nonpayable",
      "type": "function"
    },
    {
      "inputs": [
        {
          "internalType": "uint256",
          "name": "startTime",
          "type": "uint256"
        },
        {
          "internalType": "uint256",
          "name": "endTime",
          "type": "uint256"
        },
        {
          "internalType": "uint256",
          "name": "totalIgnited",
          "type": "uint256"
        },
        {
          "internalType": "uint256",
          "name": "hardCap",
          "type": "uint256"
        }
      ],
      "name": "isIgniting",
      "outputs": [
        {
          "internalType": "bool",
          "name": "",
          "type": "bool"
        }
      ],
      "stateMutability": "view",
      "type": "function"
    },
    {
      "inputs": [
        {
          "internalType": "uint256",
          "name": "endTime",
          "type": "uint256"
        },
        {
          "internalType": "uint256",
          "name": "softCap",
          "type": "uint256"
        },
        {
          "internalType": "uint256",
          "name": "totalIgnited",
          "type": "uint256"
        }
      ],
      "name": "isRefunding",
      "outputs": [
        {
          "internalType": "bool",
          "name": "",
          "type": "bool"
        }
      ],
      "stateMutability": "view",
      "type": "function"
    },
    {
      "inputs": [
        {
          "internalType": "uint256",
          "name": "endTime",
          "type": "uint256"
        },
        {
          "internalType": "uint256",
          "name": "totalIgnited",
          "type": "uint256"
        },
        {
          "internalType": "uint256",
          "name": "hardCap",
          "type": "uint256"
        },
        {
          "internalType": "uint256",
          "name": "softCap",
          "type": "uint256"
        },
        {
          "internalType": "bool",
          "name": "isSparked",
          "type": "bool"
        }
      ],
      "name": "isSparkReady",
      "outputs": [
        {
          "internalType": "bool",
          "name": "",
          "type": "bool"
        }
      ],
      "stateMutability": "view",
      "type": "function"
    },
    {
      "inputs": [
        {
          "internalType": "uint256",
          "name": "_startTime",
          "type": "uint256"
        },
        {
          "internalType": "uint256",
          "name": "_endTime",
          "type": "uint256"
        },
        {
          "internalType": "uint256",
          "name": "_softCap",
          "type": "uint256"
        },
        {
          "internalType": "uint256",
          "name": "_hardCap",
          "type": "uint256"
        },
        {
          "internalType": "uint256",
          "name": "_totalSupply",
          "type": "uint256"
        },
        {
          "internalType": "string",
          "name": "_name",
          "type": "string"
        },
        {
          "internalType": "string",
          "name": "_symbol",
          "type": "string"
        },
        {
          "internalType": "address",
          "name": "_projectDev",
          "type": "address"
        }
      ],
      "name": "launchToken",
      "outputs": [
        {
          "internalType": "uint256",
          "name": "tokenId",
          "type": "uint256"
        }
      ],
      "stateMutability": "nonpayable",
      "type": "function"
    },
    {
      "inputs": [],
      "name": "liftoffSettings",
      "outputs": [
        {
          "internalType": "contract ILiftoffSettings",
          "name": "",
          "type": "address"
        }
      ],
      "stateMutability": "view",
      "type": "function"
    },
    {
      "inputs": [],
      "name": "owner",
      "outputs": [
        {
          "internalType": "address",
          "name": "",
          "type": "address"
        }
      ],
      "stateMutability": "view",
      "type": "function"
    },
    {
      "inputs": [],
      "name": "paused",
      "outputs": [
        {
          "internalType": "bool",
          "name": "",
          "type": "bool"
        }
      ],
      "stateMutability": "view",
      "type": "function"
    },
    {
      "inputs": [],
      "name": "renounceOwnership",
      "outputs": [],
      "stateMutability": "nonpayable",
      "type": "function"
    },
    {
      "inputs": [
        {
          "internalType": "contract ILiftoffSettings",
          "name": "_liftoffSettings",
          "type": "address"
        }
      ],
      "name": "setLiftoffSettings",
      "outputs": [],
      "stateMutability": "nonpayable",
      "type": "function"
    },
    {
      "inputs": [
        {
          "internalType": "uint256",
          "name": "_tokenSaleId",
          "type": "uint256"
        }
      ],
      "name": "spark",
      "outputs": [],
      "stateMutability": "nonpayable",
      "type": "function"
    },
    {
      "inputs": [
        {
          "internalType": "uint256",
          "name": "",
          "type": "uint256"
        }
      ],
      "name": "tokens",
      "outputs": [
        {
          "internalType": "uint256",
          "name": "startTime",
          "type": "uint256"
        },
        {
          "internalType": "uint256",
          "name": "endTime",
          "type": "uint256"
        },
        {
          "internalType": "uint256",
          "name": "softCap",
          "type": "uint256"
        },
        {
          "internalType": "uint256",
          "name": "hardCap",
          "type": "uint256"
        },
        {
          "internalType": "uint256",
          "name": "totalIgnited",
          "type": "uint256"
        },
        {
          "internalType": "uint256",
          "name": "totalSupply",
          "type": "uint256"
        },
        {
          "internalType": "uint256",
          "name": "rewardSupply",
          "type": "uint256"
        },
        {
          "internalType": "address",
          "name": "projectDev",
          "type": "address"
        },
        {
          "internalType": "address",
          "name": "deployed",
          "type": "address"
        },
        {
          "internalType": "bool",
          "name": "isSparked",
          "type": "bool"
        },
        {
          "internalType": "string",
          "name": "name",
          "type": "string"
        },
        {
          "internalType": "string",
          "name": "symbol",
          "type": "string"
        }
      ],
      "stateMutability": "view",
      "type": "function"
    },
    {
      "inputs": [],
      "name": "totalTokenSales",
      "outputs": [
        {
          "internalType": "uint256",
          "name": "",
          "type": "uint256"
        }
      ],
      "stateMutability": "view",
      "type": "function"
    },
    {
      "inputs": [
        {
          "internalType": "address",
          "name": "newOwner",
          "type": "address"
        }
      ],
      "name": "transferOwnership",
      "outputs": [],
      "stateMutability": "nonpayable",
      "type": "function"
    }
  ],
  "bytecode": "0x608060405234801561001057600080fd5b50612fe1806100206000396000f3fe6080604052600436106101355760003560e01c80638da5cb5b116100ab578063c4d66de81161006f578063c4d66de8146106c0578063cec03ce3146106f3578063e5ca8dbe1461072c578063e70eb39214610768578063e82c6e7b146107a1578063f2fde38b146107b657610135565b80638da5cb5b1461050657806394d63c9f1461051b578063a01112ac1461055f578063aa05ebce14610595578063ac2bd78d146105c857610135565b80634f64b2be116100fd5780634f64b2be146102925780635c975abb1461040857806362cd645314610431578063715018a61461048a5780638cf9bff71461049f5780638d70baf0146104d557610135565b80630bacec211461013a57806314c4099e1461018257806318a9401a146101c35780631fbc147b146101ed57806343d717ae14610275575b600080fd5b34801561014657600080fd5b506101706004803603606081101561015d57600080fd5b50803590602081013590604001356107e9565b60408051918252519081900360200190f35b34801561018e57600080fd5b506101c1600480360360608110156101a557600080fd5b508035906001600160a01b036020820135169060400135610815565b005b3480156101cf57600080fd5b506101c1600480360360208110156101e657600080fd5b5035610a45565b3480156101f957600080fd5b506102176004803603602081101561021057600080fd5b5035610b5b565b604080519a8b5260208b0199909952898901979097526060890195909552608088019390935260a087019190915260c08601526001600160a01b0390811660e086015216610100840152151561012083015251908190036101400190f35b6101c16004803603602081101561028b57600080fd5b5035610c10565b34801561029e57600080fd5b506102bc600480360360208110156102b557600080fd5b5035610e12565b604051808d81526020018c81526020018b81526020018a8152602001898152602001888152602001878152602001866001600160a01b03166001600160a01b03168152602001856001600160a01b03166001600160a01b03168152602001841515151581526020018060200180602001838103835285818151815260200191508051906020019080838360005b83811015610361578181015183820152602001610349565b50505050905090810190601f16801561038e5780820380516001836020036101000a031916815260200191505b50838103825284518152845160209182019186019080838360005b838110156103c15781810151838201526020016103a9565b50505050905090810190601f1680156103ee5780820380516001836020036101000a031916815260200191505b509e50505050505050505050505050505060405180910390f35b34801561041457600080fd5b5061041d610faa565b604080519115158252519081900360200190f35b34801561043d57600080fd5b5061045b6004803603602081101561045457600080fd5b5035610fb4565b6040805194855260208501939093526001600160a01b0391821684840152166060830152519081900360800190f35b34801561049657600080fd5b506101c161100a565b3480156104ab57600080fd5b50610170600480360360608110156104c257600080fd5b50803590602081013590604001356110be565b3480156104e157600080fd5b506104ea6110ef565b604080516001600160a01b039092168252519081900360200190f35b34801561051257600080fd5b506104ea6110fe565b34801561052757600080fd5b5061041d600480360360a081101561053e57600080fd5b5080359060208101359060408101359060608101359060800135151561110d565b34801561056b57600080fd5b5061041d6004803603606081101561058257600080fd5b508035906020810135906040013561114a565b3480156105a157600080fd5b506101c1600480360360208110156105b857600080fd5b50356001600160a01b0316611170565b3480156105d457600080fd5b5061017060048036036101008110156105ec57600080fd5b8135916020810135916040820135916060810135916080820135919081019060c0810160a082013564010000000081111561062657600080fd5b82018360208201111561063857600080fd5b8035906020019184600183028401116401000000008311171561065a57600080fd5b91939092909160208101903564010000000081111561067857600080fd5b82018360208201111561068a57600080fd5b803590602001918460018302840111640100000000831117156106ac57600080fd5b9193509150356001600160a01b03166111fc565b3480156106cc57600080fd5b506101c1600480360360208110156106e357600080fd5b50356001600160a01b03166115f4565b3480156106ff57600080fd5b506101c16004803603604081101561071657600080fd5b50803590602001356001600160a01b03166116ca565b34801561073857600080fd5b5061041d6004803603608081101561074f57600080fd5b5080359060208101359060408101359060600135611982565b34801561077457600080fd5b506101c16004803603604081101561078b57600080fd5b50803590602001356001600160a01b03166119b5565b3480156107ad57600080fd5b50610170611c01565b3480156107c257600080fd5b506101c1600480360360208110156107d957600080fd5b50356001600160a01b0316611c07565b600061080b826107ff868663ffffffff611d1216565b9063ffffffff611d7416565b90505b9392505050565b60655460ff1615610860576040805162461bcd60e51b815260206004820152601060248201526f14185d5cd8589b194e881c185d5cd95960821b604482015290519081900360640190fd5b600060ca848154811061086f57fe5b90600052602060002090600c0201905061089b8160000154826001015483600401548460030154611982565b6108dc576040805162461bcd60e51b815260206004820152600d60248201526c2737ba1034b3b734ba34b7339760991b604482015290519081900360640190fd5b60006108f183836003015484600401546110be565b905060c960009054906101000a90046001600160a01b03166001600160a01b031663db1c9fc66040518163ffffffff1660e01b815260040160206040518083038186803b15801561094157600080fd5b505afa158015610955573d6000803e3d6000fd5b505050506040513d602081101561096b57600080fd5b5051604080516323b872dd60e01b81523360048201523060248201526044810184905290516001600160a01b03909216916323b872dd916064808201926020929091908290030181600087803b1580156109c457600080fd5b505af11580156109d8573d6000803e3d6000fd5b505050506040513d60208110156109ee57600080fd5b5051610a33576040805162461bcd60e51b815260206004820152600f60248201526e151c985b9cd9995c8811985a5b1959608a1b604482015290519081900360640190fd5b610a3e828583611db6565b5050505050565b60655460ff1615610a90576040805162461bcd60e51b815260206004820152601060248201526f14185d5cd8589b194e881c185d5cd95960821b604482015290519081900360640190fd5b600060ca8281548110610a9f57fe5b90600052602060002090600c02019050610add81600101548260040154836003015484600201548560080160149054906101000a900460ff1661110d565b610b20576040805162461bcd60e51b815260206004820152600f60248201526e4e6f7420737061726b20726561647960881b604482015290519081900360640190fd5b60088101805460ff60a01b1916600160a01b1790556000610b4082611e07565b9050610b4b826123e8565b610b568284836124f8565b505050565b600080600080600080600080600080600060ca8c81548110610b7957fe5b90600052602060002090600c0201905080600001549a508060010154995080600201549850806003015497508060040154965080600501549550806006015494508060070160009054906101000a90046001600160a01b031693508060080160009054906101000a90046001600160a01b031692508060080160149054906101000a900460ff169150509193959799509193959799565b60655460ff1615610c5b576040805162461bcd60e51b815260206004820152601060248201526f14185d5cd8589b194e881c185d5cd95960821b604482015290519081900360640190fd5b600060ca8281548110610c6a57fe5b90600052602060002090600c02019050610c968160000154826001015483600401548460030154611982565b610cd7576040805162461bcd60e51b815260206004820152600d60248201526c2737ba1034b3b734ba34b7339760991b604482015290519081900360640190fd5b6000610cec34836003015484600401546110be565b905060c960009054906101000a90046001600160a01b03166001600160a01b031663db1c9fc66040518163ffffffff1660e01b815260040160206040518083038186803b158015610d3c57600080fd5b505afa158015610d50573d6000803e3d6000fd5b505050506040513d6020811015610d6657600080fd5b505160408051630d0e30db60e41b815290516001600160a01b039092169163d0e30db0918491600480830192600092919082900301818588803b158015610dac57600080fd5b505af1158015610dc0573d6000803e3d6000fd5b5050505050610dd0823383611db6565b336108fc610de4348463ffffffff61280916565b6040518115909202916000818181858888f19350505050158015610e0c573d6000803e3d6000fd5b50505050565b60ca8181548110610e1f57fe5b6000918252602091829020600c91909102018054600180830154600280850154600386015460048701546005880154600689015460078a015460088b015460098c018054604080516101009d8316159d909d026000190190911699909904601f81018f90048f028c018f01909952888b529a9d50979b959a94999398929791966001600160a01b039182169691831695600160a01b90930460ff169492939291830182828015610f105780601f10610ee557610100808354040283529160200191610f10565b820191906000526020600020905b815481529060010190602001808311610ef357829003601f168201915b50505050600a8301805460408051602060026001851615610100026000190190941693909304601f8101849004840282018401909252818152949594935090830182828015610fa05780601f10610f7557610100808354040283529160200191610fa0565b820191906000526020600020905b815481529060010190602001808311610f8357829003601f168201915b505050505090508c565b60655460ff165b90565b600080600080600060ca8681548110610fc957fe5b60009182526020909120600c9091020160048101546006820154600783015460089093015491999098506001600160a01b0392831697509116945092505050565b61101261284b565b6033546001600160a01b03908116911614611074576040805162461bcd60e51b815260206004820181905260248201527f4f776e61626c653a2063616c6c6572206973206e6f7420746865206f776e6572604482015290519081900360640190fd5b6033546040516000916001600160a01b0316907f8be0079c531659141344cd1fd0a4f28419497f9722a3daafe3b4186f6b6457e0908390a3603380546001600160a01b0319169055565b6000806110d1848463ffffffff61280916565b9050818110156110e3578091506110e7565b8491505b509392505050565b60c9546001600160a01b031681565b6033546001600160a01b031690565b600085421115801561111e57508385105b8061112857508285105b806111305750815b1561113d57506000611141565b5060015b95945050505050565b6000828210158061115b5750834211155b156111685750600061080e565b50600161080e565b61117861284b565b6033546001600160a01b039081169116146111da576040805162461bcd60e51b815260206004820181905260248201527f4f776e61626c653a2063616c6c6572206973206e6f7420746865206f776e6572604482015290519081900360640190fd5b60c980546001600160a01b0319166001600160a01b0392909216919091179055565b60655460009060ff161561124a576040805162461bcd60e51b815260206004820152601060248201526f14185d5cd8589b194e881c185d5cd95960821b604482015290519081900360640190fd5b60c960009054906101000a90046001600160a01b03166001600160a01b031663785fbfe26040518163ffffffff1660e01b815260040160206040518083038186803b15801561129857600080fd5b505afa1580156112ac573d6000803e3d6000fd5b505050506040513d60208110156112c257600080fd5b50516001600160a01b03163314611320576040805162461bcd60e51b815260206004820152601760248201527f53656e646572206d757374206265206c61756e63686572000000000000000000604482015290519081900360640190fd5b8a8a1161136b576040805162461bcd60e51b8152602060048201526014602482015273135d5cdd08195b990818599d195c881cdd185c9d60621b604482015290519081900360640190fd5b428b116113bf576040805162461bcd60e51b815260206004820152601860248201527f4d75737420737461727420696e20746865206675747572650000000000000000604482015290519081900360640190fd5b88881015611414576040805162461bcd60e51b815260206004820181905260248201527f48617264636170206d757374206265206174206c6561737420736f6674436170604482015290519081900360640190fd5b60cb5490506040518061018001604052808c81526020018b81526020018a81526020018981526020016000815260200188815260200160008152602001836001600160a01b0316815260200160006001600160a01b0316815260200160001515815260200187878080601f016020809104026020016040519081016040528093929190818152602001838380828437600092019190915250505090825250604080516020601f880181900481028201810190925286815291810191908790879081908401838280828437600092019190915250505091525060ca8054839081106114fa57fe5b60009182526020918290208351600c929092020190815582820151600182015560408301516002820155606083015160038201556080830151600482015560a0830151600582015560c0830151600682015560e08301516007820180546001600160a01b03199081166001600160a01b03938416179091556101008501516008840180546101208801519316919093161760ff60a01b1916600160a01b91151591909102179055610140830151805191926115bd92600985019290910190612e9e565b5061016082015180516115da91600a840191602090910190612e9e565b505060cb80546001019055509a9950505050505050505050565b600054610100900460ff168061160d575061160d61284f565b8061161b575060005460ff16155b6116565760405162461bcd60e51b815260040180806020018281038252602e815260200180612f5d602e913960400191505060405180910390fd5b600054610100900460ff16158015611681576000805460ff1961ff0019909116610100171660011790555b611689612855565b611691612907565b6116996129a4565b60c980546001600160a01b0319166001600160a01b03841617905580156116c6576000805461ff00191690555b5050565b60026097541415611722576040805162461bcd60e51b815260206004820152601f60248201527f5265656e7472616e637947756172643a207265656e7472616e742063616c6c00604482015290519081900360640190fd5b600260975560655460ff1615611772576040805162461bcd60e51b815260206004820152601060248201526f14185d5cd8589b194e881c185d5cd95960821b604482015290519081900360640190fd5b600060ca838154811061178157fe5b90600052602060002090600c02019050600081600b016000846001600160a01b03166001600160a01b0316815260200190815260200160002090506117d382600101548360020154846004015461114a565b611814576040805162461bcd60e51b815260206004820152600d60248201526c4e6f7420726566756e64696e6760981b604482015290519081900360640190fd5b6001810154610100900460ff1615611873576040805162461bcd60e51b815260206004820152601c60248201527f49676e69746f722068617320616c726561647920726566756e64656400000000604482015290519081900360640190fd5b60018101805461ff00191661010017905560c95460408051636d8e4fe360e11b815290516001600160a01b039092169163db1c9fc691600480820192602092909190829003018186803b1580156118c957600080fd5b505afa1580156118dd573d6000803e3d6000fd5b505050506040513d60208110156118f357600080fd5b505181546040805163a9059cbb60e01b81526001600160a01b03878116600483015260248201939093529051919092169163a9059cbb9160448083019260209291908290030181600087803b15801561194b57600080fd5b505af115801561195f573d6000803e3d6000fd5b505050506040513d602081101561197557600080fd5b5050600160975550505050565b60008442108061199157508342115b8061199c5750818310155b156119a9575060006119ad565b5060015b949350505050565b60655460ff1615611a00576040805162461bcd60e51b815260206004820152601060248201526f14185d5cd8589b194e881c185d5cd95960821b604482015290519081900360640190fd5b600060ca8381548110611a0f57fe5b600091825260208083206001600160a01b0386168452600b600c909302019182019052604090912060088201549192509060ff600160a01b90910416611a9c576040805162461bcd60e51b815260206004820152601d60248201527f546f6b656e206d7573742068617665206265656e20737061726b65642e000000604482015290519081900360640190fd5b600181015460ff1615611af6576040805162461bcd60e51b815260206004820152601b60248201527f49676e69746f722068617320616c726561647920636c61696d65640000000000604482015290519081900360640190fd5b6000611b0f8260000154846006015485600401546107e9565b905060008111611b66576040805162461bcd60e51b815260206004820181905260248201527f4d757374206861766520736f6d65207265776172647320746f20636c61696d2e604482015290519081900360640190fd5b6001828101805460ff1916909117905560088301546040805163a9059cbb60e01b81526001600160a01b038781166004830152602482018590529151919092169163a9059cbb9160448083019260209291908290030181600087803b158015611bce57600080fd5b505af1158015611be2573d6000803e3d6000fd5b505050506040513d6020811015611bf857600080fd5b50505050505050565b60cb5481565b611c0f61284b565b6033546001600160a01b03908116911614611c71576040805162461bcd60e51b815260206004820181905260248201527f4f776e61626c653a2063616c6c6572206973206e6f7420746865206f776e6572604482015290519081900360640190fd5b6001600160a01b038116611cb65760405162461bcd60e51b8152600401808060200182810382526026815260200180612f376026913960400191505060405180910390fd5b6033546040516001600160a01b038084169216907f8be0079c531659141344cd1fd0a4f28419497f9722a3daafe3b4186f6b6457e090600090a3603380546001600160a01b0319166001600160a01b0392909216919091179055565b600082611d2157506000611d6e565b82820282848281611d2e57fe5b0414611d6b5760405162461bcd60e51b8152600401808060200182810382526021815260200180612f8b6021913960400191505060405180910390fd5b90505b92915050565b6000611d6b83836040518060400160405280601a81526020017f536166654d6174683a206469766973696f6e206279207a65726f000000000000815250612a39565b6001600160a01b0382166000908152600b8401602052604090208054611de2908363ffffffff612adb16565b81556004840154611df9908363ffffffff612adb16565b846004018190555050505050565b600080611e9860c960009054906101000a90046001600160a01b03166001600160a01b031663422ceaf66040518163ffffffff1660e01b815260040160206040518083038186803b158015611e5b57600080fd5b505afa158015611e6f573d6000803e3d6000fd5b505050506040513d6020811015611e8557600080fd5b505160048501549063ffffffff612b3516565b9050611eeb60c960009054906101000a90046001600160a01b03166001600160a01b03166385dc58066040518163ffffffff1660e01b815260040160206040518083038186803b158015611e5b57600080fd5b915060008060c960009054906101000a90046001600160a01b03166001600160a01b031663134593586040518163ffffffff1660e01b815260040160206040518083038186803b158015611f3e57600080fd5b505afa158015611f52573d6000803e3d6000fd5b505050506040513d6020811015611f6857600080fd5b5051600586015460405163745f873760e01b8152604481018290526064810186905260806004820190815260098901805460026000196101006001841615020190911604608484018190526001600160a01b039095169463745f8737949193600a8c01938a9290918291602482019160a401908890801561202a5780601f10611fff5761010080835404028352916020019161202a565b820191906000526020600020905b81548152906001019060200180831161200d57829003601f168201915b505083810382528654600260001961010060018416150201909116048082526020909101908790801561209e5780601f106120735761010080835404028352916020019161209e565b820191906000526020600020905b81548152906001019060200180831161208157829003601f168201915b505096505050505050506040805180830381600087803b1580156120c157600080fd5b505af11580156120d5573d6000803e3d6000fd5b505050506040513d60408110156120eb57600080fd5b50805160209182015160408051600280825260608083018452949750929550929383019080368337505060c95460408051636d8e4fe360e11b815290519394506001600160a01b039091169263db1c9fc692506004808301926020929190829003018186803b15801561215d57600080fd5b505afa158015612171573d6000803e3d6000fd5b505050506040513d602081101561218757600080fd5b50518151829060009061219657fe5b60200260200101906001600160a01b031690816001600160a01b03168152505082816001815181106121c457fe5b6001600160a01b0392831660209182029290920181019190915260c9546040805163524900b560e01b81529051919093169263524900b5926004808301939192829003018186803b15801561221857600080fd5b505afa15801561222c573d6000803e3d6000fd5b505050506040513d602081101561224257600080fd5b50516040516338ed173960e01b8152600481018781526000602483018190523060648401819052426084850181905260a060448601908152875160a487015287516001600160a01b03909716966338ed1739968d968a9594939092909160c40190602087810191028083838b5b838110156122c75781810151838201526020016122af565b505050509050019650505050505050600060405180830381600087803b1580156122f057600080fd5b505af1158015612304573d6000803e3d6000fd5b505050506040513d6000823e601f3d908101601f19168201604052602081101561232d57600080fd5b810190808051604051939291908464010000000082111561234d57600080fd5b90830190602082018581111561236257600080fd5b825186602082028301116401000000008211171561237f57600080fd5b82525081516020918201928201910280838360005b838110156123ac578181015183820152602001612394565b50505050919091016040525050506008880180546001600160a01b039096166001600160a01b0319909616959095179094555050505050919050565b6008810154604080516370a0823160e01b815230600482015290516001600160a01b039092169160009183916370a0823191602480820192602092909190829003018186803b15801561243a57600080fd5b505afa15801561244e573d6000803e3d6000fd5b505050506040513d602081101561246457600080fd5b505160c9546040805163e629adff60e01b815290519293506124eb926001600160a01b039092169163e629adff91600480820192602092909190829003018186803b1580156124b257600080fd5b505afa1580156124c6573d6000803e3d6000fd5b505050506040513d60208110156124dc57600080fd5b5051829063ffffffff612b3516565b8360060181905550505050565b60088301546006840154604080516370a0823160e01b815230600482015290516001600160a01b039093169260009261258c92909185916370a08231916024808301926020929190829003018186803b15801561255457600080fd5b505afa158015612568573d6000803e3d6000fd5b505050506040513d602081101561257e57600080fd5b50519063ffffffff61280916565b9050600060c960009054906101000a90046001600160a01b03166001600160a01b0316637f58b3406040518163ffffffff1660e01b815260040160206040518083038186803b1580156125de57600080fd5b505afa1580156125f2573d6000803e3d6000fd5b505050506040513d602081101561260857600080fd5b50516040805163a9059cbb60e01b81526001600160a01b0380841660048301526024820186905291519293509085169163a9059cbb916044808201926020929091908290030181600087803b15801561266057600080fd5b505af1158015612674573d6000803e3d6000fd5b505050506040513d602081101561268a57600080fd5b505060c95460408051636d8e4fe360e11b815290516001600160a01b039092169163db1c9fc691600480820192602092909190829003018186803b1580156126d157600080fd5b505afa1580156126e5573d6000803e3d6000fd5b505050506040513d60208110156126fb57600080fd5b505160048701546001600160a01b039091169063a9059cbb908390612726908863ffffffff61280916565b6040518363ffffffff1660e01b815260040180836001600160a01b03166001600160a01b0316815260200182815260200192505050602060405180830381600087803b15801561277557600080fd5b505af1158015612789573d6000803e3d6000fd5b505050506040513d602081101561279f57600080fd5b505060408051637903ab2760e11b81526004810187905290516001600160a01b0383169163f207564e91602480830192600092919082900301818387803b1580156127e957600080fd5b505af11580156127fd573d6000803e3d6000fd5b50505050505050505050565b6000611d6b83836040518060400160405280601e81526020017f536166654d6174683a207375627472616374696f6e206f766572666c6f770000815250612b5a565b3390565b303b1590565b600054610100900460ff168061286e575061286e61284f565b8061287c575060005460ff16155b6128b75760405162461bcd60e51b815260040180806020018281038252602e815260200180612f5d602e913960400191505060405180910390fd5b600054610100900460ff161580156128e2576000805460ff1961ff0019909116610100171660011790555b6128ea612bb4565b6128f2612c54565b8015612904576000805461ff00191690555b50565b600054610100900460ff1680612920575061292061284f565b8061292e575060005460ff16155b6129695760405162461bcd60e51b815260040180806020018281038252602e815260200180612f5d602e913960400191505060405180910390fd5b600054610100900460ff16158015612994576000805460ff1961ff0019909116610100171660011790555b61299c612bb4565b6128f2612d4d565b600054610100900460ff16806129bd57506129bd61284f565b806129cb575060005460ff16155b612a065760405162461bcd60e51b815260040180806020018281038252602e815260200180612f5d602e913960400191505060405180910390fd5b600054610100900460ff16158015612a31576000805460ff1961ff0019909116610100171660011790555b6128f2612df8565b60008183612ac55760405162461bcd60e51b81526004018080602001828103825283818151815260200191508051906020019080838360005b83811015612a8a578181015183820152602001612a72565b50505050905090810190601f168015612ab75780820380516001836020036101000a031916815260200191505b509250505060405180910390fd5b506000838581612ad157fe5b0495945050505050565b600082820183811015611d6b576040805162461bcd60e51b815260206004820152601b60248201527f536166654d6174683a206164646974696f6e206f766572666c6f770000000000604482015290519081900360640190fd5b600082612b4457506000611d6e565b611d6b6127106107ff858563ffffffff611d1216565b60008184841115612bac5760405162461bcd60e51b8152602060048201818152835160248401528351909283926044909101919085019080838360008315612a8a578181015183820152602001612a72565b505050900390565b600054610100900460ff1680612bcd5750612bcd61284f565b80612bdb575060005460ff16155b612c165760405162461bcd60e51b815260040180806020018281038252602e815260200180612f5d602e913960400191505060405180910390fd5b600054610100900460ff161580156128f2576000805460ff1961ff0019909116610100171660011790558015612904576000805461ff001916905550565b600054610100900460ff1680612c6d5750612c6d61284f565b80612c7b575060005460ff16155b612cb65760405162461bcd60e51b815260040180806020018281038252602e815260200180612f5d602e913960400191505060405180910390fd5b600054610100900460ff16158015612ce1576000805460ff1961ff0019909116610100171660011790555b6000612ceb61284b565b603380546001600160a01b0319166001600160a01b038316908117909155604051919250906000907f8be0079c531659141344cd1fd0a4f28419497f9722a3daafe3b4186f6b6457e0908290a3508015612904576000805461ff001916905550565b600054610100900460ff1680612d665750612d6661284f565b80612d74575060005460ff16155b612daf5760405162461bcd60e51b815260040180806020018281038252602e815260200180612f5d602e913960400191505060405180910390fd5b600054610100900460ff16158015612dda576000805460ff1961ff0019909116610100171660011790555b6065805460ff191690558015612904576000805461ff001916905550565b600054610100900460ff1680612e115750612e1161284f565b80612e1f575060005460ff16155b612e5a5760405162461bcd60e51b815260040180806020018281038252602e815260200180612f5d602e913960400191505060405180910390fd5b600054610100900460ff16158015612e85576000805460ff1961ff0019909116610100171660011790555b60016097558015612904576000805461ff001916905550565b828054600181600116156101000203166002900490600052602060002090601f016020900481019282601f10612edf57805160ff1916838001178555612f0c565b82800160010185558215612f0c579182015b82811115612f0c578251825591602001919060010190612ef1565b50612f18929150612f1c565b5090565b610fb191905b80821115612f185760008155600101612f2256fe4f776e61626c653a206e6577206f776e657220697320746865207a65726f2061646472657373496e697469616c697a61626c653a20636f6e747261637420697320616c726561647920696e697469616c697a6564536166654d6174683a206d756c7469706c69636174696f6e206f766572666c6f77a2646970667358221220ed18275f9d11074054d7c8d809c1e6f20449874a423d33105d83eae8155618ac64736f6c63430006060033",
  "linkReferences": {},
  "deployedLinkReferences": {}
}