{
  "_format": "hh-sol-artifact-1",
  "contractName": "LiftoffRegistration",
  "sourceName": "contracts/LiftoffRegistration.sol",
  "abi": [
    {
      "anonymous": false,
      "inputs": [
        {
          "indexed": true,
          "internalType": "address",
          "name": "previousOwner",
          "type": "address"
        },
        {
          "indexed": true,
          "internalType": "address",
          "name": "newOwner",
          "type": "address"
        }
      ],
      "name": "OwnershipTransferred",
      "type": "event"
    },
    {
      "inputs": [
        {
          "internalType": "uint256",
          "name": "_minTimeToLaunch",
          "type": "uint256"
        },
        {
          "internalType": "uint256",
          "name": "_maxTimeToLaunch",
          "type": "uint256"
        },
        {
          "internalType": "uint256",
          "name": "_softCapTimer",
          "type": "uint256"
        },
        {
          "internalType": "contract ILiftoffEngine",
          "name": "_liftoffEngine",
          "type": "address"
        }
      ],
      "name": "initialize",
      "outputs": [],
      "stateMutability": "nonpayable",
      "type": "function"
    },
    {
      "inputs": [],
      "name": "liftoffEngine",
      "outputs": [
        {
          "internalType": "contract ILiftoffEngine",
          "name": "",
          "type": "address"
        }
      ],
      "stateMutability": "view",
      "type": "function"
    },
    {
      "inputs": [],
      "name": "maxLaunchTime",
      "outputs": [
        {
          "internalType": "uint256",
          "name": "",
          "type": "uint256"
        }
      ],
      "stateMutability": "view",
      "type": "function"
    },
    {
      "inputs": [],
      "name": "minLaunchTime",
      "outputs": [
        {
          "internalType": "uint256",
          "name": "",
          "type": "uint256"
        }
      ],
      "stateMutability": "view",
      "type": "function"
    },
    {
      "inputs": [],
      "name": "owner",
      "outputs": [
        {
          "internalType": "address",
          "name": "",
          "type": "address"
        }
      ],
      "stateMutability": "view",
      "type": "function"
    },
    {
      "inputs": [
        {
          "internalType": "string",
          "name": "ipfsHash",
          "type": "string"
        },
        {
          "internalType": "uint256",
          "name": "launchTime",
          "type": "uint256"
        },
        {
          "internalType": "uint256",
          "name": "softCap",
          "type": "uint256"
        },
        {
          "internalType": "uint256",
          "name": "hardCap",
          "type": "uint256"
        },
        {
          "internalType": "uint256",
          "name": "totalSupplyWad",
          "type": "uint256"
        },
        {
          "internalType": "string",
          "name": "name",
          "type": "string"
        },
        {
          "internalType": "string",
          "name": "symbol",
          "type": "string"
        }
      ],
      "name": "registerProject",
      "outputs": [],
      "stateMutability": "nonpayable",
      "type": "function"
    },
    {
      "inputs": [],
      "name": "renounceOwnership",
      "outputs": [],
      "stateMutability": "nonpayable",
      "type": "function"
    },
    {
      "inputs": [
        {
          "internalType": "uint256",
          "name": "_min",
          "type": "uint256"
        },
        {
          "internalType": "uint256",
          "name": "_max",
          "type": "uint256"
        }
      ],
      "name": "setLaunchTimeWindow",
      "outputs": [],
      "stateMutability": "nonpayable",
      "type": "function"
    },
    {
      "inputs": [
        {
          "internalType": "contract ILiftoffEngine",
          "name": "_liftoffEngine",
          "type": "address"
        }
      ],
      "name": "setLiftoffEngine",
      "outputs": [],
      "stateMutability": "nonpayable",
      "type": "function"
    },
    {
      "inputs": [
        {
          "internalType": "uint256",
          "name": "_seconds",
          "type": "uint256"
        }
      ],
      "name": "setSoftCapTimer",
      "outputs": [],
      "stateMutability": "nonpayable",
      "type": "function"
    },
    {
      "inputs": [],
      "name": "softCapTimer",
      "outputs": [
        {
          "internalType": "uint256",
          "name": "",
          "type": "uint256"
        }
      ],
      "stateMutability": "view",
      "type": "function"
    },
    {
      "inputs": [
        {
          "internalType": "address",
          "name": "newOwner",
          "type": "address"
        }
      ],
      "name": "transferOwnership",
      "outputs": [],
      "stateMutability": "nonpayable",
      "type": "function"
    }
  ],
  "bytecode": "0x608060405234801561001057600080fd5b50610d11806100206000396000f3fe608060405234801561001057600080fd5b50600436106100b45760003560e01c80638fca5009116100715780638fca5009146101495780639b5032de14610151578063ab79bfe61461016e578063d64e102214610191578063d6e19b5e146101b7578063f2fde38b146102e1576100b4565b80631f8d519d146100b957806351154a8b146100f3578063540234ba1461010d578063715018a614610131578063767b9229146101395780638da5cb5b14610141575b600080fd5b6100f1600480360360808110156100cf57600080fd5b50803590602081013590604081013590606001356001600160a01b0316610307565b005b6100fb6103d1565b60408051918252519081900360200190f35b6101156103d7565b604080516001600160a01b039092168252519081900360200190f35b6100f16103e6565b6100fb610488565b61011561048e565b6100fb61049e565b6100f16004803603602081101561016757600080fd5b50356104a4565b6100f16004803603604081101561018457600080fd5b5080359060200135610501565b6100f1600480360360208110156101a757600080fd5b50356001600160a01b0316610564565b6100f1600480360360e08110156101cd57600080fd5b8101906020810181356401000000008111156101e857600080fd5b8201836020820111156101fa57600080fd5b8035906020019184600183028401116401000000008311171561021c57600080fd5b9193909282359260208101359260408201359260608301359260a08101906080013564010000000081111561025057600080fd5b82018360208201111561026257600080fd5b8035906020019184600183028401116401000000008311171561028457600080fd5b9193909290916020810190356401000000008111156102a257600080fd5b8201836020820111156102b457600080fd5b803590602001918460018302840111640100000000831117156102d657600080fd5b5090925090506105de565b6100f1600480360360208110156102f757600080fd5b50356001600160a01b0316610805565b600054610100900460ff168061032057506103206108fe565b8061032e575060005460ff16155b6103695760405162461bcd60e51b815260040180806020018281038252602e815260200180610c3b602e913960400191505060405180910390fd5b600054610100900460ff16158015610394576000805460ff1961ff0019909116610100171660011790555b61039c610904565b6103a68585610501565b6103af82610564565b6103b8836104a4565b80156103ca576000805461ff00191690555b5050505050565b60685481565b6065546001600160a01b031681565b6103ee6109b6565b6033546001600160a01b0390811691161461043e576040805162461bcd60e51b81526020600482018190526024820152600080516020610c92833981519152604482015290519081900360640190fd5b6033546040516000916001600160a01b0316907f8be0079c531659141344cd1fd0a4f28419497f9722a3daafe3b4186f6b6457e0908390a3603380546001600160a01b0319169055565b60675481565b6033546001600160a01b03165b90565b60665481565b6104ac6109b6565b6033546001600160a01b039081169116146104fc576040805162461bcd60e51b81526020600482018190526024820152600080516020610c92833981519152604482015290519081900360640190fd5b606855565b6105096109b6565b6033546001600160a01b03908116911614610559576040805162461bcd60e51b81526020600482018190526024820152600080516020610c92833981519152604482015290519081900360640190fd5b606691909155606755565b61056c6109b6565b6033546001600160a01b039081169116146105bc576040805162461bcd60e51b81526020600482018190526024820152600080516020610c92833981519152604482015290519081900360640190fd5b606580546001600160a01b0319166001600160a01b0392909216919091179055565b60665442018810156106215760405162461bcd60e51b815260040180806020018281038252602a815260200180610cb2602a913960400191505060405180910390fd5b60675442018811156106645760405162461bcd60e51b8152600401808060200182810382526029815260200180610c126029913960400191505060405180910390fd5b600685106106a35760405162461bcd60e51b8152600401808060200182810382526029815260200180610c696029913960400191505060405180910390fd5b6000606560009054906101000a90046001600160a01b03166001600160a01b031663ac2bd78d8a6068548c018b8b8b8b8b8b8b336040518b63ffffffff1660e01b8152600401808b81526020018a81526020018981526020018881526020018781526020018060200180602001846001600160a01b03166001600160a01b031681526020018381038352888882818152602001925080828437600083820152601f01601f191690910184810383528681526020019050868680828437600081840152601f19601f8201169050808301925050509c50505050505050505050505050602060405180830381600087803b15801561079e57600080fd5b505af11580156107b2573d6000803e3d6000fd5b505050506040513d60208110156107c857600080fd5b5051606980549192508c918c9190849081106107e057fe5b9060005260206000200191906107f7929190610b53565b505050505050505050505050565b61080d6109b6565b6033546001600160a01b0390811691161461085d576040805162461bcd60e51b81526020600482018190526024820152600080516020610c92833981519152604482015290519081900360640190fd5b6001600160a01b0381166108a25760405162461bcd60e51b8152600401808060200182810382526026815260200180610bec6026913960400191505060405180910390fd5b6033546040516001600160a01b038084169216907f8be0079c531659141344cd1fd0a4f28419497f9722a3daafe3b4186f6b6457e090600090a3603380546001600160a01b0319166001600160a01b0392909216919091179055565b303b1590565b600054610100900460ff168061091d575061091d6108fe565b8061092b575060005460ff16155b6109665760405162461bcd60e51b815260040180806020018281038252602e815260200180610c3b602e913960400191505060405180910390fd5b600054610100900460ff16158015610991576000805460ff1961ff0019909116610100171660011790555b6109996109ba565b6109a1610a5a565b80156109b3576000805461ff00191690555b50565b3390565b600054610100900460ff16806109d357506109d36108fe565b806109e1575060005460ff16155b610a1c5760405162461bcd60e51b815260040180806020018281038252602e815260200180610c3b602e913960400191505060405180910390fd5b600054610100900460ff161580156109a1576000805460ff1961ff00199091166101001716600117905580156109b3576000805461ff001916905550565b600054610100900460ff1680610a735750610a736108fe565b80610a81575060005460ff16155b610abc5760405162461bcd60e51b815260040180806020018281038252602e815260200180610c3b602e913960400191505060405180910390fd5b600054610100900460ff16158015610ae7576000805460ff1961ff0019909116610100171660011790555b6000610af16109b6565b603380546001600160a01b0319166001600160a01b038316908117909155604051919250906000907f8be0079c531659141344cd1fd0a4f28419497f9722a3daafe3b4186f6b6457e0908290a35080156109b3576000805461ff001916905550565b828054600181600116156101000203166002900490600052602060002090601f016020900481019282601f10610b945782800160ff19823516178555610bc1565b82800160010185558215610bc1579182015b82811115610bc1578235825591602001919060010190610ba6565b50610bcd929150610bd1565b5090565b61049b91905b80821115610bcd5760008155600101610bd756fe4f776e61626c653a206e6577206f776e657220697320746865207a65726f20616464726573734e6f7420616c6c6f77656420746f206c61756e6368206166746572206d61784c61756e636854696d65496e697469616c697a61626c653a20636f6e747261637420697320616c726561647920696e697469616c697a656443616e6e6f74206c61756e6368206d6f7265207468616e2031207472696c6c696f6e20746f6b656e734f776e61626c653a2063616c6c6572206973206e6f7420746865206f776e65724e6f7420616c6c6f77656420746f206c61756e6368206265666f7265206d696e4c61756e636854696d65a26469706673582212201c8eca7973d7719fce317c165dbafa3e353531a4fc0312be6e473c04fd8cc0bd64736f6c63430006060033",
  "linkReferences": {},
  "deployedLinkReferences": {}
}