{
  "_format": "hh-sol-artifact-1",
  "contractName": "LiftoffSettings",
  "sourceName": "contracts/LiftoffSettings.sol",
  "abi": [
    {
      "anonymous": false,
      "inputs": [
        {
          "indexed": true,
          "internalType": "address",
          "name": "previousOwner",
          "type": "address"
        },
        {
          "indexed": true,
          "internalType": "address",
          "name": "newOwner",
          "type": "address"
        }
      ],
      "name": "OwnershipTransferred",
      "type": "event"
    },
    {
      "inputs": [],
      "name": "getBaseFeeBP",
      "outputs": [
        {
          "internalType": "uint256",
          "name": "",
          "type": "uint256"
        }
      ],
      "stateMutability": "view",
      "type": "function"
    },
    {
      "inputs": [],
      "name": "getEthBuyBP",
      "outputs": [
        {
          "internalType": "uint256",
          "name": "",
          "type": "uint256"
        }
      ],
      "stateMutability": "view",
      "type": "function"
    },
    {
      "inputs": [],
      "name": "getEthXLockBP",
      "outputs": [
        {
          "internalType": "uint256",
          "name": "",
          "type": "uint256"
        }
      ],
      "stateMutability": "view",
      "type": "function"
    },
    {
      "inputs": [],
      "name": "getInsurancePeriod",
      "outputs": [
        {
          "internalType": "uint256",
          "name": "",
          "type": "uint256"
        }
      ],
      "stateMutability": "view",
      "type": "function"
    },
    {
      "inputs": [],
      "name": "getLidPoolBP",
      "outputs": [
        {
          "internalType": "uint256",
          "name": "",
          "type": "uint256"
        }
      ],
      "stateMutability": "view",
      "type": "function"
    },
    {
      "inputs": [],
      "name": "getLidPoolManager",
      "outputs": [
        {
          "internalType": "address",
          "name": "",
          "type": "address"
        }
      ],
      "stateMutability": "view",
      "type": "function"
    },
    {
      "inputs": [],
      "name": "getLidTreasury",
      "outputs": [
        {
          "internalType": "address",
          "name": "",
          "type": "address"
        }
      ],
      "stateMutability": "view",
      "type": "function"
    },
    {
      "inputs": [],
      "name": "getLiftoffEngine",
      "outputs": [
        {
          "internalType": "address",
          "name": "",
          "type": "address"
        }
      ],
      "stateMutability": "view",
      "type": "function"
    },
    {
      "inputs": [],
      "name": "getLiftoffInsurance",
      "outputs": [
        {
          "internalType": "address",
          "name": "",
          "type": "address"
        }
      ],
      "stateMutability": "view",
      "type": "function"
    },
    {
      "inputs": [],
      "name": "getLiftoffLauncher",
      "outputs": [
        {
          "internalType": "address",
          "name": "",
          "type": "address"
        }
      ],
      "stateMutability": "view",
      "type": "function"
    },
    {
      "inputs": [],
      "name": "getMainFeeBP",
      "outputs": [
        {
          "internalType": "uint256",
          "name": "",
          "type": "uint256"
        }
      ],
      "stateMutability": "view",
      "type": "function"
    },
    {
      "inputs": [],
      "name": "getProjectDevBP",
      "outputs": [
        {
          "internalType": "uint256",
          "name": "",
          "type": "uint256"
        }
      ],
      "stateMutability": "view",
      "type": "function"
    },
    {
      "inputs": [],
      "name": "getTokenUserBP",
      "outputs": [
        {
          "internalType": "uint256",
          "name": "",
          "type": "uint256"
        }
      ],
      "stateMutability": "view",
      "type": "function"
    },
    {
      "inputs": [],
      "name": "getUniswapRouter",
      "outputs": [
        {
          "internalType": "address",
          "name": "",
          "type": "address"
        }
      ],
      "stateMutability": "view",
      "type": "function"
    },
    {
      "inputs": [],
      "name": "getXEth",
      "outputs": [
        {
          "internalType": "address",
          "name": "",
          "type": "address"
        }
      ],
      "stateMutability": "view",
      "type": "function"
    },
    {
      "inputs": [],
      "name": "getXLocker",
      "outputs": [
        {
          "internalType": "address",
          "name": "",
          "type": "address"
        }
      ],
      "stateMutability": "view",
      "type": "function"
    },
    {
      "inputs": [],
      "name": "initialize",
      "outputs": [],
      "stateMutability": "nonpayable",
      "type": "function"
    },
    {
      "inputs": [],
      "name": "owner",
      "outputs": [
        {
          "internalType": "address",
          "name": "",
          "type": "address"
        }
      ],
      "stateMutability": "view",
      "type": "function"
    },
    {
      "inputs": [],
      "name": "renounceOwnership",
      "outputs": [],
      "stateMutability": "nonpayable",
      "type": "function"
    },
    {
      "inputs": [
        {
          "internalType": "uint256",
          "name": "_val",
          "type": "uint256"
        }
      ],
      "name": "setEthXLockBP",
      "outputs": [],
      "stateMutability": "nonpayable",
      "type": "function"
    },
    {
      "inputs": [
        {
          "internalType": "uint256",
          "name": "_val",
          "type": "uint256"
        }
      ],
      "name": "setInsurancePeriod",
      "outputs": [],
      "stateMutability": "nonpayable",
      "type": "function"
    },
    {
      "inputs": [
        {
          "internalType": "address",
          "name": "_val",
          "type": "address"
        }
      ],
      "name": "setLidPoolManager",
      "outputs": [],
      "stateMutability": "nonpayable",
      "type": "function"
    },
    {
      "inputs": [
        {
          "internalType": "address",
          "name": "_val",
          "type": "address"
        }
      ],
      "name": "setLidTreasury",
      "outputs": [],
      "stateMutability": "nonpayable",
      "type": "function"
    },
    {
      "inputs": [
        {
          "internalType": "address",
          "name": "_val",
          "type": "address"
        }
      ],
      "name": "setLiftoffEngine",
      "outputs": [],
      "stateMutability": "nonpayable",
      "type": "function"
    },
    {
      "inputs": [
        {
          "internalType": "address",
          "name": "_val",
          "type": "address"
        }
      ],
      "name": "setLiftoffInsurance",
      "outputs": [],
      "stateMutability": "nonpayable",
      "type": "function"
    },
    {
      "inputs": [
        {
          "internalType": "address",
          "name": "_val",
          "type": "address"
        }
      ],
      "name": "setLiftoffLauncher",
      "outputs": [],
      "stateMutability": "nonpayable",
      "type": "function"
    },
    {
      "inputs": [
        {
          "internalType": "uint256",
          "name": "_val",
          "type": "uint256"
        }
      ],
      "name": "setTokenUserBP",
      "outputs": [],
      "stateMutability": "nonpayable",
      "type": "function"
    },
    {
      "inputs": [
        {
          "internalType": "address",
          "name": "_val",
          "type": "address"
        }
      ],
      "name": "setUniswapRouter",
      "outputs": [],
      "stateMutability": "nonpayable",
      "type": "function"
    },
    {
      "inputs": [
        {
          "internalType": "address",
          "name": "_val",
          "type": "address"
        }
      ],
      "name": "setXEth",
      "outputs": [],
      "stateMutability": "nonpayable",
      "type": "function"
    },
    {
      "inputs": [
        {
          "internalType": "address",
          "name": "_val",
          "type": "address"
        }
      ],
      "name": "setXLocker",
      "outputs": [],
      "stateMutability": "nonpayable",
      "type": "function"
    },
    {
      "inputs": [
        {
          "internalType": "uint256",
          "name": "_baseFeeBP",
          "type": "uint256"
        },
        {
          "internalType": "uint256",
          "name": "_ethBuyBP",
          "type": "uint256"
        },
        {
          "internalType": "uint256",
          "name": "_projectDevBP",
          "type": "uint256"
        },
        {
          "internalType": "uint256",
          "name": "_mainFeeBP",
          "type": "uint256"
        },
        {
          "internalType": "uint256",
          "name": "_lidPoolBP",
          "type": "uint256"
        }
      ],
      "name": "setXethBP",
      "outputs": [],
      "stateMutability": "nonpayable",
      "type": "function"
    },
    {
      "inputs": [
        {
          "internalType": "address",
          "name": "newOwner",
          "type": "address"
        }
      ],
      "name": "transferOwnership",
      "outputs": [],
      "stateMutability": "nonpayable",
      "type": "function"
    }
  ],
  "bytecode": "0x608060405234801561001057600080fd5b50610fe1806100206000396000f3fe608060405234801561001057600080fd5b50600436106101f05760003560e01c80637c00f5881161010f578063bea9849e116100a2578063ea77536c11610071578063ea77536c1461042e578063f2fde38b14610454578063fb9fd0541461047a578063ff975e2314610497576101f0565b8063bea9849e146103d2578063d64e1022146103f8578063db1c9fc61461041e578063e629adff14610426576101f0565b806385dc5806116100de57806385dc5806146103855780638da5cb5b1461038d578063bb45a33514610395578063bc08f5d2146103ca576101f0565b80637c00f588146103655780637f58b3401461036d5780638129fc1c14610375578063817c620d1461037d576101f0565b806329cd941b116101875780636c5ccfb0116101565780636c5ccfb014610327578063715018a61461032f578063785fbfe2146103375780637bc516381461033f576101f0565b806329cd941b146102e9578063422ceaf61461030f578063524900b5146103175780635308f9011461031f576101f0565b806313459358116101c3578063134593581461027d57806315d606c0146102a15780631a29cf63146102bb5780631b019bb3146102e1576101f0565b8063032edcb6146101f5578063093d551c146102145780630ad7ef2e1461023a57806310fe8e7114610260575b600080fd5b6102126004803603602081101561020b57600080fd5b503561049f565b005b6102126004803603602081101561022a57600080fd5b50356001600160a01b03166104fc565b6102126004803603602081101561025057600080fd5b50356001600160a01b0316610576565b6102126004803603602081101561027657600080fd5b50356105f0565b61028561064d565b604080516001600160a01b039092168252519081900360200190f35b6102a961065c565b60408051918252519081900360200190f35b610212600480360360208110156102d157600080fd5b50356001600160a01b0316610662565b6102a96106dc565b610212600480360360208110156102ff57600080fd5b50356001600160a01b03166106e2565b6102a961075c565b610285610762565b610285610771565b610285610780565b61021261078f565b610285610831565b6102126004803603602081101561035557600080fd5b50356001600160a01b0316610840565b6102a96108ba565b6102856108c0565b6102126108cf565b6102a9610979565b6102a961097f565b610285610985565b610212600480360360a08110156103ab57600080fd5b5080359060208101359060408101359060608101359060800135610994565b6102a9610a09565b610212600480360360208110156103e857600080fd5b50356001600160a01b0316610a0f565b6102126004803603602081101561040e57600080fd5b50356001600160a01b0316610a89565b610285610b03565b6102a9610b12565b6102126004803603602081101561044457600080fd5b50356001600160a01b0316610b18565b6102126004803603602081101561046a57600080fd5b50356001600160a01b0316610b92565b6102126004803603602081101561049057600080fd5b5035610c8b565b610285610ce8565b6104a7610cf7565b6033546001600160a01b039081169116146104f7576040805162461bcd60e51b81526020600482018190526024820152600080516020610f8c833981519152604482015290519081900360640190fd5b606555565b610504610cf7565b6033546001600160a01b03908116911614610554576040805162461bcd60e51b81526020600482018190526024820152600080516020610f8c833981519152604482015290519081900360640190fd5b606e80546001600160a01b0319166001600160a01b0392909216919091179055565b61057e610cf7565b6033546001600160a01b039081169116146105ce576040805162461bcd60e51b81526020600482018190526024820152600080516020610f8c833981519152604482015290519081900360640190fd5b606d80546001600160a01b0319166001600160a01b0392909216919091179055565b6105f8610cf7565b6033546001600160a01b03908116911614610648576040805162461bcd60e51b81526020600482018190526024820152600080516020610f8c833981519152604482015290519081900360640190fd5b606755565b6071546001600160a01b031690565b606c5490565b61066a610cf7565b6033546001600160a01b039081169116146106ba576040805162461bcd60e51b81526020600482018190526024820152600080516020610f8c833981519152604482015290519081900360640190fd5b607380546001600160a01b0319166001600160a01b0392909216919091179055565b60695490565b6106ea610cf7565b6033546001600160a01b0390811691161461073a576040805162461bcd60e51b81526020600482018190526024820152600080516020610f8c833981519152604482015290519081900360640190fd5b607080546001600160a01b0319166001600160a01b0392909216919091179055565b60655490565b6072546001600160a01b031690565b6074546001600160a01b031690565b606f546001600160a01b031690565b610797610cf7565b6033546001600160a01b039081169116146107e7576040805162461bcd60e51b81526020600482018190526024820152600080516020610f8c833981519152604482015290519081900360640190fd5b6033546040516000916001600160a01b0316907f8be0079c531659141344cd1fd0a4f28419497f9722a3daafe3b4186f6b6457e0908390a3603380546001600160a01b0319169055565b606e546001600160a01b031690565b610848610cf7565b6033546001600160a01b03908116911614610898576040805162461bcd60e51b81526020600482018190526024820152600080516020610f8c833981519152604482015290519081900360640190fd5b607480546001600160a01b0319166001600160a01b0392909216919091179055565b606a5490565b606d546001600160a01b031690565b600054610100900460ff16806108e857506108e8610cfb565b806108f6575060005460ff16155b6109315760405162461bcd60e51b815260040180806020018281038252602e815260200180610f5e602e913960400191505060405180910390fd5b600054610100900460ff1615801561095c576000805460ff1961ff0019909116610100171660011790555b610964610d01565b8015610976576000805461ff00191690555b50565b60675490565b60685490565b6033546001600160a01b031690565b808284868801010101612710146109f2576040805162461bcd60e51b815260206004820181905260248201527f4d75737420616c6c6f636174652031303025206f662065746820726169736564604482015290519081900360640190fd5b606994909455606892909255606a55606b55606c55565b606b5490565b610a17610cf7565b6033546001600160a01b03908116911614610a67576040805162461bcd60e51b81526020600482018190526024820152600080516020610f8c833981519152604482015290519081900360640190fd5b607280546001600160a01b0319166001600160a01b0392909216919091179055565b610a91610cf7565b6033546001600160a01b03908116911614610ae1576040805162461bcd60e51b81526020600482018190526024820152600080516020610f8c833981519152604482015290519081900360640190fd5b606f80546001600160a01b0319166001600160a01b0392909216919091179055565b6070546001600160a01b031690565b60665490565b610b20610cf7565b6033546001600160a01b03908116911614610b70576040805162461bcd60e51b81526020600482018190526024820152600080516020610f8c833981519152604482015290519081900360640190fd5b607180546001600160a01b0319166001600160a01b0392909216919091179055565b610b9a610cf7565b6033546001600160a01b03908116911614610bea576040805162461bcd60e51b81526020600482018190526024820152600080516020610f8c833981519152604482015290519081900360640190fd5b6001600160a01b038116610c2f5760405162461bcd60e51b8152600401808060200182810382526026815260200180610f386026913960400191505060405180910390fd5b6033546040516001600160a01b038084169216907f8be0079c531659141344cd1fd0a4f28419497f9722a3daafe3b4186f6b6457e090600090a3603380546001600160a01b0319166001600160a01b0392909216919091179055565b610c93610cf7565b6033546001600160a01b03908116911614610ce3576040805162461bcd60e51b81526020600482018190526024820152600080516020610f8c833981519152604482015290519081900360640190fd5b606655565b6073546001600160a01b031690565b3390565b303b1590565b600054610100900460ff1680610d1a5750610d1a610cfb565b80610d28575060005460ff16155b610d635760405162461bcd60e51b815260040180806020018281038252602e815260200180610f5e602e913960400191505060405180910390fd5b600054610100900460ff16158015610d8e576000805460ff1961ff0019909116610100171660011790555b610d96610d9e565b610964610e3e565b600054610100900460ff1680610db75750610db7610cfb565b80610dc5575060005460ff16155b610e005760405162461bcd60e51b815260040180806020018281038252602e815260200180610f5e602e913960400191505060405180910390fd5b600054610100900460ff16158015610964576000805460ff1961ff0019909116610100171660011790558015610976576000805461ff001916905550565b600054610100900460ff1680610e575750610e57610cfb565b80610e65575060005460ff16155b610ea05760405162461bcd60e51b815260040180806020018281038252602e815260200180610f5e602e913960400191505060405180910390fd5b600054610100900460ff16158015610ecb576000805460ff1961ff0019909116610100171660011790555b6000610ed5610cf7565b603380546001600160a01b0319166001600160a01b038316908117909155604051919250906000907f8be0079c531659141344cd1fd0a4f28419497f9722a3daafe3b4186f6b6457e0908290a3508015610976576000805461ff00191690555056fe4f776e61626c653a206e6577206f776e657220697320746865207a65726f2061646472657373496e697469616c697a61626c653a20636f6e747261637420697320616c726561647920696e697469616c697a65644f776e61626c653a2063616c6c6572206973206e6f7420746865206f776e6572a264697066735822122002128be1a292ca031f84f9e5e5219c22aaa70e53e58a5f4e28ce433b2246e6a964736f6c63430006060033",
  "linkReferences": {},
  "deployedLinkReferences": {}
}