{
  "_format": "hh-sol-artifact-1",
  "contractName": "LiftoffSettings",
  "sourceName": "contracts/LiftoffSettings.sol",
  "abi": [
    {
      "anonymous": false,
      "inputs": [
        {
          "indexed": true,
          "internalType": "address",
          "name": "previousOwner",
          "type": "address"
        },
        {
          "indexed": true,
          "internalType": "address",
          "name": "newOwner",
          "type": "address"
        }
      ],
      "name": "OwnershipTransferred",
      "type": "event"
    },
    {
      "inputs": [],
      "name": "getBaseFeeBP",
      "outputs": [
        {
          "internalType": "uint256",
          "name": "",
          "type": "uint256"
        }
      ],
      "stateMutability": "view",
      "type": "function"
    },
    {
      "inputs": [],
      "name": "getEthBuyBP",
      "outputs": [
        {
          "internalType": "uint256",
          "name": "",
          "type": "uint256"
        }
      ],
      "stateMutability": "view",
      "type": "function"
    },
    {
      "inputs": [],
      "name": "getEthXLockBP",
      "outputs": [
        {
          "internalType": "uint256",
          "name": "",
          "type": "uint256"
        }
      ],
      "stateMutability": "view",
      "type": "function"
    },
    {
      "inputs": [],
      "name": "getIgnitePeriod",
      "outputs": [
        {
          "internalType": "uint256",
          "name": "",
          "type": "uint256"
        }
      ],
      "stateMutability": "view",
      "type": "function"
    },
    {
      "inputs": [],
      "name": "getInsurancePeriod",
      "outputs": [
        {
          "internalType": "uint256",
          "name": "",
          "type": "uint256"
        }
      ],
      "stateMutability": "view",
      "type": "function"
    },
    {
      "inputs": [],
      "name": "getLidPoolBP",
      "outputs": [
        {
          "internalType": "uint256",
          "name": "",
          "type": "uint256"
        }
      ],
      "stateMutability": "view",
      "type": "function"
    },
    {
      "inputs": [],
      "name": "getLidPoolManager",
      "outputs": [
        {
          "internalType": "address",
          "name": "",
          "type": "address"
        }
      ],
      "stateMutability": "view",
      "type": "function"
    },
    {
      "inputs": [],
      "name": "getLidTreasury",
      "outputs": [
        {
          "internalType": "address",
          "name": "",
          "type": "address"
        }
      ],
      "stateMutability": "view",
      "type": "function"
    },
    {
      "inputs": [],
      "name": "getLiftoffEngine",
      "outputs": [
        {
          "internalType": "address",
          "name": "",
          "type": "address"
        }
      ],
      "stateMutability": "view",
      "type": "function"
    },
    {
      "inputs": [],
      "name": "getLiftoffInsurance",
      "outputs": [
        {
          "internalType": "address",
          "name": "",
          "type": "address"
        }
      ],
      "stateMutability": "view",
      "type": "function"
    },
    {
      "inputs": [],
      "name": "getLiftoffLauncher",
      "outputs": [
        {
          "internalType": "address",
          "name": "",
          "type": "address"
        }
      ],
      "stateMutability": "view",
      "type": "function"
    },
    {
      "inputs": [],
      "name": "getMainFeeBP",
      "outputs": [
        {
          "internalType": "uint256",
          "name": "",
          "type": "uint256"
        }
      ],
      "stateMutability": "view",
      "type": "function"
    },
    {
      "inputs": [],
      "name": "getProjectDevBP",
      "outputs": [
        {
          "internalType": "uint256",
          "name": "",
          "type": "uint256"
        }
      ],
      "stateMutability": "view",
      "type": "function"
    },
    {
      "inputs": [],
      "name": "getTokenUserBP",
      "outputs": [
        {
          "internalType": "uint256",
          "name": "",
          "type": "uint256"
        }
      ],
      "stateMutability": "view",
      "type": "function"
    },
    {
      "inputs": [],
      "name": "getUniswapRouter",
      "outputs": [
        {
          "internalType": "address",
          "name": "",
          "type": "address"
        }
      ],
      "stateMutability": "view",
      "type": "function"
    },
    {
      "inputs": [],
      "name": "getXEth",
      "outputs": [
        {
          "internalType": "address",
          "name": "",
          "type": "address"
        }
      ],
      "stateMutability": "view",
      "type": "function"
    },
    {
      "inputs": [],
      "name": "getXLocker",
      "outputs": [
        {
          "internalType": "address",
          "name": "",
          "type": "address"
        }
      ],
      "stateMutability": "view",
      "type": "function"
    },
    {
      "inputs": [
        {
          "internalType": "uint256",
          "name": "_ethXLockBP",
          "type": "uint256"
        },
        {
          "internalType": "uint256",
          "name": "_ethBuyBP",
          "type": "uint256"
        },
        {
          "internalType": "uint256",
          "name": "_tokenUserBP",
          "type": "uint256"
        }
      ],
      "name": "initialize",
      "outputs": [],
      "stateMutability": "nonpayable",
      "type": "function"
    },
    {
      "inputs": [],
      "name": "owner",
      "outputs": [
        {
          "internalType": "address",
          "name": "",
          "type": "address"
        }
      ],
      "stateMutability": "view",
      "type": "function"
    },
    {
      "inputs": [],
      "name": "renounceOwnership",
      "outputs": [],
      "stateMutability": "nonpayable",
      "type": "function"
    },
    {
      "inputs": [
        {
          "internalType": "uint256",
          "name": "_val",
          "type": "uint256"
        }
      ],
      "name": "setEthXLockBP",
      "outputs": [],
      "stateMutability": "nonpayable",
      "type": "function"
    },
    {
      "inputs": [
        {
          "internalType": "uint256",
          "name": "_val",
          "type": "uint256"
        }
      ],
      "name": "setIgnitePeriod",
      "outputs": [],
      "stateMutability": "nonpayable",
      "type": "function"
    },
    {
      "inputs": [
        {
          "internalType": "uint256",
          "name": "_val",
          "type": "uint256"
        }
      ],
      "name": "setInsurancePeriod",
      "outputs": [],
      "stateMutability": "nonpayable",
      "type": "function"
    },
    {
      "inputs": [
        {
          "internalType": "address",
          "name": "_val",
          "type": "address"
        }
      ],
      "name": "setLidPoolManager",
      "outputs": [],
      "stateMutability": "nonpayable",
      "type": "function"
    },
    {
      "inputs": [
        {
          "internalType": "address",
          "name": "_val",
          "type": "address"
        }
      ],
      "name": "setLidTreasury",
      "outputs": [],
      "stateMutability": "nonpayable",
      "type": "function"
    },
    {
      "inputs": [
        {
          "internalType": "address",
          "name": "_val",
          "type": "address"
        }
      ],
      "name": "setLiftoffEngine",
      "outputs": [],
      "stateMutability": "nonpayable",
      "type": "function"
    },
    {
      "inputs": [
        {
          "internalType": "address",
          "name": "_val",
          "type": "address"
        }
      ],
      "name": "setLiftoffInsurance",
      "outputs": [],
      "stateMutability": "nonpayable",
      "type": "function"
    },
    {
      "inputs": [
        {
          "internalType": "address",
          "name": "_val",
          "type": "address"
        }
      ],
      "name": "setLiftoffLauncher",
      "outputs": [],
      "stateMutability": "nonpayable",
      "type": "function"
    },
    {
      "inputs": [
        {
          "internalType": "uint256",
          "name": "_val",
          "type": "uint256"
        }
      ],
      "name": "setTokenUserBP",
      "outputs": [],
      "stateMutability": "nonpayable",
      "type": "function"
    },
    {
      "inputs": [
        {
          "internalType": "address",
          "name": "_val",
          "type": "address"
        }
      ],
      "name": "setUniswapRouter",
      "outputs": [],
      "stateMutability": "nonpayable",
      "type": "function"
    },
    {
      "inputs": [
        {
          "internalType": "address",
          "name": "_val",
          "type": "address"
        }
      ],
      "name": "setXEth",
      "outputs": [],
      "stateMutability": "nonpayable",
      "type": "function"
    },
    {
      "inputs": [
        {
          "internalType": "address",
          "name": "_val",
          "type": "address"
        }
      ],
      "name": "setXLocker",
      "outputs": [],
      "stateMutability": "nonpayable",
      "type": "function"
    },
    {
      "inputs": [
        {
          "internalType": "uint256",
          "name": "_baseFeeBP",
          "type": "uint256"
        },
        {
          "internalType": "uint256",
          "name": "_ethBuyBP",
          "type": "uint256"
        },
        {
          "internalType": "uint256",
          "name": "_projectDevBP",
          "type": "uint256"
        },
        {
          "internalType": "uint256",
          "name": "_mainFeeBP",
          "type": "uint256"
        },
        {
          "internalType": "uint256",
          "name": "_lidPoolBP",
          "type": "uint256"
        }
      ],
      "name": "setXethBP",
      "outputs": [],
      "stateMutability": "nonpayable",
      "type": "function"
    },
    {
      "inputs": [
        {
          "internalType": "address",
          "name": "newOwner",
          "type": "address"
        }
      ],
      "name": "transferOwnership",
      "outputs": [],
      "stateMutability": "nonpayable",
      "type": "function"
    }
  ],
  "bytecode": "0x608060405234801561001057600080fd5b506110c7806100206000396000f3fe608060405234801561001057600080fd5b50600436106102065760003560e01c80637f58b3401161011a578063bc08f5d2116100ad578063e629adff1161007c578063e629adff14610482578063ea77536c1461048a578063f2fde38b146104b0578063fb9fd054146104d6578063ff975e23146104f357610206565b8063bc08f5d214610426578063bea9849e1461042e578063d64e102214610454578063db1c9fc61461047a57610206565b80638da5cb5b116100e95780638da5cb5b146103c4578063ab72c832146103cc578063b1f49473146103e9578063bb45a335146103f157610206565b80637f58b3401461038357806380d859111461038b578063817c620d146103b457806385dc5806146103bc57610206565b806329cd941b1161019d5780636c5ccfb01161016c5780636c5ccfb01461033d578063715018a614610345578063785fbfe21461034d5780637bc51638146103555780637c00f5881461037b57610206565b806329cd941b146102ff578063422ceaf614610325578063524900b51461032d5780635308f9011461033557610206565b806313459358116101d9578063134593581461029357806315d606c0146102b75780631a29cf63146102d15780631b019bb3146102f757610206565b8063032edcb61461020b578063093d551c1461022a5780630ad7ef2e1461025057806310fe8e7114610276575b600080fd5b6102286004803603602081101561022157600080fd5b50356104fb565b005b6102286004803603602081101561024057600080fd5b50356001600160a01b0316610558565b6102286004803603602081101561026657600080fd5b50356001600160a01b03166105d2565b6102286004803603602081101561028c57600080fd5b503561064c565b61029b6106a9565b604080516001600160a01b039092168252519081900360200190f35b6102bf6106b8565b60408051918252519081900360200190f35b610228600480360360208110156102e757600080fd5b50356001600160a01b03166106be565b6102bf610738565b6102286004803603602081101561031557600080fd5b50356001600160a01b031661073e565b6102bf6107b8565b61029b6107be565b61029b6107cd565b61029b6107dc565b6102286107eb565b61029b61088d565b6102286004803603602081101561036b57600080fd5b50356001600160a01b031661089c565b6102bf610916565b61029b61091c565b610228600480360360608110156103a157600080fd5b508035906020810135906040013561092b565b6102bf6109e7565b6102bf6109ed565b61029b6109f3565b610228600480360360208110156103e257600080fd5b5035610a02565b6102bf610a5f565b610228600480360360a081101561040757600080fd5b5080359060208101359060408101359060608101359060800135610a65565b6102bf610ada565b6102286004803603602081101561044457600080fd5b50356001600160a01b0316610ae0565b6102286004803603602081101561046a57600080fd5b50356001600160a01b0316610b5a565b61029b610bd4565b6102bf610be3565b610228600480360360208110156104a057600080fd5b50356001600160a01b0316610be9565b610228600480360360208110156104c657600080fd5b50356001600160a01b0316610c63565b610228600480360360208110156104ec57600080fd5b5035610d5c565b61029b610db9565b610503610dc8565b6033546001600160a01b03908116911614610553576040805162461bcd60e51b81526020600482018190526024820152600080516020611072833981519152604482015290519081900360640190fd5b606555565b610560610dc8565b6033546001600160a01b039081169116146105b0576040805162461bcd60e51b81526020600482018190526024820152600080516020611072833981519152604482015290519081900360640190fd5b606f80546001600160a01b0319166001600160a01b0392909216919091179055565b6105da610dc8565b6033546001600160a01b0390811691161461062a576040805162461bcd60e51b81526020600482018190526024820152600080516020611072833981519152604482015290519081900360640190fd5b606e80546001600160a01b0319166001600160a01b0392909216919091179055565b610654610dc8565b6033546001600160a01b039081169116146106a4576040805162461bcd60e51b81526020600482018190526024820152600080516020611072833981519152604482015290519081900360640190fd5b606855565b6072546001600160a01b031690565b606d5490565b6106c6610dc8565b6033546001600160a01b03908116911614610716576040805162461bcd60e51b81526020600482018190526024820152600080516020611072833981519152604482015290519081900360640190fd5b607480546001600160a01b0319166001600160a01b0392909216919091179055565b606a5490565b610746610dc8565b6033546001600160a01b03908116911614610796576040805162461bcd60e51b81526020600482018190526024820152600080516020611072833981519152604482015290519081900360640190fd5b607180546001600160a01b0319166001600160a01b0392909216919091179055565b60655490565b6073546001600160a01b031690565b6075546001600160a01b031690565b6070546001600160a01b031690565b6107f3610dc8565b6033546001600160a01b03908116911614610843576040805162461bcd60e51b81526020600482018190526024820152600080516020611072833981519152604482015290519081900360640190fd5b6033546040516000916001600160a01b0316907f8be0079c531659141344cd1fd0a4f28419497f9722a3daafe3b4186f6b6457e0908390a3603380546001600160a01b0319169055565b606f546001600160a01b031690565b6108a4610dc8565b6033546001600160a01b039081169116146108f4576040805162461bcd60e51b81526020600482018190526024820152600080516020611072833981519152604482015290519081900360640190fd5b607580546001600160a01b0319166001600160a01b0392909216919091179055565b606b5490565b606e546001600160a01b031690565b600054610100900460ff16806109445750610944610dcc565b80610952575060005460ff16155b61098d5760405162461bcd60e51b815260040180806020018281038252602e815260200180611044602e913960400191505060405180910390fd5b600054610100900460ff161580156109b8576000805460ff1961ff0019909116610100171660011790555b6109c0610dd2565b60658490556069839055606682905580156109e1576000805461ff00191690555b50505050565b60685490565b60695490565b6033546001600160a01b031690565b610a0a610dc8565b6033546001600160a01b03908116911614610a5a576040805162461bcd60e51b81526020600482018190526024820152600080516020611072833981519152604482015290519081900360640190fd5b606755565b60675490565b80828486880101010161271014610ac3576040805162461bcd60e51b815260206004820181905260248201527f4d75737420616c6c6f636174652031303025206f662065746820726169736564604482015290519081900360640190fd5b606a94909455606992909255606b55606c55606d55565b606c5490565b610ae8610dc8565b6033546001600160a01b03908116911614610b38576040805162461bcd60e51b81526020600482018190526024820152600080516020611072833981519152604482015290519081900360640190fd5b607380546001600160a01b0319166001600160a01b0392909216919091179055565b610b62610dc8565b6033546001600160a01b03908116911614610bb2576040805162461bcd60e51b81526020600482018190526024820152600080516020611072833981519152604482015290519081900360640190fd5b607080546001600160a01b0319166001600160a01b0392909216919091179055565b6071546001600160a01b031690565b60665490565b610bf1610dc8565b6033546001600160a01b03908116911614610c41576040805162461bcd60e51b81526020600482018190526024820152600080516020611072833981519152604482015290519081900360640190fd5b607280546001600160a01b0319166001600160a01b0392909216919091179055565b610c6b610dc8565b6033546001600160a01b03908116911614610cbb576040805162461bcd60e51b81526020600482018190526024820152600080516020611072833981519152604482015290519081900360640190fd5b6001600160a01b038116610d005760405162461bcd60e51b815260040180806020018281038252602681526020018061101e6026913960400191505060405180910390fd5b6033546040516001600160a01b038084169216907f8be0079c531659141344cd1fd0a4f28419497f9722a3daafe3b4186f6b6457e090600090a3603380546001600160a01b0319166001600160a01b0392909216919091179055565b610d64610dc8565b6033546001600160a01b03908116911614610db4576040805162461bcd60e51b81526020600482018190526024820152600080516020611072833981519152604482015290519081900360640190fd5b606655565b6074546001600160a01b031690565b3390565b303b1590565b600054610100900460ff1680610deb5750610deb610dcc565b80610df9575060005460ff16155b610e345760405162461bcd60e51b815260040180806020018281038252602e815260200180611044602e913960400191505060405180910390fd5b600054610100900460ff16158015610e5f576000805460ff1961ff0019909116610100171660011790555b610e67610e84565b610e6f610f24565b8015610e81576000805461ff00191690555b50565b600054610100900460ff1680610e9d5750610e9d610dcc565b80610eab575060005460ff16155b610ee65760405162461bcd60e51b815260040180806020018281038252602e815260200180611044602e913960400191505060405180910390fd5b600054610100900460ff16158015610e6f576000805460ff1961ff0019909116610100171660011790558015610e81576000805461ff001916905550565b600054610100900460ff1680610f3d5750610f3d610dcc565b80610f4b575060005460ff16155b610f865760405162461bcd60e51b815260040180806020018281038252602e815260200180611044602e913960400191505060405180910390fd5b600054610100900460ff16158015610fb1576000805460ff1961ff0019909116610100171660011790555b6000610fbb610dc8565b603380546001600160a01b0319166001600160a01b038316908117909155604051919250906000907f8be0079c531659141344cd1fd0a4f28419497f9722a3daafe3b4186f6b6457e0908290a3508015610e81576000805461ff00191690555056fe4f776e61626c653a206e6577206f776e657220697320746865207a65726f2061646472657373496e697469616c697a61626c653a20636f6e747261637420697320616c726561647920696e697469616c697a65644f776e61626c653a2063616c6c6572206973206e6f7420746865206f776e6572a264697066735822122040b9f45e9fbac00fa626b4c9c66323dac5b903e229b20fbfc96a94ffb5addddd64736f6c63430006060033",
  "linkReferences": {},
  "deployedLinkReferences": {}
}